:020000040800F2
:1000000000040020492E0008992E00089D2E0008AB
:10001000A12E0008A52E0008A92E0008000000004F
:10002000000000000000000000000000AD2E0008ED
:10003000B12E000800000000B52E0008CB250008F6
:10004000BD2E0008C12E0008C52E0008C92E0008CC
:10005000CD2E0008D12E0008D52E0008D92E00087C
:10006000DD2E0008E12E0008E52E0008E92E00082C
:10007000ED2E0008F12E0008F52E0008F92E0008DC
:10008000FD2E0008012F0008052F0008092F000889
:100090000D2F0008112F0008152F0008AD210008B2
:1000A0001D2F0008212F0008252F0008292F0008E8
:1000B00079260008312F0008352F0008392F000855
:1000C0003D2F0008412F0008452F0008492F000848
:1000D0004D2F0008512F000863060008592F000813
:1000E0005D2F0008612F0008652F000830B585B02E
:1000F00004000D002000C0B200F015FA2000C0B2CC
:1001000000F036FA2000C0B200F053FA009500204B
:10011000ADF804000020ADF806000020ADF808009E
:100120000020ADF80C000C20ADF80A00E4B2032C5E
:100130002ED2DFF86805047000A9DFF860050078AA
:10014000DFF85C2552F8200001F03CF8012240F273
:100150002551DFF848050078DFF8443553F82000D2
:1001600001F0B1F8002240F22771DFF83005007885
:10017000DFF82C3553F8200001F0A5F80121DFF855
:100180001C050078DFF8182552F8200001F08EF8E1
:1001900005B030BD70B504000D001600DFF8040591
:1001A0000570DFF800054670AA21DFF8F00400783A
:1001B000DFF8EC2452F8200001F0B4F88021DFF8D9
:1001C000DC040078DFF8D82452F8200001F0B2F8FF
:1001D0000028F3D0DFF8CC04017889B2DFF8BC0442
:1001E0000078DFF8BC2452F8200001F09BF8802151
:1001F000DFF8A8040078DFF8A82452F8200001F006
:1002000099F80028F3D0DFF89C04417889B2DFF830
:100210008C040078DFF8882452F8200001F082F87E
:100220008021DFF878040078DFF8742452F8200089
:1002300001F080F80028F3D05521DFF86004007841
:10024000DFF85C2452F8200001F06CF88021DFF820
:100250004C040078DFF8482452F8200001F06AF8D6
:100260000028F3D070BDC0B2012804D2C0B2DFF8BC
:10027000382442F82010704780B5DFF83004007849
:10028000DFF82C140978884200F04B81DFF8240451
:100290000078DFF82414DFF814241278DFF81C3417
:1002A000D25C4254DFF810044078FF2809D1DFF80F
:1002B00008048078DFF80014C97810EB0120001DD5
:1002C00003E0DFF8F4034078801CDFF8E8130978D6
:1002D000814240F0FE80DFF8DC030078DFF8D813BD
:1002E000405C552840F0F180DFF8BC03006800282E
:1002F00000F0EB80DFF8C0034078FF2801D1012037
:1003000000E00020DFF8B8130870DFF8AC03407895
:10031000FF2808D1DFF8A0038078DFF89C13C978A4
:1003200010EB012002E0DFF890034078801EDFF838
:100330009013A1F80100DFF880034078FF2801D175
:10034000042000E00220DFF87013405CDFF8701337
:10035000C870DFF864034078FF2801D1042000E072
:100360000220DFF8541340184078DFF85413087166
:10037000DFF844034078FF2801D1042000E0022088
:10038000DFF834134018801CDFF83413C1F805007F
:10039000CB48C54909688847022002F030FBC848AD
:1003A000007901280BD0032860D0092800F086804E
:1003B000102807D0112831D0122807D085E002F08C
:1003C000A5FA82E0052002F0BBFB7EE0BD48008874
:1003D000022190FBF1F202FB1102002A06D000225A
:1003E0004FF40051012002F07AFA05E001224FF4A7
:1003F0000051012002F073FAB2480088401CB14954
:100400000880B048008840F2E931884202D3AD4804
:1004100001210180AA480021017156E0AA48008804
:10042000022190FBF1F202FB1102002A06D0002209
:100430004FF48041012002F052FA05E001224FF40E
:100440008041012002F04BFA9F480088401C9E49E1
:1004500008809D48008840F2E931884202D39A48DA
:10046000012101809648002101712EE09748008803
:10047000022190FBF1F202FB1102002A06D00022B9
:100480004FF40041012002F02AFA05E001224FF466
:100490000041012002F023FA8C480088401C8B495F
:1004A00008808A48008840F2E931884202D38748B0
:1004B0000121018082480021017106E08448018801
:1004C000C9B2002002F05AFCFFE77A48002101700F
:1004D00019E078480078002805D1744800787749F9
:1004E000405CAA2803D07348007801280BD37148D8
:1004F0000078401C6F4908706E480078FF2802D3CE
:100500006C480021017069480078401C67490870F8
:1005100066480078FF2802D364480021017001205A
:1005200000E0002002BD10B582B004004FF4E0608E
:1005300002F0ACFAE4B2002C03D125208DF80000C3
:100540000CE0E4B2012C03D126208DF8000005E078
:10055000E4B2022C02D127208DF8000001208DF892
:10056000020001208DF8030000A802F094FA13BDE8
:1005700010B5040001210D2000F0B6FDE4B2002CFE
:1005800005D101214FF4804000F0AEFD10E0E4B24F
:10059000012C05D101215FF4003000F0B4FD07E02B
:1005A000E4B2022C04D101215FF4802000F0ABFD05
:1005B00010BD10B582B00400E4B2002C19D14FF484
:1005C0008060ADF8000004208DF8030000A94148C8
:1005D00001F01CFD4FF40070ADF8000003208DF811
:1005E000020018208DF8030000A93A4801F00EFD22
:1005F00036E0E4B2012C17D10820ADF80000042049
:100600008DF8030000A9334801F000FD0420ADF887
:10061000000003208DF8020018208DF8030000A9C7
:100620002C4801F0F3FC1BE0E4B2022C18D14FF48B
:100630000060ADF8000004208DF8030000A92648F2
:1006400001F0E4FC4FF48060ADF8000003208DF869
:10065000020018208DF8030000A91F4801F0D6FC05
:1006600013BD80B540F225511C4800F074FE0028EF
:1006700012D01A4800F05AFE0D4909780F4A8854E2
:100680000B480078401C0A49087009480078FF2888
:1006900002D307480021017001BD00009A0C002020
:1006A00020040020700C0020740C00209B0C002003
:1006B0009D0C00209C0C0020D4090020D40A0020AE
:1006C000400C00208C0C00208A0C0020880C00209C
:1006D0008E0C002000080140000C01400044004046
:1006E0002DE9F041E4B004000020060000A84FF41A
:1006F000C87102F0C9FB4FF4705002F099FA00681B
:10070000DFF8E413884205D1DFF8E0034FF47051BD
:10071000018019E04FF4785002F08AFA0068DFF89F
:10072000C813884205D1DFF8C4034FF47851018023
:100730000AE04FF4705000F078F9DFF8B0034FF49E
:10074000705101800120060000210800C0B2642819
:100750000AD2C0B2DFF89813C0B200AA12EB80022E
:1007600041F82020401CF1E7DFF8880304600020F6
:10077000DFF8801309688847DFF87C0300210170E7
:10078000F6B2002E34D0DFF864030088401C070066
:10079000002080465FFA88F8B8F1640F50D25FFA03
:1007A00088F8DFF84C0350F82800008800281CD097
:1007B000BFB23A0004215FFA88F8DFF8340350F83A
:1007C000280002F00FFABFB2380002F031FA5FFAE7
:1007D00088F8DFF81C1341F82800DFF81C030078C4
:1007E000401CDFF8141308707F1C18F10108D1E7D2
:1007F00000200700FFB2642F22D2FFB2BC4850F89D
:1008000027000088002819D0FFB2B94850F8270007
:10081000008800F0EEF80500002D06D1FFB2B448C4
:1008200050F8270000F0A9F80500FFB2B04840F8E2
:100830002750B1480078401CAF4908707F1CD9E7A9
:1008400064B0BDE8F08170B584B004000D000020F4
:100850000600A9480078F6B286422FD2F6B2A44824
:1008600050F826000088A4B2A04225D100A8F6B214
:100870009F4951F82610042202F0DEF9ADF802502B
:1008800000A800F07AF8F6B2994941F82600994894
:10089000406800280ED09948D0E90023CDE9012313
:1008A0008DF80560ADF80640ADF8085001A89149F3
:1008B00049688847012002E0761CCAE7002004B09E
:1008C00070BD30B5E5B000A84FF4C87102F0DCFA95
:1008D0004FF4705000F0A9F884484FF47051018033
:1008E00000210800C0B2642809D2C0B28049C0B259
:1008F00000AA12EB800241F82020401CF2E77D485C
:100900000068002803D000207A49096888477A489F
:100910000021017075480088401C0400002005007B
:10092000EDB2642D1FD2EDB2714850F82500008859
:10093000002816D0A4B222000421EDB26C4850F871
:10094000250002F04FF9A4B2200002F071F9EDB2D7
:10095000674941F8250068480078401C66490870DE
:10096000641C6D1CDCE765B030BDC0B2022803D248
:10097000C0B2604A42F82010704770B582B00400DF
:100980005A480088401C0500ADB25848008800F263
:10099000002085421FDAADB2280002F049F90600B6
:1009A00030882188884208D100200090ADB22A000A
:1009B000042100A802F016F90BE0306810F1010FD5
:1009C00007D1ADB22A000421200002F00BF930005B
:1009D0000EE06D1CD8E700F03AF80500ADB22A0031
:1009E0000421200002F0FEF8ADB2280002F020F948
:1009F00076BD70B504003D480088401C0500ADB2CE
:100A00003A48008800F2002085420CDAADB2280096
:100A100002F00EF906003088A4B2A04201D13000E5
:100A200002E06D1CEBE7002070BD10B582B0040041
:100A30002D4800900221A4B2200A80B202F0BEF834
:100A4000A4B22200042100A802F0CCF813BD7CB5AA
:100A50000020009025480088B0F5705F07D14FF462
:100A60007850FFF7E2FF4FF47850040006E04FF4AF
:100A70007050FFF7DAFF4FF470500400601C05005F
:100A8000002006001C480078F6B286421FD2F6B25B
:100A9000174850F826000088002816D001A8F6B2A2
:100AA000134951F82610042202F0C6F8ADB22A000C
:100AB000042101A802F096F8ADB2280002F0B8F8BF
:100AC000F6B20B4941F826006D1C761CDAE70748A0
:100AD0000288042100A802F085F804480480280058
:100AE00080B276BD000000000AF5AA557E0C0020F9
:100AF00044080020540C0020990C0020782E000897
:100B000010B50400DFF8100304704FF40042002118
:100B1000012001F01BFE4FF480420021012001F072
:100B200015FE4FF400420021012001F039FE4FF480
:100B300080420021012001F033FEB8490020FFF778
:100B400092FB00210800C0B2402805D2C0B2B449CF
:100B5000FF224254401CF6E70022B249642000F014
:100B6000D4FD10BDC0B2032803D2C0B2AE4A42F8D1
:100B70002010704780B5FFF7A4FE01F016FD01BDFF
:100B800010B5A0B00020040000A8802102F07CF97C
:100B900000210800C0B2402813D2C0B2A049415C75
:100BA000FF290CD0E4B200A901F81400E4B200A9B6
:100BB00011EB4401C0B29A4A825C4A70641C401C2A
:100BC000E8E7E4B2002C07D0E4B263009BB200AACD
:100BD0006521012000F03AF920B010BD2DE9FE4357
:100BE00004002500D5F805000600B5F8010007004F
:100BF000E87889490978884240F093802879382834
:100C000000F0858064281FD065281DD0662844D058
:100C100068280DD069280ED06A2806D0792877D0A8
:100C20007A280BD07B280CD07BE000F0E8F878E045
:100C3000FFF7A6FF75E000F0A0F872E0FFF79AFF5B
:100C40006FE001F0B2FC6CE0BFB278088046002093
:100C500081465FFA89F95FFA88F8C14561D2754823
:100C6000006800905FFA89F916F819008DF8010004
:100C70005FFA89F916EB490040788DF802005FFAB7
:100C800089F916F819006649405C8DF8030000A840
:100C900000F049F819F10109DBE7BFB2B808804656
:100CA000002081465FFA89F95FFA88F8C14538D299
:100CB000614AD2E90001CDE901015FFA89F936F80C
:100CC0002900ADF805005FFA89F916EB8900408824
:100CD000ADF8070054484068002803D001A85249E5
:100CE00049688847BDF807004FF6FF7188420BD06E
:100CF000BDF80710BDF80500FFF7A5FD002803D1DA
:100D00004FF6FF70ADF8070019F10109CAE708E0D6
:100D100045488068002804D03000434989688847E6
:100D2000FFE7BDE8F78310B50400404804603F4882
:100D300000688078FF2813D03C480068407840283D
:100D40000ED23A48006840783549405C384908700E
:100D50003648006840783249344A126892784254E2
:100D600031480068002804D0304800682E490968DE
:100D700088472E480021016010BD10B5E4B0002066
:100D80000400002108002D490978C0B2884215D21C
:100D9000C0B22B4951F820100988A4B200AA22F849
:100DA0002410C0B2264951F820104988A4B200AAE4
:100DB00012EB84025180641C401CE4E7A3009BB248
:100DC00000AA6621012000F041F864B010BD10B502
:100DD00004001C48007800280BD01A480078430013
:100DE0009BB2194A6521002000F030F81548002117
:100DF000017000220B49642000F087FC10BD80B513
:100E0000054800788DF80000012300AA6721002022
:100E100000F01CF801BD0000950C0020DD0B00085F
:100E2000D40B0020CF0D0008340C0020640C0020EF
:100E3000960C0020942E0008702E0008990C0020BB
:100E400044080020970C0020140C00202DE9F041EC
:100E500084B004000D0016001F0000A8002100222D
:100E600000230EC00C38ADF801708DF80040012051
:100E70008DF803008DF80450CDF8056001F08FFB6C
:100E8000804601F08CFB1FFA88F8B0EB08000428BC
:100E9000F7DB00224FF48041012001F081FC0022A9
:100EA0004FF40041012001F07BFC01F078FB80460B
:100EB00001F075FB1FFA88F8B0EB08000428F7DB97
:100EC0004FF400420021012001F06AFC4FF48042FF
:100ED0000021012001F064FCBDE8FF81DFF8A002E1
:100EE000006850F00100DFF898120860DFF8940203
:100EF0000068DFF894120840DFF888120860DFF815
:100F000080020068DFF884120840DFF8741208607D
:100F1000DFF86C02016821F480210160DFF86402CF
:100F2000006830F4FE00DFF85C120860DFF8600251
:100F30005FF41F0101607047DFF85812C0B208600B
:100F4000704700231A00DFF83C321B681A0032F4A5
:100F50007C1251EA00031A43DFF828321A60704706
:100F6000DFF83412C0B20860704700221100DFF8C9
:100F7000142212681100890889000143814A116016
:100F800070478048006810F00C0070470022110084
:100F90007C4A1268110031F0F0010143794A116076
:100FA000704700221100774A1268110031F4E061A5
:100FB0000143744A1160704700221100714A12689F
:100FC000110031F4605151EAC0016E4A116070475E
:100FD000002211006B4A1268110031F440410143B4
:100FE000684A1160704730B40025290000252A00A6
:100FF00000252B0000252C00624D2D6815F00C05F6
:1010000029000D00002D04D0042D05D0082D06D098
:1010100026E0634D056025E0614D056022E0594DF5
:101020002D6815F470152A00564D2D6815F480357D
:101030002B00920C921C002B04D15A4D05FB02F59B
:1010400005600FE04F4D2D68AD0304D5554D05FBF0
:1010500002F5056006E0524D05FB02F5056001E072
:101060004F4D0560474D2D6815F0F0052900090921
:101070004D4D4D5D2C000568E5404560414D2D68A6
:1010800015F4E0652900090A474D4D5D2C004568BF
:10109000E54085603B4D2D6815F460552900C90A6F
:1010A000414D4D5D2C004568E540C560354D2D68CE
:1010B00015F440452900890B3C4D4D5D2C00C56859
:1010C000B5FBF4F5056130BC7047C9B2002905D005
:1010D000374A12680243364B1A6004E0344A1268F9
:1010E0008243334B1A607047C9B2002905D0314A98
:1010F000126802432F4B1A6004E02E4A12688243A2
:101100002C4B1A607047C9B2002905D02A4A1268D0
:101110000243294B1A6004E0274A12688243264B97
:101120001A60704725490870704710B40100002408
:1011300022000024230000242000C9B24C09E4B29C
:101140002200012A03D10E4C2468230008E0022A61
:1011500003D1124C2468230002E0194C24682300B8
:10116000C9B211F01F04220001249440234202D08E
:101170000124200001E000242000C0B210BC704710
:1011800000100240041002400000FFF8FFFFF6FECE
:10119000081002400000424260004242201002401B
:1011A00000127A0000093D001004002038040020DD
:1011B00014100240181002401C1002400710024098
:1011C000241002402DE9F04786B004000D000020F5
:1011D00006000020070000208046002081460020F5
:1011E0008246A8890028A246208A06004CF6FF7095
:1011F0000640E88806432682A08906004EF6F310D2
:101200000640A88829890843698908430643A681BE
:10121000A08A06004FF6FF400640A8890643A68232
:1012200000A8FFF7E0FE2048824502D1039807009E
:1012300001E002980700A089000408D5192000FBEE
:1012400007F029684900B0FBF1F0804607E019205B
:1012500000FB07F029688900B0FBF1F080466420AC
:10126000B8FBF0F0000106003009642101FB10809A
:101270008146A089000409D55FEAC90032306421A3
:10128000B0FBF1F010F00700064308E05FEA091038
:1012900032306421B0FBF1F010F00F0006432681DC
:1012A00006B0BDE8F087000000380140C9B200294F
:1012B00004D0828952F40052828103E0828922F4B0
:1012C000005282817047F0B400273B0000273C00A9
:1012D00000273D0000273E0040F66A1789B2B94258
:1012E00006000F00FFB27F09FFB23B0089B211F088
:1012F0001F073C000127A7403D00012B01D10C3600
:1013000004E0022B01D1103600E01436D2B2002ADC
:1013100003D037682F43376002E03768AF43376048
:10132000F0BC7047CA05D20D828070478088C00526
:10133000C00D70470200002318004FF4007389B2FB
:10134000994213880B4202D00123180001E00023C8
:101350001800C0B2704770B40200002633000026A7
:101360003400002635000026300040F66A1689B2A7
:10137000B1420E00F6B27609F6B2350089B211F02C
:101380001F063400012616FA04F4012D02D19689B5
:10139000344006E0022D02D1168A344001E0968ADC
:1013A000344089B20E0AB6B23300012616FA03F3AE
:1013B00016883340002C04D0002B02D001263000C8
:1013C00001E000263000C0B270BC704780B54FF419
:1013D00000720021012001F0B9F900224FF40071E0
:1013E000012001F0DDF92348027820210120FEF7D9
:1013F000D1FE01BD70B5040000F03EF8CC2000F035
:10140000A3F8442000F0A0F84FF482610800002205
:10141000110089B280B2814202D200BF491CF8E7B4
:1014200000F02AF8CC2000F08FF8BE2000F08CF8F5
:1014300000F04AF8050000F047F80600EDB2FF2D75
:1014400016D0EDB22809C0B2F6B216F0070110EBC3
:101450000110207015F00F006070064821780170AF
:101460000448027820210120FEF794FE012000E0CC
:10147000002070BD980C002080B54FF40072002150
:10148000012001F08DF941F288310800002211009D
:1014900089B280B2814202D200BF491CF8E7002223
:1014A0004FF40071012001F07BF941F2883108000E
:1014B0000022110089B280B2814202D200BF491CD1
:1014C000F8E7012002BD000038B50020040000202C
:1014D0000500EDB2082D34D2E4B264084FF4007276
:1014E0000021012001F05CF90021080080B21528DC
:1014F00002D200BF401CF9E700224FF40071012026
:1015000001F04EF90021080080B2152802D200BF78
:10151000401CF9E74FF40071012001F05FF9002849
:1015200001D054F080044FF4FA7108000022110039
:1015300089B280B2814202D200BF491CF8E76D1C1B
:10154000C7E72000C0B232BD38B504000020050056
:10155000EDB2082D34D24FF400720021012001F0C9
:101560001FF90021080080B2152802D200BF401CDC
:10157000F9E7E4B254FA05F0C00705D500224FF4AC
:101580000071012001F00CF94FF4FA7108000022FB
:10159000110089B280B2814202D200BF491CF8E733
:1015A00000224FF40071012001F0FAF80021080038
:1015B00080B2152802D200BF401CF9E76D1CC7E7B6
:1015C00031BD000010B500200400E4B2402C4DD223
:1015D000E4B2754810EB04108068002844D0E4B2EF
:1015E00020017149405C00280FD100F0D8FFE4B21F
:1015F0006D4911EB04114988401AE4B26A4911EBB4
:101600000411898880B2884215D2E4B2200166496B
:10161000405C012828D100F0C5FFE4B2624911EB1B
:1016200004114988401AE4B25F4911EB041189881A
:1016300080B2884218D3E4B25B4810EB0410806893
:101640005A490860E4B2584810EB0410C068584981
:101650000860E4B2544810EB041000218160544843
:101660000068524909688847641CAEE710BDF8B5A8
:1016700004000D00160000200700FFB2402F40D2EA
:10168000FFB2494810EB07108068002807D0FFB26E
:10169000454810EB07108068290088422FD1FFB21F
:1016A000380141490122425400F07CFFFFB23E491B
:1016B00011EB07114880FFB23B4810EB0710848004
:1016C000FFB2394810EB07108560FFB2364810EBC7
:1016D0000710C6607F1CFFB2402F0FD2FFB2324806
:1016E00010EB071080682900884205D1FFB22E4810
:1016F00010EB0710002181607F1CECE704E07F1CE9
:10170000BBE7002000F051FFF1BDF8B504000D006B
:10171000160000200700FFB2402F40D2FFB222483F
:1017200010EB07108068002807D0FFB21E4810EBAE
:1017300007108068290088422FD1FFB238011A496A
:101740000022425400F02BFFFFB2174911EB0711A2
:101750004880FFB2144810EB07108480FFB2124893
:1017600010EB07108560FFB20F4810EB0710C66042
:101770007F1CFFB2402F0FD2FFB20B4810EB0710B7
:1017800080682900884205D1FFB2074810EB071096
:10179000002181607F1CECE704E07F1CBBE7002098
:1017A00000F003FFF1BD000044040020680C00209D
:1017B0006C0C002030B40024230000242200446874
:1017C0002300DFF8D04123400C680D7954EA05244A
:1017D0002343436084682300DFF8BC412340CC6886
:1017E0008D682C434D7954EA450423438360C46AD1
:1017F000230033F470030C7C641E2243D2B253EAFC
:101800000253C36230BC7047C9B2002904D0826859
:1018100052F00102826003E0826822F001028260DD
:101820007047C9B2002905D082684FF480731A430B
:10183000826003E0826822F480728260704781686F
:1018400051F00801816070470100002210008A6891
:10185000120702D50122100001E000221000C0B2E0
:101860007047816851F004018160704701000022D7
:1018700010008A68520702D50122100001E0002200
:101880001000C0B27047C9B2002904D0826852F477
:10189000A002826003E0826832F4A0028260704796
:1018A000F0B40026350000263400C9B20A2916D348
:1018B000C66835000726B1F10A075FF0030C0CFB80
:1018C00007F7BE403400A543DBB2B1F10A06032797
:1018D0007E4313FA06F634002543C56011E006691D
:1018E00035000726032707FB01F7BE403400A54358
:1018F000DBB2032606FB01F613FA06F63400254395
:101900000561D2B2072A14D2466B35001F26571E36
:101910005FF0050C0CFB07F7BE403400A543C9B2CD
:10192000561E05277E4311FA06F63400254345630B
:101930002DE0D2B20D2A14D2066B35001F26D71F18
:101940005FF0050C0CFB07F7BE403400A543C9B29D
:10195000D61F05277E4311FA06F63400254305639A
:1019600015E0C66A35001F26B2F10D075FF0050CC1
:101970000CFB07F7BE403400A543C9B2B2F10D0617
:1019800005277E4311FA06F634002543C562F0BCF4
:1019900070470000FFFEF0FFFDF7F1FF016821F046
:1019A000010101600021016000214160002181608E
:1019B0000021C1605249884206D15249096851F05C
:1019C0000F01504A11606CE04F49884206D14D49E1
:1019D000096851F0F0014B4A116062E04B498842BE
:1019E00006D14849096851F47061464A116058E0CF
:1019F0004749884206D14349096851F47041414A38
:101A000011604EE04349884206D13E49096851F4CD
:101A100070213C4A116044E03F49884206D139496F
:101A2000096851F47001374A11603AE03B49884235
:101A300006D13449096851F07061324A116030E0D2
:101A40003749884206D13749096851F00F01354AB4
:101A5000116026E03449884206D13249096851F0C4
:101A6000F001304A11601CE03049884206D12D490E
:101A7000096851F470612B4A116012E02C498842C8
:101A800006D12849096851F47041264A116008E0DE
:101A90002849884205D12349096851F47021214A17
:101AA0001160704710B400231A0003681A00224B1B
:101AB0001A408B680C6A23430C6923434C69234307
:101AC0008C692343CC6923434C6A23438C6A2343A8
:101AD0001A430260CB6843600B6883604B68C36045
:101AE00010BC7047C9B2002904D0026852F001024C
:101AF000026003E0026822F0010202607047000009
:101B000008000240040002401C0002403000024075
:101B100044000240580002406C0002408000024035
:101B200008040240040402401C0402403004024045
:101B300044040240580402400F80FFFF80B5614812
:101B4000006850F001005F4908605F4800685F4925
:101B500008405D4908605B4800685D490840594994
:101B600008605848016821F48021016056480068E7
:101B700030F4FE005449086056485FF41F010160CC
:101B800000F001F801BD80B500F001F801BD00B51D
:101B900083B000200190002000904A48006850F473
:101BA0008030484908604748006810F400300090D1
:101BB0000198401C01900098002803D10198B0F5CD
:101BC000A06FF0D13F480068800302D5012000904B
:101BD00001E0002000900098012844D13E480068B0
:101BE00050F010003C4908603B48006880088000C5
:101BF0003949086038483849096801603248324933
:101C00000968016030483049096801602E482E4952
:101C1000096801602C48006830F47C102A4908608B
:101C20002948006850F49810274908602548006842
:101C300050F0807023490860224800688001FBD57D
:101C400021480068800880001F4908601E4800681D
:101C500050F002001C4908601B48006810F00C009E
:101C60000828F9D12CE0FFF739F90120FFF764F9D2
:101C70002120FFF75AFA0028FAD00020FFF786F952
:101C80000020FFF799F90020FFF7A2F90020FFF7E5
:101C900088F95FF480110020FFF753F90120FFF766
:101CA0005FF93920FFF741FA0028FAD00220FFF748
:101CB0005CF9FFF766F90828FBD10720FFF732FA35
:101CC00007BD000000100240041002400000FFF8B1
:101CD000FFFFF6FE0810024000200240DFF850012E
:101CE000DFF850110160DFF84801DFF84C110160A6
:101CF0007047DFF84801006850F08000DFF83C11C1
:101D00000860704738B50400042005005FF43020F7
:101D100000F09AF80500EDB2042D23D1DFF81C0184
:101D2000006850F00200DFF814110860DFF81001BD
:101D30000460DFF80801006850F04000DFF8FC1094
:101D400008605FF4302000F07FF80500EDB2052D4B
:101D500008D0DFF8E800006841F6FD710840DFF8C0
:101D6000DC1008602800C0B232BD70B582B004003B
:101D70000D0004200600002000904FF4005000F0F9
:101D800063F80600F6B2042E33D1DFF8B000006825
:101D900050F00100DFF8A410086025804FF40050D7
:101DA00000F052F80600F6B2042E16D1A01C0090E6
:101DB000280C009908804FF4005000F045F8060008
:101DC000F6B2052E15D0DFF87400006841F6FE71FA
:101DD0000840DFF8681008600BE0F6B2052E08D066
:101DE000DFF85800006841F6FE710840DFF84C103B
:101DF00008603000C0B276BD0421080011490968AE
:101E0000C90702D5012108000FE00E4909684907FA
:101E100002D50221080008E00A490968C90602D56E
:101E20000321080001E004210800C0B2704700004F
:101E30000420024023016745AB89EFCD102002400A
:101E4000142002400C20024038B504000420050094
:101E5000FFF7D2FF0500EDB2012D06D1002C04D012
:101E6000FFF7CAFF0500641EF5E7002C01D105202D
:101E700005002800C0B232BD00B591B000208DF839
:101E800003001220ADF8000000A9554800F0BEF88C
:101E900001210120FFF719F9012140F20120FFF78C
:101EA00023F95048FFF77AFD4F4806904F480790B6
:101EB000002008900220099000200A9080200B90BA
:101EC0004FF480700C904FF480600D9020200E90A5
:101ED0004FF400500F900020109006A94148FFF7E2
:101EE000E1FD01213F48FFF7FDFD002001900120A9
:101EF0008DF8080001208DF809005FF46020039040
:101F00000020049002208DF8140001A93848FFF742
:101F100051FC0723012201213548FFF7C1FC0723AB
:101F2000022204213248FFF7BBFC01213048FFF7B1
:101F300078FC01212E48FFF767FC2D48FFF77FFC56
:101F40002B48FFF781FC0028FAD12948FFF789FCCC
:101F50002748FFF78BFC0028FAD101212448FFF71E
:101F600092FC002223490320FFF781FB11B000BD42
:101F70000100C9B2042906D2C9B21C4810EB4100C5
:101F800030F8020C00E00020704710B5040001207A
:101F9000FFF7EEFF184908800220FFF7E9FF174915
:101FA0000880164800881449098808180021484309
:101FB00013490870124800780321124A127801FB75
:101FC0000020114908701048027822210120FEF7F4
:101FD000E1F8002207490320FFF749FB10BD00008C
:101FE00000080140080002404C240140600C002021
:101FF000002401408B1F00087A0C00207C0C00207C
:10200000910C002040040020920C0020F0B55FF0FD
:10201000000C62465FF0000C63465FF0000C644603
:102020005FF0000C65465FF0000C66465FF0000C48
:10203000674691F803C01CF00F0C624691F803C08C
:102040005FEACC6C03D591F802C05CEA020291F819
:1020500000C05FEA0C6C3AD0D0F800C066465FF072
:10206000000C6446082C31D25FF0010C1CFA04FC11
:102070006546B1F800C015EA0C0C6346AB4223D1AB
:102080005FEA840C65465FF00F0C1CFA05FC67469E
:10209000BE4312FA05FC5CEA060691F803C0BCF1E7
:1020A000280F06D15FF0010C1CFA04FCC0F814C024
:1020B0000AE091F803C0BCF1480F05D15FF0010CB4
:1020C0001CFA04FCC0F810C0641CCBE70660B1F831
:1020D00000C04FF4807EF4453FD3D0F804C066467C
:1020E0005FF0000C6446082C36D25FF0010C14F14E
:1020F000080E1CFA0EFC6546B1F800C015EA0C0C7F
:102100006346AB4226D15FEA840C65465FF00F0C54
:102110001CFA05FC6746BE4312FA05FC5CEA06069B
:1021200091F803C0BCF1280F07D15FF0010C14F146
:10213000080E1CFA0EFCC0F814C091F803C0BCF1E4
:10214000480F07D15FF0010C14F1080E1CFA0EFCC9
:10215000C0F810C0641CC6E74660F0BD806880B25D
:102160007047020000231800D3689BB20B4202D0D4
:102170000123180001E000231800C0B2704789B2A3
:102180000161704789B241617047000080B54FF42A
:102190008060ADF8000004208DF8030003208DF866
:1021A000020000A94748FFF731FF01BD80B54FF499
:1021B000007000F079FD00280CD04FF4007000F0A2
:1021C00089FD41480078401C3F49087001210020EA
:1021D000FFF7C7FF01BD000038B50400002005006F
:1021E00000222021002000F0DBFA42F210710800EA
:1021F0000022110089B280B2814202D200BF491C84
:10220000F8E720220021002000F0CAFA00F0C7F908
:1022100005000121002000F0E1FA002804D100F0BF
:10222000BEF9401BC928F4D300F036FA00F0B7F924
:1022300005000121002000F0D1FA002804D000F0B0
:10224000AEF9401BC928F4D300F068FA1F490860B2
:1022500000F048FA1D4800683A21B0FBF1F01C4933
:1022600008801B4800880B2805D30022802100200D
:1022700000F096FA04E080220021002000F090FA9D
:1022800013480288D2B221210120FDF783FF0022EA
:1022900010490220FFF7EBF931BD80B500F0C6F917
:1022A000FFF774FF20220021002000F04FFA2022C7
:1022B0000021002000F074FA002206496420FFF794
:1022C00024FA01BD00080140900C00205C0C0020A5
:1022D000780C0020D921000800231A0003881A0076
:1022E0001D4B98420ED0224B98420BD0B0F1804F3C
:1022F00008D01A4B984205D0194B984202D0194B7E
:10230000984204D14FF68F731A404B881A43164BEC
:10231000984207D0154B984204D04FF6FF431A401D
:10232000CB881A4302808B8883850B8803850A4BF0
:1023300098420BD00E4B984208D00E4B984205D0D5
:102340000D4B984202D00D4B984201D10B7A038677
:102350000123838270470000002C014000040040EC
:1023600000080040000C0040001000400014004035
:102370000034014000400140004401400048014059
:10238000C9B2002904D0028852F00102028003E0A1
:10239000028822F0010202807047D2B2002A03D0E4
:1023A00083890B43838102E083898B438381704758
:1023B00081847047808C704730B40200002528006B
:1023C00000252B0000252C00158A0D402B00958937
:1023D0000D402C009BB2002B05D0A4B2002C02D0E3
:1023E0000125280001E000252800C0B230BC70475C
:1023F00089B2CA430282704780B500F0C3F85FF427
:10240000E1310120FDF772FE00F08EF93448FEF74D
:1024100067F900F074F8C0B2FEF772FB00F02CF818
:1024200000F0E2FA00F082FBFFF726FD00F0FAF977
:10243000FEF7CCFFFFF731FF2A490020FEF792FBA1
:1024400029490120FEF791FA002228494FF47A70B9
:10245000FFF75BF9FFF7B6F8FDF70EFFFAE710B5E7
:1024600082B0040000A8FEF7C5FF00221F494FF408
:102470007A70FFF74AF913BD1D48006800214170CA
:102480001B48006800218170194800680021C17054
:10249000174800680021017115480068002141714A
:1024A00013480068002181711148006800214173C0
:1024B000704700221100C9B20A290FD2C9B20D4AD1
:1024C00052F82120C9B24B1C1380C9B2094A52F8F4
:1024D0002120C9B24B1C5380491CECE77047000017
:1024E000B3240008FD240008F92400085F24000834
:1024F000340400204408002001007047704710B5E4
:10250000012000F07FF90400A4B2A40914F00F0424
:10251000A01CC0B210BD000010B440B24109384A3E
:10252000012310F01F04A34042F8213010BC704773
:1025300040B2002808D540B210F00F02314BD2183B
:102540000B0102F8043C03E040B22F4A0B01835414
:10255000704710B50400B4F1807F01D3012010E072
:102560002002000A401E294908600F215FF0FF3059
:10257000FFF7DEFF264800210160264807210160A1
:10258000002010BD80B5244800684FF47A71B0FB7C
:10259000F1F0FFF7DEFF002800D0FEE701BD1F4885
:1025A000008870471E480088704738B52620FFF71E
:1025B000B3FF00215FF0006000F0A4FA1948006842
:1025C000040025000020A84731BD14480088401CA5
:1025D0001249088014480088401C1349088012489A
:1025E00000884FF47A71884207D10D480088401C5A
:1025F0000B4908800C480021018070470000000052
:1026000080E100E018ED00E000E400E014E000E00C
:1026100018E000E010E000E03C040020820C002004
:10262000840C002004000008860C0020E0B5012185
:102630000120FEF768FD4FF6FF70ADF804000C486E
:1026400000680C49B0FBF1F0401EADF8000000201E
:10265000ADF806000020ADF8020000208DF808005B
:1026600000A95FF08040FFF737FE00F03BF807BDA0
:102670003C04002040420F0080B501215FF0804003
:10268000FFF79AFE002806D001215FF08040FFF797
:10269000AFFE00F027F801BD80B51C208DF80000CA
:1026A00000208DF8010001208DF8020001208DF836
:1026B000030000A800F0EFF9012201215FF0804043
:1026C000FFF76BFE01215FF08040FFF791FE0021D4
:1026D0005FF08040FFF76CFE01215FF08040FFF764
:1026E0004FFE01BD80B51C208DF8000000208DF844
:1026F000010001208DF8020000208DF8030000A8E1
:1027000000F0C9F9002201215FF08040FFF745FE8B
:1027100000215FF08040FFF733FE01BD80B55FF020
:102720008040FFF747FE02BD80B501210420FEF77F
:10273000DBFC01210820FEF7D7FC01211020FEF769
:10274000D3FC01212020FEF7CFFC01BD70B582B083
:1027500004000D001600E4B2042C20D203208DF8F2
:102760000200B6B2002E0BD0ADF8006010208DF83C
:10277000030000A9E4B22A4850F82400FFF746FC01
:10278000ADB2002D0BD0ADF8005028208DF803001D
:1027900000A9E4B2224850F82400FFF737FC73BDCB
:1027A00070B504000D001600E4B2042C15D2ADB2D1
:1027B000002D07D0290089B2E4B2194850F824004E
:1027C000FFF7DDFCB6B2002E07D0310089B2E4B2CB
:1027D000134850F82400FFF7D5FC70BD70B5040015
:1027E0000D002000C0B200F00DF80600B6B2ADB288
:1027F00015EA0600ADB2A84201D1012000E0002098
:10280000C0B270BD10B50400E4B2042C06D2E4B22C
:10281000034850F82400FFF7A1FC00E0002010BDA1
:102820000004002080B54FF4604200210120FFF732
:102830008DFF802200210020FFF788FF4FF40072F7
:1028400000210020FFF782FF4FF48062002100206A
:10285000FFF77CFF4FF4006200210020FFF776FFB6
:102860004FF4805200210020FFF770FF0822002162
:102870000120FFF76BFF012200210120FFF766FF17
:102880004FF4007200210020FFF78AFF4FF48062AE
:1028900000210020FFF784FF4FF400620021002098
:1028A000FFF77EFF4FF4805200210020FFF778FFF2
:1028B000082200210120FFF773FF012200210120DF
:1028C000FFF76EFF4FF4004200210120FFF768FF81
:1028D0004FF4C14200210120FFF762FF01BD70B536
:1028E00004000D001600F6B2002E07D000222900C9
:1028F00089B22000C0B2FFF753FF06E02A0092B26F
:1029000000212000C0B2FFF74BFF70BD80B5012150
:102910000D20FEF7E9FB4FF4006200210120FFF7D4
:1029200015FF022200210120FFF710FF4FF4806203
:1029300000210120FFF70AFF4FF40062002101206F
:10294000FFF72EFF41F28831012000F001F801BDB0
:1029500038B504000D00224805802000C0B200F008
:1029600001F831BD01B59DF80000002805D0002216
:1029700002210120FFF714FF04E0022200210120C0
:10298000FFF70EFF00224FF480610120FFF708FFE0
:1029900042F2107108000022110089B280B2814217
:1029A00002D200BF491CF8E74FF4806200210120E9
:1029B000FFF7F6FE0A48008801280AD300AA094951
:1029C0000120FEF7A2FE06480088401E0449088048
:1029D00005E000224FF400610120FFF7E1FE01BD98
:1029E000800C00206529000880B54FF4805200213A
:1029F0000120FFF7ABFE012000F001F801BD10B58A
:102A00000400E4B2600016490870002000F001F8EC
:102A100010BD10B5040013480078002805D000F060
:102A200025F810480021017004E000F027F80D4857
:102A3000012101700A480078401E094908700848C1
:102A40000078012805D300220749C820FEF75DFE63
:102A500004E000F013F803480121017010BD0000EC
:102A6000940C002042040020132A000880B50022A4
:102A70004FF480510120FFF793FE01BD80B54FF464
:102A8000805200210120FFF78BFE01BD2049014348
:102A9000204A11607047F0B4002421000024220075
:102AA0000F242300C478002C20D01A4C246814F47E
:102AB000E064D4F5E064240A2100D1F1040422008A
:102AC000CB4044789440210084781C402143090184
:102AD0000478114D615504786411104D0126077872
:102AE00017F01F07BE4045F8246009E00478641120
:102AF0000B4D0126077817F01F07BE4045F82460EC
:102B0000F0BC7047074A0A400243074B1A607047FF
:102B10000000FA050CED00E000E400E000E100E058
:102B200080E100E080FFFF1F08ED00E080B520227B
:102B300000210120FFF70AFE032000F001F801BD8B
:102B400010B50400E4B2600012490870002000F0E3
:102B500001F810BD10B504000F480078002805D01A
:102B600000F01EF80C480021017004E000F01FF88E
:102B700009480121017007480078401E0549087086
:102B800004480078012804D3002204490120FEF7FC
:102B90006EFD10BD930C002041040020552B000851
:102BA00080B5002220210120FFF7FAFD01BD80B58C
:102BB000202200210120FFF7F3FD01BD70B50400C4
:102BC0000D00002D0DD0A00210F100600600FFF7EF
:102BD00085F83000FFF796F8FFF78BF8641C6D1E40
:102BE000EFE770BD2DE9F04104000D00160037003D
:102BF000A046ADB2042095FBF0F101FB1051002975
:102C000014D1ADB2002D11D0B00010F1006007005A
:102C1000FFF764F8D8F800103800FFF7A6F8FFF7C0
:102C200068F818F104082D1F761CEAE7BDE8F0816A
:102C3000800010F1006070474AB38B0707D011F88D
:102C4000013B00F8013B521E21D08B07F7D18307CF
:102C50001ED1103A07D330B4B1E83810103AA0E8CA
:102C60003810F9D230BC530724BFB1E80810A0E8EF
:102C7000081044BF51F8043B40F8043BD20724BF7E
:102C800031F8022B20F8022B44BF0B7803707047F9
:102C9000083A07D3B1E80810083A40F8043B40F876
:102CA00004CBF7D25307E4E7010000231800002308
:102CB0001A000A4B1B680B401A00094B1B680B4299
:102CC00004D0002A02D00123180001E000231800DC
:102CD000C0B270470249086070470000000401401C
:102CE0001404014062F30F2262F31F4200B5130087
:102CF00096469446103928BFA0E80C50FAD85FEAEF
:102D0000417C28BF0CC048BF40F8042BC90728BF2E
:102D100020F8022B48BF00F8012B00BD80B500F061
:102D2000AFF802000023DB431068984204D0110082
:102D30000220ABBE002010605068984204D0111DE4
:102D40000220ABBE0020506001BD000010B40FE0B7
:102D500001680918001D50F8042BD40744BFA9F1DD
:102D60000104A21851F8044B42F8044B1B1FF9D17F
:102D700050F8043B002BEBD110BC7047C0B20328C5
:102D80000ED2C0B2074AC9B222F81010C0B2054A2A
:102D900032F810200A235A43C0B2024B23F8102005
:102DA000704700004C0C002010B5084979441C31D4
:102DB000074C7C441A34A14206D0081D0A685118F9
:102DC00088470146A142F8D110BD00BF2C00000089
:102DD0004C0000000BE050F8041BCB0744BFA9F1E6
:102DE00001035918002341F8043B121FFAD150F88F
:102DF000042B002AEFD17047DDFFFFFF5C080000C5
:102E0000440400200000000045FFFFFF44000000D4
:102E10005C010000000400200000000000F0A4F8A5
:102E2000002801D0FFF7C0FF0020FFF7E5FA00F00F
:102E30002EF8000080B5FFF771FF024A110018203C
:102E4000ABBEFBE72600020001488047014800476F
:102E50003D1B0008592E0008C046C046C046C0466B
:102E6000FFF7DCFF07463846FFF7E4FFFBE700000B
:102E70000100000000000000010000000000000050
:102E8000004870472C0400200022FFF72FBF80B5B8
:102E9000FFF7E8BF00000000FFF7FEBFFFF7FEBF2F
:102EA000FFF7FEBFFFF7FEBFFFF7FEBFFFF7FEBF56
:102EB000FFF7FEBFFFF7FEBFFFF787BBFFF7FEBFC1
:102EC000FFF7FEBFFFF7FEBFFFF7FEBFFFF7FEBF36
:102ED000FFF7FEBFFFF7FEBFFFF7FEBFFFF7FEBF26
:102EE000FFF7FEBFFFF7FEBFFFF7FEBFFFF7FEBF16
:102EF000FFF7FEBFFFF7FEBFFFF7FEBFFFF7FEBF06
:102F0000FFF7FEBFFFF7FEBFFFF7FEBFFFF7FEBFF5
:102F1000FFF7FEBFFFF7FEBFFFF748B9FFF7FEBFA1
:102F2000FFF7FEBFFFF7FEBFFFF7FEBFFFF7A4BB33
:102F3000FFF7FEBFFFF7FEBFFFF7FEBFFFF7FEBFC5
:102F4000FFF7FEBFFFF7FEBFFFF7FEBFFFF7FEBFB5
:102F5000FFF7FEBFFDF785BBFFF7FEBFFFF7FEBF24
:102F6000FFF7FEBFFFF7FEBF0120704700080140DA
:102F7000000C014000100140001001400000000062
:102F80000102030401020304060708090038014096
:102F90000044004000480040FFFFFFFFFFFFFFFF2D
:102FA000D40B00200204060800366E010501010062
:0400000508002E4978
:00000001FF
