:020000040800F2
:10000000F0060020952D00089D2D00089F2D00086A
:1000100000000000000000000000000000000000E0
:10002000000000000000000000000000A12D0008FA
:100030000000000000000000A32D0008A52D00080E
:10004000A72D0008A72D0008A72D0008A72D000840
:10005000A72D0008A72D0008A72D0008A72D000830
:10006000A72D0008A72D0008A72D0008A72D000820
:10007000A72D0008A72D0008A72D0008A72D000810
:10008000A5090008A72D0008A72D0008A72D000826
:10009000A72D0008A72D0008A72D0008A72D0008F0
:1000A000A72D0008A72D0008A72D0008A72D0008E0
:1000B000F3010008A72D0008A72D0008A72D0008B0
:1000C00000F002F800F046F80CA030C808382418F8
:1000D0002D18A246671EAB4654465D46AC4201D180
:1000E00000F038F87E460F3E0FCCB646012633426C
:1000F00000D0FB1AA246AB4633431847D432000067
:10010000F4320000103A02D378C878C1FAD8520706
:1001100001D330C830C101D504680C6070470000BD
:100120000023002400250026103A01D378C1FBD813
:10013000520700D330C100D50B60704710B5642959
:1001400002D102F061FF10BD002010BD1FB51FBD20
:1001500010B510BD03F00BF91146FFF7F7FF00F0E3
:1001600025F803F023F903B4FFF7F2FF03BC03F013
:1001700027F9000070B505460C46164602E00FCC84
:100180000FC5103E102EFAD2082E02D303CC03C5A1
:10019000083E042E07D301CC01C5361F03E02178A9
:1001A0002970641C6D1C761EF9D270BDA0B00020B1
:1001B0001A49086000F04CF819A000F0A7F800F008
:1001C000F3F81CA000F0A2F812E01448006801281F
:1001D0000ED10EA800F089FB0020104908603822DB
:1001E00012A96846FFF7C6FF0EA80FC800F0C1FAB3
:1001F000EBE710B51449154802F09CFD00280BD020
:10020000124802F07BFCC4B2204600F071F8312C99
:1002100002D101200149086010BD0000000000204B
:100220000A55534152543220496E697420646F6EEE
:1002300065210A00466C61736820496E6920646F0D
:100240006E65212000000000050105000038014016
:1002500000B589B00121480401F091FC0121480456
:1002600001F0A9FC012202210920C00601F083F956
:10027000012203210920C00601F07DF90C2007901E
:10028000022108A801700121417000218170012123
:10029000C17007A90920C00601F0E4F80820079002
:1002A00007A90920C00601F0DDF8E1204002009016
:1002B000002001900290039005900C200490694664
:1002C000184802F0DDFA01221749164802F0F2FC44
:1002D0000121144802F05DFB1C21684601760021D3
:1002E00041760121817606A801F072F909B000BDBE
:1002F00010B5044621460B4802F0FCFB00BF8021EC
:10030000084802F00BFD0028F9D010BD10B50446D6
:1003100003E02078FFF7ECFF641C20780028F8D178
:1003200010BD0000004400400501050000B587B085
:100330000121084601F03FFCFF20019000216846A2
:1003400001800181418001F02CFD69460120800778
:1003500001F0FAFC2021480602F029FA0121880761
:1003600001F077FD0121480401F009FC03216846F2
:1003700001740021C1741020039003A90920C00654
:1003800001F070F80121480701F015FC24200590C8
:100390000020069005A900F07CFC0121002000F05F
:1003A00090FC07B000BD000010B500F04CFD3520FA
:1003B00001F00EF85B209449086094A0FFF7A6FFB7
:1003C00010BD10B50020944908600FE092490968FB
:1003D0008902924A881800F078FD042801D000BFF5
:1003E000FEE78D480068401C8B4908608A48006819
:1003F00085490968884203D2894800780428E5D0F5
:1004000088A0FFF783FF10BD10B5844888490860B5
:1004100012E0884801688648006800F09CFD0428C6
:1004200005D183480068001D8149086004E082A06E
:10043000FFF76CFF00BFFEE77D48006882498842F5
:10044000E7D382A0FFF762FF00F009FD10BD00B501
:1004500099B072487649086001208049087012E01E
:100460007348006800787349086008467CA10268F8
:10047000684602F07FFD6846FFF748FF6C48006859
:10048000401C6B4908606A4800686F498842E7D39E
:1004900075A0FFF73BFF19B000BDFEB506460F463D
:1004A00014465E483618F0190190354601206B4914
:1004B000087014E0042C02D1286800900EE0022C91
:1004C00002D12888009009E0012C02D12878009000
:1004D00004E069A0FFF71AFF00BFFEE72D1901989D
:1004E0008542E7D360A0FFF711FFFEBDFEB50646CB
:1004F0000F46144649483618F01901903546012038
:100500005649087014E0042C02D1286800900EE0CF
:10051000022C02D12888009009E0012C02D1287811
:10052000009004E054A0FFF7F1FE00BFFEE72D1994
:1005300001988542E7D30098FEBDFFB583B007461A
:100540000E461C4600200090344836180598301896
:10055000029035460120414908701BE0042C02D16D
:10056000286801900EE0022C02D12888019009E051
:10057000012C02D12878019004E03FA0FFF7C6FECD
:1005800000BFFEE70198C1B2009839540098401CA2
:1005900000902D1902988542E0D307B0F0BDF8B560
:1005A00006460C461D48371801202C490870022CBD
:1005B00001D13D8808E0012C01D13D7804E02EA056
:1005C000FFF7A4FE00BFFEE7A8B2F8BD10B50446D1
:1005D00021461748006800F0BEFC042804D12A48D0
:1005E0000068001D2849086010BD10B504460B487E
:1005F0002549086003E02078FFF7E8FF641C2078B5
:100600000028F8D110BD000018000020496E697460
:10061000204F4B2000000000080000200090000840
:100620001C0000204572617365204F4B20000000C4
:100630000C00002014000020577269746520455298
:10064000524F522000000000FFFF01087E7E5772CB
:1006500069746520454E447E7E0000001D00002028
:100660007E7E25647E7E00007E7E5265616420452C
:100670004E447E7E200000004269744E756D2065F8
:1006800072726F72210000001000002070B50446E5
:100690000E463546F9A0FFF739FEF8A0FFF736FE03
:1006A0000123042229462046FFF747FF002020713E
:1006B0002D1D042201212846FFF718FFA0602D1DE3
:1006C00001230422294620460C30FFF736FF002183
:1006D00021742D1D01230422294620461430FFF7E2
:1006E0002CFF002121762D1D042201212846FFF731
:1006F000FDFEE0612D1D022201212846FFF7F6FED6
:100700002084AD1C022201212846FFF7EFFE608401
:10071000AD1C042201212846FFF7E8FE60622D1D72
:10072000042201212846FFF7E1FEA0622D1D0222CE
:1007300001212846FFF7DAFEA085AD1C0222012127
:100740002846FFF7D3FEE085AD1C0123042229468D
:1007500020463C30FFF7F1FE0021402001552D1DC1
:10076000042201212846FFF7C1FE60642D1D2846A2
:1007700070BD0FB400B599B0C1A0FFF7C7FDC4A00C
:10078000FFF7C4FD1AA8FFF7C1FDC5A0FFF7BEFD26
:10079000C7A168461C9A02F0EDFB6846FFF7B6FD5C
:1007A000C4A0FFF7B3FD1DA8FFF7B0FDC6A0FFF77B
:1007B000ADFD1FA8FFF7AAFDC6A0FFF7A7FD1AA869
:1007C000BBA1C269684602F0D5FB6846FFF79EFDF3
:1007D000C5A0FFF79BFD1AA8028CB5A1684602F0E0
:1007E000C9FB6846FFF792FDC3A0FFF78FFD1AA86B
:1007F000428CAFA1684602F0BDFB6846FFF786FD5C
:10080000C1A0FFF783FD1AA8A9A1426A684602F0B9
:10081000B1FB6846FFF77AFDC0A0FFF777FD1AA885
:10082000A3A1826A684602F0A5FB6846FFF76EFD49
:10083000C0A0FFF76BFD1AA8828D9DA1684602F04B
:1008400099FB6846FFF762FDA2A0FFF75FFD1AA8BB
:10085000C28D97A1684602F08DFB6846FFF756FDF2
:10086000B8A0FFF753FD29A8FFF750FDB9A0FFF787
:100870004DFD1AA88EA1426C684602F07BFB6846CB
:10088000FFF744FD19B008BC04B018470FB41FB5FA
:100890000F9C0121022001F08EF9684601F081FAD7
:1008A0002146B04802F02AFC0190072168460180E9
:1008B0000021018141806946AB4801F045FA0122DF
:1008C0001146A94801F0B8FE0121A74801F0C1FA7C
:1008D00010216846017301214173817303A800F060
:1008E00077FE1FBC08BC04B01847F0B5A9B0044699
:1008F0009EA6A0A7A1A00F90A2A00E900021204626
:10090000FFF7C4FE05463146204602F0B3FB00283F
:1009100004D09EA0FFF7FAFC00BFFEE73946204650
:100920000C3002F0A7FB002804D09BA0FFF7EEFCE0
:1009300000BFFEE7204614300F9902F09BFB002811
:1009400004D098A0FFF7E2FC00BFFEE720463C3051
:100950000E9902F08FFB002804D095A0FFF7D6FC7B
:1009600000BFFEE72A4695A110A802F003FB43A0B2
:10097000FFF7CCFC10A8FFF7C9FC4822214690489D
:10098000FFF7F8FBFFF7D2FC38222146103168460A
:10099000FFF7F0FB20460FC8FFF778FF8948056096
:1009A00029B0F0BD70B545E101216F4801F05DFE51
:1009B0000128F8D101216C4801F06AFE8048408C82
:1009C000012838D17E48C08D082813D101217D48E7
:1009D0000068FFF7E4FD04462646E017400F801943
:1009E000C110082000F094F976480068401C754951
:1009F00008601FE17248C08D102817D1022171488C
:100A00000068FFF7CCFD04460120C003201885B222
:100A10002E46E817400F8019C110042000F078F925
:100A200068480068801C6749086003E166A0FFF71A
:100A30006DFC00BFFEE76248408C02281CD1604874
:100A4000C08D082819D101215E480068FFF7A7FD75
:100A500004465C480068401C5A4908602646E01776
:100A6000400F8019C110002000F052F9554800686D
:100A7000401C54490860DDE0D7E0B1E00A00000006
:100A80007E7E526561642053746172747E7E2000A4
:100A90000A20737A5269666649443A2000000000D1
:100AA0000A2064775269666653697A653A200000C5
:100AB000256400000A20737A52696666466F726D7B
:100AC00061743A20000000000A20737A466D744970
:100AD000443A20000A20774269747350657253616A
:100AE0006D706C653A2000000A2077466F726D6168
:100AF0007461673A200000000A20774368616E6ED7
:100B00006C733A20000000000A206E53616D706C17
:100B100065735065725365633A2000000A2064775C
:100B200041766742797465737065725365633A20E4
:100B3000000000000A2077426C6F636B416C6967AC
:100B40006E3A20000A20737A4461746149443A2065
:100B5000000000000A2064774461746153697A657B
:100B60003A20000040420F0000040040524946462F
:100B7000000000005741564500000000666D7420DB
:100B800000000000646174610000000052494646A4
:100B9000206572726F72210057415645206572724E
:100BA0006F722100666D74206572726F7221000091
:100BB00064617461206572726F7221002564200087
:100BC000480000202000002077426974735065724D
:100BD00053616D706C65206572726F722100000048
:100BE0001E48C08D10281BD102211D480068FFF748
:100BF000D6FC04460120C003201885B22E46E81713
:100C0000400F8019C110002000F082F814480068DD
:100C1000801C1349086008460068801C086009E0D1
:100C20001048FFF773FB00BFFEE70FA0FFF76EFB56
:100C300000BFFEE70948406C09490968884200D9AD
:100C4000B2E60648406C06490968884204D1002291
:100C50000121094801F0F0FC70BD000048000020AF
:100C600020000020C80B0008774368616E6E6C732B
:100C7000206572726F7221000004004010B50121DE
:100C8000480700F0C2FF00210120400700F0BDFF2F
:100C900010BD30B500220023564C22683E2484400B
:100CA0001546A5432A464D680C682C4323461C462E
:100CB000844022434F4C226030BD002101604160DE
:100CC0007047002907D04B4A1268012383401A431A
:100CD000484B1A6006E0474A1268012383409A4352
:100CE000444B1A60704710B5002908D0414A526839
:100CF00004090123A3401A433E4B5A6007E03D4AD2
:100D0000536804090122A24093433A4A536010BD3C
:100D100008B500220092374A009202460832009B32
:100D2000D2180092009A116008BD08B50146002053
:100D300000903048009088082C30009A801800906D
:100D40000098006880B208BD002908D0294A1268BE
:100D500001231B0383401A43264B1A6007E0254AF0
:100D6000126801231B0383409A43224B1A60704789
:100D700010B5002A07D01F4B1B680C468440234344
:100D80001C4C236006E01B4B1B680C468440A343AD
:100D9000184C236010BD10B502460020154B5B6B4C
:100DA0000C4694402340002B01D0012000E000209D
:100DB00010BD0A4682400F4B5A63704730B5024659
:100DC000002000230B4C24680D4695402C40234600
:100DD000084C646B0D4695402C40002C03D0002B32
:100DE00001D0012000E0002030BD0A468240014BC6
:100DF0005A6370470074004001460020FE4A1068A4
:100E00004008400002460A431046FB4A1060704703
:100E1000002806D0F849096810221143F64A1160EB
:100E200005E0F549096810229143F34A11607047C3
:100E30000020F149096820221140002901D0012039
:100E400000E000207047EC4800698021084000283D
:100E500004D0EA48E8494860E94848607047E648F5
:100E6000006980210843E449086170470420E24991
:100E7000C968C907C90F002901D0012010E0DE4967
:100E8000C96810221140002901D0022008E0DA4987
:100E9000C96804221140002901D0032000E0042089
:100EA000704710B503460424FFF7E0FF044603E053
:100EB000FFF7DCFF04465B1E012C01D1002BF7D1AC
:100EC000002B00D10524204610BD30B50446042572
:100ED0000B200004FFF7E5FF0546042D17D1C64897
:100EE000006902210843C449086108464461006959
:100EF00040210843C04908610B200004FFF7D1FFDF
:100F00000546BD48006902218843BB49086128465F
:100F100030BD10B504240B200004FFF7C2FF0446C7
:100F2000042C16D1B448006904210843B249086171
:100F30000846006940210843AF4908610B200004BE
:100F4000FFF7AFFF0446AC48006904218843AA4973
:100F50000861204610BD78B506460C4604250020E1
:100F600000900B200004FFF79CFF0546042D24D1C0
:100F7000A1480069012108439F49086134800B2082
:100F80000004FFF78EFF0546042D10D1B01C009021
:100F9000200C009908800B200004FFF782FF054613
:100FA00095480069400840009349086105E092486F
:100FB00000694008400090490861284678BD70B536
:100FC00004460D4604260B200004FFF76AFF064680
:100FD000042E11D18848006901210843864908611F
:100FE00025800B200004FFF75CFF0646824800695D
:100FF0004008400080490861304670BD7E48006965
:10100000012149020840002804D17C487A498860BF
:101010007B4888607047784800690121490288430D
:101020007549086170477448006901214903084304
:1010300071490861704700206F49C9690622114053
:10104000002901D0012000E00020704730B5AA251A
:101050000424FFF7F0FF002800D000250B20000437
:10106000FFF71FFF0446042C36D163480069202196
:1010700008436149086108460069402108435E4908
:1010800008610B200004FFF70CFF0446042C1BD161
:10109000594800692021884357490861084600697A
:1010A0001021084354490861564805800B2000046C
:1010B000FFF7F7FE0446052C0ED04F4800691021BB
:1010C00088434D49086107E0052C05D04A4800696E
:1010D0001021884348490861204630BDF0B50446D8
:1010E000494E37460425E443E6B2FF200002204083
:1010F000070A0B200004FFF7D4FE0546042D21D17A
:101100003D480069102108433B490861FF2E06D085
:101110003C4806810B200004FFF7C3FE0546042D62
:1011200008D1FF2F06D0374847810B200004FFF776
:10113000B8FE0546052D05D02F48006910218843CB
:101140002D4908612846F0BD30B5054604240B2022
:101150000004FFF7A6FE0446042C36D12648006999
:1011600020210843244908610846006940210843BA
:10117000214908610B200004FFF793FE0446042C6C
:101180001BD11D480069202188431B49086108467E
:10119000006910210843184908611A4805800B208E
:1011A0000004FFF77EFE0446052C0ED012480069AD
:1011B000102188431049086107E0052C05D00E482E
:1011C0000069202188430C490861204630BDF0B5F4
:1011D00005460E46174604240B200004FFF761FE67
:1011E0000446042C24D10448006910210843024914
:1011F00008612846304309E000200240230167458A
:10120000AB89EFCD00F8FF1FFFFF0000F821394345
:101210000843714948800B200004FFF742FE044652
:10122000052C05D06D480069102188436B49086181
:101230002046F0BD30B5054604240B200004FFF71E
:1012400030FE0446042C16D164480069102108437E
:1012500062490861EF2028435F4948800B20000461
:10126000FFF71FFE0446052C05D05C4800691021DD
:1012700088435A490861204630BD30B505460424EC
:101280000B200004FFF70DFE0446042C16D1534832
:1012900000691021084351490861DF2028434E4965
:1012A00048800B200004FFF7FCFD0446052C05D008
:1012B0004A4800691021884348490861204630BDEA
:1012C00030B5054604240B200004FFF7EAFD044670
:1012D000042C16D141480069102108433F49086198
:1012E000BF2028433C4948800B200004FFF7D9FD6C
:1012F0000446052C05D03948006910218843374938
:101300000861204630BD30B5054604240B2000049A
:10131000FFF7C7FD0446042C16D1304800691021A0
:1013200008432E490861882028432B4948800B2018
:101330000004FFF7B6FD0446052C05D027480069D8
:101340001021884325490861204630BD70B5054607
:101350000E4604240B200004FFF7A3FD0446042CD2
:1013600013D11E480069102108431C4908612E80D2
:101370000B200004FFF795FD0446052C05D0174807
:1013800000691021884315490861204670BD134843
:10139000C0690004000E70471048006A70470029B9
:1013A00005D00E4A126902430C4B1A6104E00B4A45
:1013B00012698243094B1A61704701460020074AAF
:1013C000D2680A40002A01D0012000E000207047C6
:1013D0000249C8607047000000F8FF1F002002406B
:1013E00010B504460920C006844209D101214804F1
:1013F00000F0EFFB00210120400400F0EAFB30E0A8
:101400006E48844208D10121000200F0E2FB002175
:10141000200200F0DEFB24E06948844208D101216B
:10142000000200F0D6FB0021200200F0D2FB18E001
:101430006448844209D10121080500F0CAFB00215B
:101440000120000500F0C5FB0BE05F48844208D195
:101450000121880500F0BDFB00210120800500F07E
:10146000B8FB10BDF0B50A4600210023002400BFE0
:101470003DE001258D402B4615681D402C469C42C1
:1014800034D11579012D02D01579022D16D1856838
:101490004F000326BE40B543856055794E00B540E8
:1014A000866835438560858801268E40B5438580F2
:1014B000858896798E40B6B23543858005684F00A1
:1014C0000326BE40B543056015794E00B540066859
:1014D00035430560C5684F000326BE40B543C5606F
:1014E000D5794E00B540C6683543C560491C102902
:1014F000BFD3F0BD35490160002101710221417166
:1015000000218171C171704708B501221204009257
:10151000009A0A430092009AC261C161009AC261B6
:10152000C2690092C269009208BD02460020138A77
:101530000B40002B01D0012000E000207047014645
:10154000088A704702460020938A0B40002B01D086
:10155000012000E0002070470146888A70478161C1
:10156000704701857047002A01D0816100E0018544
:10157000704781827047F0B5002300244D07EE0EBE
:101580001546B5402B46CD10AE0005462035AD5969
:101590004E07F70E0F26BE40B543CE10B6000746E5
:1015A0002037BD51CD10AE003D46AD591D432C46F0
:1015B000CD10AD003E467451F0BD0000000400485F
:1015C00000080048000C004800140048FFFF00001D
:1015D00000218278002A27D0274A03231B02D21831
:1015E00003789B109B00D15802789207D30EFF22FC
:1015F0009A400B469343194642789207120E03789D
:101600009B07DB0E9A4011431B4A03231B02D2188F
:1016100003789B109B00D1500278D306DB0E012289
:101620009A40154B1A6007E00278D306DB0E0122C0
:101630009A40114B80331A607047002905D00F4A39
:10164000126902430D4B1A6104E00C4A126982438D
:101650000A4B1A617047042806D109490969042216
:101660001143074A116105E00549096904229143C4
:10167000034A11617047000000E100E000ED00E066
:1016800000E000E0FD48006801210843FB490860D4
:1016900008464068FA490840F8494860084600682A
:1016A000F8490840F54908600846006801218904A6
:1016B0008843F2490860084640683F21090488438E
:1016C000EE4948600846C06A00090001C862084641
:1016D000006BFF2154318843E84908630846406B9A
:1016E0004008400048630020886070470021E34ABA
:1016F000917011468870704710B502460021002392
:1017000000205111002902D1DC4C23680BE0012993
:1017100002D1DA4C236A06E0022902D1D74C636A6F
:1017200001E0D64C636BD106C90E01248C401C40ED
:10173000002C01D0012000E0002010BD38B50020B1
:1017400000900024002500BF1120FFF7D5FF0546BB
:101750000098401C0090052109020098884201D0A1
:10176000002DF1D01120FFF7C7FF002801D0012480
:1017700000E00024204638BD01460020BF4A106822
:10178000F82302469A431046CA001043BB4A106031
:101790007047002806D0B949096801221143B74AA9
:1017A000116005E0B549096849084900B34A11606C
:1017B000704701460020B14A506BF82302469A4315
:1017C0001046CA001043AD4A50637047002806D047
:1017D000AA49496B01221143A84A516305E0A74970
:1017E000496B49084900A54A51637047002806D053
:1017F000A249496B04229143A04A516305E09F49E5
:10180000496B042211439D4A516370479B49096A01
:1018100049084900994A11621146096A0422914314
:10182000964A11621146096A014311627047934951
:10183000096A18229143914A11621146096A0143CB
:1018400011627047002806D08C49496A0122114371
:101850008A4A516205E08949496A49084900874A2C
:1018600051627047854A52683D231B049A43834B5B
:101870005A601A46526803460B431A437F4B5A601C
:101880007047002807D07D490968012212061143DC
:101890007A4A116006E079490968012212069143EB
:1018A000764A1160704701460020744AD06A0009E8
:1018B000000102460A431046704AD0627047002871
:1018C00007D06E4909680122D20411436B4A1160A6
:1018D00006E06A4909680122D2049143674A11600F
:1018E00070476649C871704701460020634A5068D6
:1018F0008008800002460A431046604A50607047E4
:101900005E4840680C2108407047014600205B4A51
:101910005068F02302469A43104602460A43104696
:10192000564A5060704701460020544A50680723C9
:101930001B0202469A43104602460A4310464F4A8B
:10194000506070474D4949680122920391434B4AC8
:1019500051601146496882B21143484A51601146AC
:10196000096B92159143454A11631146096B020CAC
:101970001143424A116370474049096B4022914329
:101980003E4A11631146096B0143116370473B499D
:10199000096B10229143394A11631146096B0143C7
:1019A000116370473549096B89088900334A11630F
:1019B0001146096B014311637047FEB504460025CB
:1019C000002600200190009000272C4840680C2140
:1019D00008400546002D04D0042D05D0082D28D13F
:1019E00005E02948206027E02748206024E02348BC
:1019F00040680F21890408400646204840680121BC
:101A0000090408400190B00C861C0198002803D1FD
:101A10001E48704320600BE01848C06A0007000FA2
:101A2000401C00901848009901F068FB704320604A
:101A300002E01548206000BF00BF10484068F02158
:101A4000084005462D091248475D2068F84060604F
:101A50000A48406807210902084005462D0A0C483B
:101A6000475D6068F840A0600448006BFF210131C9
:101A70000840884210D00748E0601BE00010024098
:101A80000CB8FFF8FFFFF6FE00127A0000093D00D7
:101A900024000020809FD5007548406801218903FB
:101AA0000840884203D0A0684008E06002E0A068D7
:101AB0008008E0606E48006B40210840402802D05A
:101AC0006C48206102E00120C00320616848006B7F
:101AD00010210840102802D06748606101E02068AA
:101AE00060616348006B8007800F002802D1A06806
:101AF000A06119E05E48006B8007800F012802D1C9
:101B00002068A06110E05A48006B8007800F02280F
:101B100002D18003A06107E05548006B8007800F69
:101B2000032801D15448A061FEBD5149096A01430F
:101B30004F4A11627047002807D04D49096A0122B7
:101B4000D20311434A4A116206E04949096A012257
:101B5000D2039143464A11627047002807D0444996
:101B6000096A012212041143414A116206E0404908
:101B7000096A0122120491433D4A1162704700290B
:101B800005D03B4A52690243394B5A6104E0384A56
:101B900052698243364B5A617047002905D0344A56
:101BA00092690243324B9A6104E0314A926982435E
:101BB0002F4B9A617047002905D02D4AD269024304
:101BC0002B4BDA6104E02A4AD2698243284BDA615E
:101BD0007047002905D0264A926A0243244B9A6234
:101BE00004E0234A926A8243214B9A62704700299B
:101BF00005D01F4AD26802431D4BDA6004E01C4A3C
:101C0000D26882431A4BDA607047002905D0184A1F
:101C100012690243164B1A6104E0154A12698243A5
:101C2000134B1A617047002905D0114A527A0243BA
:101C30000F4B5A7204E00E4A527A82430C4B5A728E
:101C400070470B48406A0121090608430849486269
:101C5000704701460020064A92680A40002A01D0D7
:101C6000012000E0002070470149887270470000A1
:101C7000001002401280000000127A0010B50446E5
:101C8000FE48844208D10121C014FFF7B0FF0021B3
:101C9000E014FFF7ACFF56E001208007844208D132
:101CA00001210846FFF7B1FF00210120FFF7ADFF3A
:101CB00049E0F348844208D101210220FFF7A5FF43
:101CC00000210220FFF7A1FF3DE0EE48844208D149
:101CD00001211020FFF799FF00211020FFF795FF49
:101CE00031E0E948844208D101218015FFF78DFFDA
:101CF0000021A015FFF789FF25E0E448844209D1BF
:101D000001210804FFF773FF002101200004FFF701
:101D10006EFF18E0DE48844209D101214804FFF734
:101D200066FF002101204004FFF761FF0BE0D94866
:101D3000844208D101218804FFF759FF00210120C6
:101D40008004FFF754FF10BD00220288CB4B98425D
:101D500006D001239B07984202D0C94B984203D179
:101D6000CD4B1A404B881A43C64B984203D0CB4BFD
:101D70001A400B891A4302804B68C3620B880385A3
:101D8000BE4B984208D0C14B984205D0C04B9842F8
:101D900002D0C04B984201D18B7A03860123838203
:101DA00070470021C94341600021018001814180C9
:101DB000817270470185828270470A46002101883E
:101DC000B54B19400B4613431946018070474162D9
:101DD0007047C16270470146486A70470146088DE6
:101DE0007047002904D0028802231A43028004E0CD
:101DF0000288A94B6E331A4002807047002904D034
:101E0000028804231A43028004E00288A24B6C3348
:101E10001A4002807047002904D0028880231A43A8
:101E2000028004E002889C4B103B1A4002807047FD
:101E30000288994B68331A40028002880A43028064
:101E400070470288954B1A40028002880A4302803C
:101E50007047002904D0028801231A43028004E05D
:101E600002888D4B6F331A40028070470A884B8876
:101E70001A438B881A43CB881A430B891A434B8920
:101E80001A438B891A4344231A5270470021018058
:101E900041808180C1800181418181817047002919
:101EA00007D04422125A0123DB031A4344231A5257
:101EB00005E04422125A53045B0C4422135270472B
:101EC00070B5002400220023058C734E6F36354018
:101ED0000584028C8388048B6F4D2C40B51E2C40EA
:101EE0000D882C43751E2A408D892A434D882A432C
:101EF000624DA84208D0654DA84205D0644DA84265
:101F000002D0644DA84212D1634D68352A40CD8974
:101F10002A43614D6C352A408D882A435E4D903DA1
:101F20002B405F4D2B400D8A2B434D8A2B438380E2
:101F300004838D684563028470BD70B5002400225F
:101F40000023058C544E603635400584028C83880E
:101F5000048B544D2C40514D2C400D782D062D0CEA
:101F60002C434D4D50352A408D892D052D0C2A438B
:101F70004D882D052D0C2A43404DA84219D1464DC0
:101F8000103D2A40CD892D052D0C2A43424D303578
:101F90002A408D882D052D0C2A43434D2B40434D5F
:101FA0002B400D8AAD042D0C2B434D8AAD042D0C16
:101FB0002B43838004838D688563028470BD70B574
:101FC000002400220023058C334E903E35400584CA
:101FD000028C8388848B304D2C402F4D6D352C40E6
:101FE0000D882C432E4D2A400D7B2D062D0C2A43A7
:101FF0008D782D062D0C2A43204DA84217D12B4D4C
:102000002A408D7B2D062D0C2A43274D2A400D7921
:102010002D062D0C2A43264D2B40264D2B400D8A94
:102020002D052D0C2B434D8A2D052D0C2B43838024
:1020300084838D68C563028470BD70B5002200235F
:102040000024058C1A4E35400584038C8488828BCD
:10205000144D2A40114D2A400D782D062D0C2A438F
:10206000144D2B400D7B2D072D0C2B438D782D0708
:102070002D0C2B43014DA84224D11DE0002C014022
:1020800000040040001000400020004000400140DB
:1020900000440140004801408FFF0000FFFC0000A9
:1020A000FFFD0000FF8F0000FFFB0000FFF70000B6
:1020B000FFEF0000FFDF0000FC4D2C400D8AAD0556
:1020C0002D0C2C43848082838D680564038470BD4D
:1020D000002101804180818081608181C1810182F4
:1020E0004182704770B5034600200024184618301E
:1020F00001258D40ACB21D8CA5431D84002901D063
:10210000082909D14D10281805687026B5430560C7
:102110000568154305600DE00D1F2D046D0C281892
:10212000056807263603B543056005681606360CB4
:102130003543056070BD4163704781637047C1637B
:102140007047016470470A460021018BD84B194043
:102150000B4613431946018370470A460021018B41
:10216000D44B194013061B0C1943018370470A46D0
:102170000021818BCE4B19400B46134319468183B6
:1021800070470A460021818BCA4B194013061B0C6D
:10219000194381837047002904D0828801231A43A0
:1021A000828004E08288C24B6F331A40828070477D
:1021B0000A460021018BBE4B683319400B4613437E
:1021C0001946018370470A460021018BBA4B19401A
:1021D00013061B0C1943018370470A460021818BAB
:1021E000B34B683319400B4613431946818370473C
:1021F0000A460021818BB04B194013061B0C194372
:10220000818370470A460021018BA94B6C3319402A
:102210000B4613431946018370470A460021018B80
:10222000A64B194013061B0C1943018370470A463D
:102230000021818B9E4B6C3319400B46134319468A
:10224000818370470A460021818B9C4B19401306FD
:102250001B0C1943818370470A460021018B944B64
:10226000103B19400B4613431946018370470A4639
:102270000021018B4904490C13061B0C19430183EF
:1022800070470A460021818B894B103B19400B4651
:1022900013431946818370470A460021818B490404
:1022A000490C13061B0C1943818370470A46002111
:1022B000018C7F4B6E3319400B4613431946018442
:1022C00070470A460021018C794B683319400B4650
:1022D00013431946018470470A460021018C744B50
:1022E0005033194013051B0C1943018470470A46EB
:1022F0000021018C6E4B103B194013051B0C194338
:10230000018470470A460021018C6D4B1940130669
:102310001B0C1943018470470A460021018C664B4F
:10232000194013061B0C1943018470470A4600210B
:10233000018C644B194013071B0C1943018470472F
:1023400002895B4B68331A40028102890A43028189
:10235000704730B5002301248C40A3B2048C9C4309
:102360000484048C15468D40ADB22C43048430BDEA
:1023700030B5002304248C40A3B2048C9C43048415
:10238000048C15468D40ADB22C43048430BD002929
:1023900004D0828804231A43828004E08288444B5C
:1023A0006C331A4082807047828B474B1A4082837D
:1023B000828B0B061B0C1A4382837047F8B50C46C0
:1023C0000021002500260096068C404F3E400684E2
:1023D000818B058C2607360C00963D4E3140160643
:1023E000360C31431E07360C31433A4E3540012737
:1023F0003F03009E3E43354381830584F8BD828BB5
:102400002B4B64331A408283828B0A43828370474A
:10241000F8B50C460021002500260096068C244FB6
:10242000903F3E400684818B058C2606360C009634
:102430001F4E833E31401E05360C16433143264E57
:102440003540FF270137009E3E4335438183058495
:10245000F8BD028B1C4B1A400283028B0B061B0C2F
:102460001A4302837047F8B50C4600210025002668
:102470000096068C0E4F60373E400684018B058C1B
:102480002605360C0096124E31401E07360C31439D
:102490001606360C3143064E303E35401027009E5E
:1024A0003E43354301830584F8BD0000FFBF0000B3
:1024B0008FFF0000FF8F0000FFF70000FFFB000010
:1024C000FFFD0000FFDF0000FFF30000FFEF000052
:1024D000FF0C0000FF5F0000FFF50000028BD84BEF
:1024E0001A400283028B0A4302837047F0B50C4600
:1024F00000210025068CD24F0B373E400684018B0D
:10250000058CCF4EE73E31401E05360C1643314355
:10251000CB4EB61C35400126264335430183058446
:10252000F0BD70B505460C46208800280AD12389E5
:10253000A28861882846FFF7D9FFE1882846FFF77F
:10254000CDFF25E0208804280AD12389A28861884C
:102550002846FFF788FFE1882846FFF77AFF17E053
:10256000208808280AD12389A28861882846FFF795
:102570004FFFE1882846FFF742FF09E02389A28840
:1025800061882846FFF71AFFE1882846FFF70CFF0D
:1025900070BD002101804180012181800021C18026
:1025A00001817047F8B505460C4600260127608872
:1025B000002801D1022600E00026A088012801D1D0
:1025C000022700E001272088002814D12389A2884F
:1025D00061882846FFF78AFFE1882846FFF77EFFDB
:1025E00023893A4631462846FFF73DFFE1882846D1
:1025F000FFF72FFF13E02389A28861882846FFF7A1
:1026000032FFE1882846FFF724FF23893A46314606
:102610002846FFF76BFFE1882846FFF75FFFF8BD0C
:102620000146486B70470146886B70470146C86B8E
:1026300070470146086C7047002A03D083890B431A
:10264000838102E083898B43838170478182704755
:1026500002460020138A0B40002B01D0012000E02D
:1026600000207047CA430282704730B502460020FE
:1026700000230024158A0D402B4695890D402C46D9
:10268000002B03D0002C01D0012000E0002030BD41
:10269000CA430282704710B50B46134348242352A5
:1026A00010BD002A03D083890B43838102E0838914
:1026B0008B4383817047002904D0828808231A4302
:1026C000828004E082885E4B1B1D1A408280704726
:1026D00001895B4A521D1140018170470A46002161
:1026E0000189574B643B19400B461343194601813E
:1026F000704730B504460D4629462046FFF7EEFFE9
:10270000208907210843208130BDF8B504460D46D5
:1027100016461F46602D06D13B4601223146204613
:10272000FFF7A1FE05E03B46012231462046FFF7B8
:10273000DDFE29462046FFF7D1FF20890721084307
:102740002081F8BD30B50C4600210189C9B21D06B3
:102750002D0C154325432943018130BDFFB50546A6
:102760000E46174600243A4631462846039BFFF79B
:10277000E9FF2C893248401D0440072004433048BB
:1027800064380440702004432C81FFBDF0B504463A
:102790000D4616461F463B46324629462046FFF761
:1027A000D1FF20890121890308432081F0BD82885F
:1027B000234B643B1A40828082880A4382807047A0
:1027C00002891F4B5B1D1A40028102890A43028164
:1027D000704702891A4B743B1A40028102890A43EE
:1027E00002817047F0B50C460021002500260189C2
:1027F000058B068C124F7F1D39400F462743394603
:10280000104F3D40FF2702373D430D4F9E3F3E4056
:102810001F053F0C17433E43018105830684F0BD2D
:10282000002904D0828880231A43828004E08288B1
:10283000034B743B1A4082807047502211527047FC
:10284000F3FF0000FCFC000010B50446F64884428B
:1028500009D101218803FFF7CAF900210120800373
:10286000FFF7C5F90BE0F148844208D10121480483
:10287000FFF7CBF9002101204004FFF7C6F910BD96
:10288000F0B589B004460D460027002008900026C8
:102890002068400840002060666803210903304634
:1028A00088430646A868064366602668E0480640F6
:1028B000E968686808432969084306432660A668F2
:1028C0000321090230468843064668690643A6602C
:1028D00001A8FFF772F8D448844202D10798089003
:1028E00001E00398089020680121C90308400028EE
:1028F0000CD02968089A500000F000FC07462968AF
:10290000089A500000F0FAFB0E4609E02968089882
:1029100000F0F4FB07462968089800F0EFFB0E462C
:1029200028684008B04200D87F1C20680121C903F4
:102930000840002806D03807460F3846BD490840F1
:1029400030430746A78109B0F0BD4B21C9010160A2
:10295000002141608160C1600C2101610021416161
:10296000704710B5002242680F2424021346A34387
:102970001A464C680B6823438C682343CC68234376
:102980001A43426010BD0021016041608160C16056
:102990007047002904D0026801231A43026003E053
:1029A00002685208520002607047002A03D0036890
:1029B0000B43036002E003688B4303607047002908
:1029C00005D002680123DB031A43026004E00268B9
:1029D0000123DB039A4302607047002905D0826817
:1029E0000123DB021A43826004E082680123DB02D8
:1029F0009A4382607047002905D042680123DB04B6
:102A00001A43426004E042680123DB049A434260B7
:102A10007047002905D0426801239B041A43426095
:102A200004E0426801239B049A4342607047002AF5
:102A300003D043680B43436002E043688B43436029
:102A40007047002905D042680123DB031A43426026
:102A500004E042680123DB039A4342607047002987
:102A600005D042680123DB051A43426004E0426856
:102A70000123DB059A43426070474269120E120639
:102A8000426142690A4342617047028AFF231B0286
:102A90001A400282028A0A4302827047002904D047
:102AA000026802231A43026003E0026802239A4389
:102AB00002607047826803231B059A438260826824
:102AC0000A4382607047002905D0426801231B0534
:102AD0001A43426004E0426801231B059A434260A6
:102AE0007047426803235B059A43426042680A4389
:102AF00042607047CA05D20D028570470146888C36
:102B0000C005C00D704742681202120A4260426856
:102B10000B061A4342607047002905D00268012362
:102B20005B031A43026004E0026801235B039A43DB
:102B30000260704702680123DB029A430260026868
:102B40000A4302607047426810239A434260426819
:102B50000A4342607047426820239A4342604268B9
:102B60000A4342607047002905D0426801239B0355
:102B70001A43426004E0426801239B039A43426087
:102B80007047002904D0826808231A43826003E05A
:102B9000826808239A4382607047028AD2B2028216
:102BA000028A0B021A4302827047002904D082680D
:102BB00020231A43826003E0826820239A438260C4
:102BC0007047002904D0826810231A43826003E012
:102BD000826810239A4382607047826807235B04EF
:102BE0009A43826082684B041A438260704742694C
:102BF0001202120A426142690B061A43426170478F
:102C0000826804239A43826082680A438260704724
:102C1000002904D0826802231A43826003E082689C
:102C200002239A438260704700380140004400400C
:102C3000F3E9FFFFF0FF0000002905D082680123BF
:102C40009B031A43826004E0826801239B039A433A
:102C50008260704782680123DB039A438260826846
:102C60000A438260704702681F235B059A43026033
:102C700002684B051A430260704702681F231B0459
:102C80009A43026002680B041A4302607047002AEC
:102C900003D083680B43836002E083688B438360C7
:102CA0007047826801235B039A43826082680A430B
:102CB00082607047F8B50346002400260096002580
:102CC000002018460E04340ECEB200960127009E56
:102CD000B7403D46022C01D1001D02E0032C00D17B
:102CE0000830002A03D006682E43066002E006681A
:102CF000AE430660F8BD002A03D0038B0B43038369
:102D000002E0038B8B4303837047826801231B031C
:102D10009A43826082680A438260704702460020BC
:102D2000D3690B40002B01D0012000E00020704748
:102D30000162704770B502460B4600240021002551
:102D400000201E04350ED9B201268E403146012DD9
:102D500002D11668314006E0022D02D1566831409A
:102D600001E0966831401C0C0126A6403446D66925
:102D70003440002903D0002C01D0012000E00020C5
:102D800070BD10B5002300220B0C01249C4022468C
:102D9000026210BD0748804707480047FEE7FEE78C
:102DA000FEE7FEE7FEE7FEE704480549054A064B55
:102DB000704700004B2E0008C1000008F000002002
:102DC000F0060020F0020020F00200200CB50020E8
:102DD0000190009011205F4908605F4840685E499B
:102DE0004860084640684860084640683F2109043A
:102DF000884359494860084640680521C90408438A
:102E000055494860084600680121090608435249AF
:102E1000086000BF504800680121490608400028AA
:102E2000F8D04D484068800880004B49486008460B
:102E30004068022108434849486000BF464840684E
:102E40000C2108400828F9D10CBD10B54248006893
:102E50000121084340490860084640683F4908404E
:102E60003D494860084600683D4908403A490860C5
:102E700008460068012189048843374908600846EC
:102E800040683F2109048843334948600846C06AC6
:102E900000090001C8620846006BFF2154318843D5
:102EA0002D4908630846406B4008400048630020F5
:102EB0008860FFF78BFF10BDF8B5002500240026C1
:102EC0000027254840680C2108400546002D04D005
:102ED000042D06D0082D2AD107E022482249086097
:102EE00029E020482049086025E01B4840680F2160
:102EF0008904084004461848406801210904084034
:102F00000646A00C841C002E04D1184860431649C4
:102F100008600BE01048C06A0007000F471C3946E4
:102F2000104800F0EBF860430F49086003E00D48DB
:102F30000D49086000BF00BF07484068F021084005
:102F400000090B490D5C08480068E8400649086024
:102F5000F8BD000000200240001002400CB8FFF84D
:102F6000FFFFF6FE00127A003400002000093D0049
:102F7000380000200FB41CB5074B06AA7B446946F5
:102F80000090059800F0C7F90020694600F0D6F9D6
:102F90001CBC08BC04B01847BD030000F8B50E46C1
:102FA0000446002020622046E1688847002829D096
:102FB000252802D06268A16820E0E1682046002749
:102FC000884705001ED028464138192802D8012715
:102FD000FF0220353246204627602946FDF7AEF82D
:102FE000002808D0012804D0F61DF608F60008369F
:102FF000D9E7361DD7E762682846A1689047206A5E
:10300000401CCFE7206AF8BDF7B500257529106888
:10301000009914A611D0C046C046002802DA4042EA
:1030200011A608E0009909688A0701D50FA602E0F9
:10303000490704D50EA6012501E0C046C046009F01
:103040000024243704E000F07EF930313955641C47
:103050000028F8D12B4632462146009800F0FEF8B1
:10306000FEBD0000000000002D0000002B0000004D
:1030700020000000024670B50A4392072AD11E4D77
:10308000EE0104C808C9541B9443344017D0D0B291
:10309000D9B2401A2106014310D190B299B2401A18
:1030A000210401430AD110021902000A090A401A38
:1030B0002102014302D1100E190E401A70BD9A422E
:1030C000DFD010BA19BA884201D9012070BD0020A2
:1030D000C04370BD02780B78401C491C002A09D0FF
:1030E0009A4207D102780B78401C491C002A01D073
:1030F0009A42EFD0D01A70BD0101010100220309EC
:103100008B422CD3030A8B4211D300239C464EE002
:1031100003460B433CD4002243088B4231D30309BE
:103120008B421CD3030A8B4201D394463FE0C30970
:103130008B4201D3CB01C01A524183098B4201D388
:103140008B01C01A524143098B4201D34B01C01A73
:10315000524103098B4201D30B01C01A5241C308EB
:103160008B4201D3CB00C01A524183088B4201D35A
:103170008B00C01A524143088B4201D34B00C01A46
:103180005241411A00D201465241104670475DE05B
:10319000CA0F00D04942031000D3404253400022DE
:1031A0009C4603098B422DD3030A8B4212D3FC2287
:1031B000890112BA030A8B420CD3890192118B4206
:1031C00008D3890192118B4204D389013AD092111C
:1031D00000E08909C3098B4201D3CB01C01A5241D7
:1031E00083098B4201D38B01C01A524143098B42A0
:1031F00001D34B01C01A524103098B4201D30B0189
:10320000C01A5241C3088B4201D3CB00C01A5241AD
:1032100083088B4201D38B00C01A5241D9D2430894
:103220008B4201D34B00C01A5241411A00D20146D1
:10323000634652415B10104601D34042002B00D53B
:103240004942704763465B1000D3404201B50020FD
:10325000C046C04602BD704770477047FFB5044680
:103260000D4681B0243000902168880604D51022D4
:10327000E0699143216000E00120A84201DD471B85
:1032800000E000270498A1697A191018081AA061B3
:103290002078C00602D42046C046C046002608E07A
:1032A00003986268A168805D9047206A401C761C84
:1032B000206204988642F3DB2078C0060AD52046B7
:1032C000C046C04606E06268A16830209047206A88
:1032D000401C206238467F1E0028F4DC07E000987E
:1032E0006268A168405D9047206A401C20622846C1
:1032F0006D1E0028F3DC2046C046C046207800063C
:1033000002D5022005B0F0BD0120FBE701694A1C8F
:1033100002610878704700B58FB0029100210591D5
:103320000549019379440391114604906846FFF7DB
:1033300035FE0FB000BD0000E5FFFFFF0A6810700A
:10334000521C0A60704701468008081A02091018CA
:10335000020A1018020C1018C0088200121852003D
:10336000891A01E0401C0A390A29FBD270477546C8
:1033700000F022F8AE46050069465346C008C0007A
:10338000854618B020B5FFF70FFD60BC002749083F
:10339000B6460026C0C5C0C5C0C5C0C5C0C5C0C5ED
:1033A000C0C5C0C5403D49008D4670470446C04673
:1033B000C0462046FCF7D7FE00487047900000202A
:1033C00001491820ABBEFEE726000200704700004E
:1033D000F03300080000002048000000040100084D
:1033E0003834000848000020A8060000200100082A
:1033F00000000000000000000000000000000000CD
:1034000000000000CDAB10320000000004010000FD
:103410000000000000000000010203040102030498
:1034200006070809006CDC02000000000000000034
:0834300001020304060708096C
:04000005080000C12E
:00000001FF
