:020000040800F2
:10000000001B0020E14A0008E90A0008EB0A00088A
:10001000EF0A0008F30A0008F70A000800000000D1
:10002000000000000000000000000000FB0A0008C3
:10003000FD0A000800000000DD0100087934000816
:10004000FB4A0008FB4A0008FB4A0008FB4A00087C
:10005000FB4A0008FB4A0008FB4A0008FB4A00086C
:10006000FB4A0008FF0A0008FB4A0008FB4A000898
:10007000FB4A0008FB4A0008FB4A0008FB4A00084C
:10008000FB4A0008FB4A0008FB4A0008FB4A00083C
:10009000FB4A0008FB4A0008FB4A00082D0B000839
:1000A000FB4A0008FB4A0008FB4A0008FB4A00081C
:1000B000230A0008FB4A0008FB4A0008FB4A000824
:1000C000FB4A0008FB4A0008FB4A0008FB4A0008FC
:1000D000FB4A0008FB4A0008FB4A0008FB4A0008EC
:1000E000FB4A0008FB4A0008FB4A000800F002F83F
:1000F00000F041F80AA090E8000C82448344AAF181
:100100000107DA4501D100F036F8AFF2090EBAE87E
:100110000F0013F0010F18BFFB1A43F0010318473B
:100120004878000068780000103A24BF78C878C189
:10013000FAD8520724BF30C830C144BF04680C60ED
:10014000704700000023002400250026103A28BF35
:1001500078C1FBD8520728BF30C148BF0B60704739
:10016000642906F05D81002070471FB507F0F4F8A0
:100170001FBD10B510BD06F0DEFA1146FFF7F5FF02
:1001800000F084FB06F0FCFA03B4FFF7F2FF03BCB7
:1001900006F006FB02B472B601780131017062B656
:1001A0000139080002BC704702B472B60178013907
:1001B000017062B6080002BC7047000062B670476A
:1001C00072B670471C3880F30988704702484FF0B8
:1001D000805101607047000004ED00E00B4B19688E
:1001E0000B4A126891420AD0EFF3098020E9F00F20
:1001F00008601A601068B0E8F00F80F30988054BBA
:10020000002018704EF0040E7047000044000020DB
:10021000400000201E00002010B500BF142002F096
:100220009AFE0121FC4804F09FFE142002F093FE88
:100230000121F94804F09AFEF0E770B5002404E0CB
:100240000020F64941F82400641C802CF8DB0120D2
:10025000F349087000BF052002F07DFEF1480078E8
:100260000028F8D00020EF490870002405E04FF680
:10027000FF70ED4921F81400641C402CF7DB41F2BB
:100280001801032007F046F805244BE06000E3491D
:1002900051F8200000F580408514802D00DD802578
:1002A00000BFC5F1C80081B2202007F033F804EB8D
:1002B000840040F23F12101A81B2212007F02AF880
:1002C0004FF48070D9494861222007F00DF84FF4AF
:1002D0000070D6490861032003F04BF94FF48060A9
:1002E000D24948610861032003F043F94FF480606C
:1002F000CE4948610861032003F03BF94FF4806068
:10030000CA4948610861032003F033F94FF4806063
:10031000C64948610861801008612800A5F10105FF
:10032000BFD1641C3B2CB1DB002404E00020BB499E
:1003300041F82400641C802CF8DB8022BC49BD48B5
:1003400006F0D6FEBB49B54806F036FA3F21B34861
:10035000083006F00DFD05244FE06000AF4951F86C
:10036000200000F580408514802D00DD802500BF31
:10037000C5F1C80081B2202006F0CCFF04EB840058
:1003800040F23F12101A81B2212006F0C3FF4FF451
:100390008070A6494861222006F0A6FF4FF4007045
:1003A000A24908614FF6FF7003F0E3F84FF4806054
:1003B0009E49486108614FF6FF7003F0DAF84FF488
:1003C00080609A49486108614FF6FF7003F0D1F8E8
:1003D0004FF480609549486108614FF6FF7003F063
:1003E000C8F84FF480609149486108618010086145
:1003F0002800A5F10105BBD1641C3B2CADDB01201D
:100400008749087027E72DE9F04387B004464FF489
:10041000784300933C23FA221E21282003F09BFD01
:100420004FF4784300934FF6E0731E214620226874
:1004300003F0F0FED4E901014843E168C9084843EC
:100440002169B1FBF0F53C2D0DD93C20B5FBF0F155
:1004500000FB1158B5FBF0F943464A4676A102A8C5
:1004600005F0A2FF04E02A4676A102A805F09CFF51
:100470004FF4784300934FF6E07302AA1E21B42094
:1004800003F0C8FEA06801280AD14FF47843009316
:100490004FF6E0736DA22D21322003F0BBFE0CE07D
:1004A000A068022809D14FF4784300934FF6E07317
:1004B00068A22D21322003F0ADFE68A102A8E268F7
:1004C00005F072FF4FF4784300934FF6E07302AAF1
:1004D0002D216E2003F09EFE63A102A8626805F044
:1004E00063FF4FF4784300934FF6E07302AA2D2187
:1004F000B42003F08FFE41270DE0142606E003220E
:100500003946304603F0A4FD701C86B2B6F5967FDE
:10051000F5DB781C87B2CD2FEFDB132619E047F609
:10052000EF324021304603F093FD47F6EF323F2192
:10053000304603F08DFD47F6EF32CD21304603F013
:1005400087FD47F6EF32CC21304603F081FD701C69
:1005500086B2B6F5967FE2DB41271BE047F6EF3225
:100560003946132003F074FD47F6EF323946122066
:1005700003F06EFD47F6EF3239464FF4967003F004
:1005800067FD47F6EF32394640F22B1003F060FD6D
:10059000781C87B2CD2FE1DB4FF47843009340F213
:1005A000FF7333A2DC21782003F034FE4FF478434C
:1005B00000934FF4FC6331A2CF21142003F02AFEF4
:1005C0004FF47A616068B0FBF1F842462CA102A8B2
:1005D00005F0EAFE4FF4784300934FF4FC6302AA5F
:1005E000CF21872003F016FE4FF4FA616068B0FB5C
:1005F000F1F8424622A102A805F0D6FE4FF4784356
:1006000000934FF4FC6302AACF214FF4877003F0EC
:1006100001FE07B0BDE8F083000801409408002007
:1006200002000020030000209C0A0020001001406E
:100630007871000894060020256C643A25326C64B9
:100640006D696E00256C6473656300004D6F6E6F9D
:100650000000000053746572656F0000256C642D06
:100660006269747300000000256C64487A00000021
:10067000537065637472756D0000000030000000F7
:10068000256C646B487A2000F0B587B0C82002F072
:1006900062FC00BF322002F05EFC4FF4784300930E
:1006A00040F2FF739EA2AA21282003F0B3FDA048C8
:1006B00000F097FD00B1EDE700209E49087002218F
:1006C0009D4804F053FCDAE0AFF27C019B4800F057
:1006D0004CFF00B1D8E0C3E099A19B4805F096FF1C
:1006E0000028F8D04FF4784002F053FF4FF47843DD
:1006F000009340F2FF7395A20521282003F08AFDA4
:10070000914800F0FAFD0028E5D102A800F02EFA89
:10071000B0F5807FDFD98C48029002A8FFF773FE06
:10072000039800F0AEF90020904908700221824839
:1007300004F01CFC012004F002F80598082841D1BF
:100740000498401E86B24FF40070304187B200BF5B
:10075000874A4FF40071874800F0FFFD002407E04E
:1007600004FA06F1834A505C00F097F9601C84B2E9
:10077000BC42F5DB80480078B0B100207E490870AB
:1007800000240CE004FA06F07A49085C4FF480413A
:10079000C1EBC010794941F82400601C84B2802C60
:1007A000F0DB01207649087071480088B0F5007FC1
:1007B00053D16E48007800284FD15E480078002859
:1007C000C6D04AE00598102847D1049886B24FF465
:1007D0000070304187B200BF654A4FF40071654830
:1007E00000F0BBFD00240DE004FA06F0401C614956
:1007F0000D5C15F0800F00D00025E8B200F04DF937
:10080000601C84B2BC42EFDB5B480078C8B10020BA
:100810005949087000240FE004FA06F05549095CB4
:1008200004FA06F0401C534A105C01EB00205349C7
:1008300041F82400601C84B2802CEDDB012050497B
:1008400008704B480088B0F5007F06D14748007813
:1008500018B9384800780028BED0002003F06FFF98
:1008600039490939354800F0AFFE40B936480938F2
:10087000407A20B12F48007800283FF42DAF2D4852
:10088000007800283FF420AF00BF03E708B502F06E
:10089000C3FE03F0F7FF04F007F800F0E7F84FF4A9
:1008A000784300934FF6E07328A23221282003F00A
:1008B000B1FC4FF4784300934FF6E07331A2462128
:1008C0003C2003F0A7FC4FF4784300934FF6E0730D
:1008D00032A26421282003F09DFC01F063F800207F
:1008E0002749087024490870334B48F2030200215D
:1008F000AFF26B2002F0EAF9304B48F2020200211D
:10090000AFF2C96002F0E2F92D4B48F20302002178
:10091000AFF2FB6002F0DAF901F070F800BFFEE719
:10092000696E7365727420534420636172642E0093
:10093000280F00200500002000080140580F00206B
:100940002E57415600000000750F00204D696E695A
:100950002D53544D3332205741564520417564691B
:100960006F20506C61796572000000000400002067
:1009700014000020840F00200200002094060020B4
:1009800003000020706F77657265642062792043F0
:100990006F6F436F7820436F4F530000797573205A
:1009A0002D2070726F6A65637470726F746F2E623F
:1009B0006C6F6773706F74009002002090040020C9
:1009C0009006002038B50121084604F0D7FC4FF00E
:1009D000804004F0B5FE3F4805F00FFA42F228349B
:1009E0003C48848000203B490880C8804880E0065D
:1009F00004F07AFF0121880705F01DFB1C208DF80B
:100A0000000000208DF802008DF8010001208DF813
:100A10000300684604F089F80121880705F012FAFE
:100A200038BD10B500F07CFF2B492C4A1268885C59
:100A300003F07CFE29480068401C284908600846ED
:100A40000068C0F309000860084600682449096886
:100A5000884204D100220121880705F00EFA012105
:100A6000880705F09DFC00F060FF10BD10B503F095
:100A70001DFEFFF7A7FF002018490860184908600D
:100A800010BD10B504461748B0FBF4F0114988803A
:100A90004FF0804004F028FF10BD10B5044600BFA1
:100AA0000F480068401CC0F309000C4909688842DF
:100AB000F6D009480A490968445409480068401CAE
:100AC000C0F309000649086001221146900705F0AD
:100AD000D4F910BD1C0F00201C0B00200C000020BE
:100AE0000800002000A24A04704700BFFEE700BFD4
:100AF000FEE700BFFEE700BFFEE77047704710B596
:100B000000F00EFF082004F003F960B114480078EB
:100B100040F00100124908700221124804F024FA42
:100B2000082004F006F900F000FF10BD10B500F039
:100B3000F7FE4FF4807004F0EBF868B10A480078D3
:100B400040F00100084908700221064804F00CFA40
:100B50004FF4807004F0EDF800F0E7FE10BD0000E7
:100B60000400002000080140050000202DE9F041AC
:100B700004463D4A0C213D4800F0EFFB10B1012036
:100B8000BDE8F081384800880C2804D137488068D7
:100B90003749884201D00020F2E764E0324A082158
:100BA000324800F0DAFB30480088082801D00020E5
:100BB000E6E72E48056847682E48281809D02E49D0
:100BC000401846D02D49401840D02D49401847D1F3
:100BD00040E0642F01D8102F01D20020D0E7224A34
:100BE000B9B2224800F0B9FB1F480088B84201D0D2
:100BF0000020C5E71D480078012801D00020BFE78C
:100C00001A4880781F49088008460088012805D0C6
:100C100008460088022801D00020B1E71948008862
:100C2000A0601248807B1849088008460088082880
:100C300005D008460088102801D00020A0E71248FF
:100C40000088E0600948466866600BE02761384626
:100C500096E700BF0D49C969C81900F00DFC01E015
:100C600000208DE700BF99E714000020840F0020CA
:100C7000574156459A928BDF1A2421CCE8E7DEF2E1
:100C8000FEFF10ED1000002012000020280F0020B1
:100C900030B5034601E003F8011B1400A2F1010284
:100CA000F9D130BDF0B5044625460B46002000BF03
:100CB0001600A2F1010207D015F8017B13F801CB51
:100CC000A7EB0C063000F3D0F0BD2DE9F843044645
:100CD000F948D0F80080022C03D3D8F80C00A042C9
:100CE00002D80120BDE8F88398F80000012804D05C
:100CF000022844D0032873D159E0A6B206EBD6717E
:100D0000304606EB61018EB23046F11706EBD15149
:100D10004912A6EB41218FB2F11706EBD1514E12C9
:100D2000A7F58070FF3809D0D8F810008119022388
:100D30003A46684600F09EFDB8B151E0D8F8100080
:100D40008119012340F2FF12684600F093FD00B1C3
:100D500046E0D8F810003044411C012300220DF178
:100D6000010000F087FD00B13AE0BDF8005014F03A
:100D7000010F01D02811B5E7C5F30B00B2E71FFA48
:100D800084F94FEAE97009EB10600012A9EB00202A
:100D90004004020CD8F8100000EB1421022368462E
:100DA00000F068FD00B11BE0BDF800009AE71FFAF3
:100DB00084F94FEAE97009EB5060C011A9EBC0104B
:100DC0008004020CD8F8100000EBD411042368460C
:100DD00000F050FD00B103E0009820F0704081E782
:100DE00000BF01207EE70146B3480268891ED06833
:100DF000801E884201D8002070475378906901FB1B
:100E00000300F9E770B50446AB480668002020806F
:100E1000A568012D02D0F068A84201D8012070BD5C
:100E20001DB93078032800D17569E5601DB12846E9
:100E3000FFF7D9FF00E0706920610020EFE72DE99E
:100E4000F04104469C4807682088401C86B20EB1D9
:100E5000206910B90320BDE8F08116F00F0F23D1EF
:100E60002069401C2061E06820B9B888B0421BDCD2
:100E70000320F0E7F11706EB11717A78521E12EA9F
:100E8000211F11D1E068FFF720FF0546012D01D891
:100E90000120E0E7F868A84201D80320DBE7E5601D
:100EA0002846FFF7A0FF206126800020D3E72DE928
:100EB000F04105462846FFF7A5FF064616B1304625
:100EC000BDE8F0817C480068876800BFB5F8008005
:100ED0004FEAE87008EB10700011A8EB0010400515
:100EE000020C20233846296900F0C4FC08B1012017
:100EF00000E00020C6B206B114E03C780CB903262D
:100F000010E0F87A10F0080F06D10B223846696815
:100F1000FFF7C8FE00B905E02846FFF790FF064638
:100F2000002ED3D000BF3046CAE72DE9F047044673
:100F3000032561480068D0F808802DE0B4F80090DF
:100F40004FEAE97009EB10700011A9EB00104005A1
:100F5000020C20234046216900F08CFC08B10120DE
:100F600000E00020C5B205B119E098F800700FB993
:100F7000032514E098F80B0000F03F06E52F05D09C
:100F80002E2F03D016F0080F00D108E02046FFF7FF
:100F900056FF054605B102E020690028CED100BF0A
:100FA0000DB1002020612846BDE8F0872DE9F35FF0
:100FB0000C460098D0F804A00B2220215046FFF7E1
:100FC00067FE0020814680460827D4F800B000BFA5
:100FD0004046411C01F0FF081BF80050202D01DDA8
:100FE0002F2D00D138E02E2D01D0B94508DB082F78
:100FF00001D12E2D00D02FE04FF008090B27E7E795
:10100000812D01DB9F2D03DDE02D17DBFC2D15DC91
:10101000781E484512DC4046411C01F0FF081BF8D1
:1010200000604846411C01F0FF090AF8005048469C
:10103000411C01F0FF090AF800600CE0612D04DB9F
:101040007A2D02DCA5F12000C5B24846411C01F012
:10105000FF090AF80050BBE700BF0BEB0800206057
:10106000202D01DC012000E000208AF80B00002088
:10107000BDE8FC9F70B501F109050669002E30D06E
:101080000D4E3668B46800220AE0A35C202B00D124
:1010900008E0052B00D1E52305F8013B561CF2B210
:1010A000082AF2DB00BF267A202E12D02E2605F861
:1010B000016B08220AE0000018000020A35C202B2E
:1010C00000D105E005F8013B561CF2B20B2AF5DB16
:1010D00000BFE67A0E72E6690E60268B8E80E68A85
:1010E000CE8000262E7070BD73B5044602E00198D4
:1010F000401C0190019800782028F8D001980078D1
:101100002F2802D10198401C01900020A060019876
:101110000078202809DC2046FFF774FE05460020F1
:10112000FB4909688968087027E000BF01A92046CB
:10113000FFF73CFF054605B11EE02046FFF7B7FE6E
:10114000054635B1032D03D16068C07A00B9042586
:1011500012E06068C07A00B10EE0ED480068866871
:10116000F07A10F0100F01D1042505E0708BB18AE0
:1011700040EA0140A060D9E700BF28467CBD70B5B9
:1011800004460D4602234FF4FF722946204600F024
:1011900071FB08B1032070BD2088A0F52A415539A4
:1011A00001D00220F7E7022336222946204600F02C
:1011B00061FB30B92088A0F58241463901D1002079
:1011C000E9E7022352222946204600F053FB30B9BA
:1011D0002088A0F58241463901D10020DBE70120BB
:1011E000D9E72DE9F04389B004460020C8490860DA
:1011F00014B909B0BDE8F08300F0A6FA10F0010FB1
:1012000001D00220F5E7002631466846FFF7B7FF18
:101210000546012D12D110234FF4DF723146684686
:1012200000F028FB08B1032508E09DF8040028B170
:10123000029E31466846FFF7A2FF0546032D01D105
:101240000120D6E70DB10720D3E724230D22314634
:10125000684600F00FFB08B10120CAE7BDF809702D
:101260000FB9DDF817709DF803004743BDF8010082
:10127000304420619DF800006070BDF80400A0803B
:10128000BDF80680B8F1000F01D1DDF81380A08809
:10129000C11700EB11710A11BDF80110A8EB010193
:1012A000C91B891A6278B1FBF2F101F10209C4F895
:1012B0000C90012540F6F770814500D302254FF6CA
:1012C000F770814500D303252570032D03D1DDF888
:1012D0001F00606102E0206938446061A088C11786
:1012E00000EB117122693A4402EB2111A161002047
:1012F000A0708748046000207BE770B590B004467A
:101300008348066816B9062010B070BD0020B07082
:10131000C6F808D008A80C9021460BA8FFF7E4FEF9
:1013200005460DB12846EFE79DF8000020B19DF875
:101330000B0010F0100F01D00320E5E7BDF81A00F4
:10134000BDF8141040EA0140706207983062002036
:10135000F0610120B0700020D6E72DE9FC5F044663
:101360000D46164600946A48D0F800B00020308040
:10137000BBF1000F02D10620BDE8FC9F9BF80200E4
:1013800010F0010F01D10520F6E7DBE90710401A44
:1013900001900198854201D9019885B263E0DBF89C
:1013A0001C00C005C00D2FD1DBF81C00400A9BF8C3
:1013B0000110B0FBF1F201FB120098B9DBF81C0040
:1013C00010B9DBF8240003E0DBF82800FFF77DFC10
:1013D0008046B8F1010F00D849E0CBF82880002002
:1013E0008BF80300DBF82800FFF7FDFC8146B9F11C
:1013F000000F00D13BE09BF80310481C8BF8030062
:1014000001EB0900CBF82C00DBF81C1088B2C117E7
:1014100000EBD1514912A0EB4121C1F500711FFA37
:1014200081FAAA4500DDAA46DBF81C30C3F30802A6
:10143000DBF82C100CB9002300E0009B1846534643
:1014400000F018FA074607B111E0DBF81C00504421
:10145000CBF81C00009850440090A5EB0A0085B220
:10146000308850443080002D99D1002084E700203E
:101470008BF8020001207FE72DE9F047044624485D
:10148000D0F80090B9F1000F02D10620BDE8F08736
:1014900099F8020010F0010F01D10520F6E7D9F804
:1014A0002000A04201D2D9F82040D9F81C800020A9
:1014B000C9F81C00002C51D099F801004602B8F17F
:1014C000000F14D0601EB0FBF6F0A8F10101B1FBD3
:1014D000F6F188420BD3A8F10100711E8843C9F8C8
:1014E0001C00D9F81C00241AD9F8285003E0D9F8B8
:1014F0002450C9F8285015E02846FFF7E6FB0546BA
:10150000012D03D9D9F80C00A84203D828E0000027
:1015100018000020C9F82850D9F81C003044C9F838
:101520001C00A41BB442E7D8D9F81C002044C9F819
:101530001C002846FFF757FC074607B910E0C4F324
:10154000472089F80300E005C00D07D099F8031083
:10155000481C89F80300C819C9F82C00002095E739
:10156000002089F80200012090E7F0B58BB0044616
:101570000D462C4807680FB9062622E0C7F808D0A8
:1015800008A8606029462046FFF7AEFD0646AEB9C2
:101590009DF8000068B19DF80B0010F0100F07D007
:1015A000BDF81A00BDF8141040EA0140A06000E048
:1015B00004261EB92046FFF725FC0646032E00D15F
:1015C000042630460BB0F0BDF0B58BB004460D4696
:1015D000144807680FB9062620E0C7F808D008A805
:1015E000606025B92046FFF70DFC064616E0204650
:1015F000FFF79BFC0646032E02D100202061002647
:1016000066B929462046FFF735FD2046FFF717FC4F
:101610000646032E02D100202061002630460BB082
:10162000F0BD00001800002010B54021B94803F0BB
:101630009BFCFF2003F00DF910BD70B547F6FF7558
:1016400000BFFF2003F005F90446FF2C02D0681EFE
:101650000500F6D1204670BD2DE9F04104460D4647
:101660004021AC4803F080FC4021AA4803F07EFCF6
:10167000FFF7E3FFFF2802D0FF20BDE8F08114F060
:10168000800F32D004F07F04204603F0E2F8280EE9
:1016900003F0DFF8C5F3074003F0DBF8C5F30720DC
:1016A00003F0D7F8E8B203F0D4F80126402C00D1BB
:1016B0009526482C00D18726304603F0CAF84C2CDA
:1016C00002D1FF2003F0C5F80A2600BFFF2003F077
:1016D000C0F8074617F0800F03D0701EC0B2060096
:1016E000F4D1012F01DD3846C7E7204603F0B1F8F9
:1016F000280E03F0AEF8C5F3074003F0AAF8C5F3CF
:10170000072003F0A6F8E8B203F0A3F80126402C66
:1017100000D19526482C00D18726304603F099F851
:101720004C2C02D1FF2003F094F80A2600BFFF20C2
:1017300003F08FF8074617F0800F03D0701EC0B279
:101740000600F4D1384698E72DE9F84303F01CF879
:10175000642404E0FF2003F07CF8601EC4B2002C77
:10176000F8D1002600214020FFF776FF01286DD137
:101770004FF4D5714820FFF76FFF002841D100BF1B
:1017800006E0FF2003F065F80DF80400601CC4B209
:10179000042CF6DB9DF80200012857D19DF80300C8
:1017A000AA2853D142F6E06803E0A8F101001FFA2D
:1017B00080F8B8F1000F06D04FF08041E920FFF724
:1017C0004BFF0028F1D1B8F1000F3FD000217A2063
:1017D000FFF742FF002839D1002406E0FF2003F084
:1017E00038F80DF80400601CC4B2042CF6DB9DF838
:1017F000000010F0400F01D00C2000E00420C6B221
:1018000024E00021E920FFF727FF012802DC02265F
:10181000E92501E00126412546F2A81803E0A8F1D8
:1018200001001FFA80F8B8F1000F05D0002128460A
:10183000FFF712FF0028F2D1B8F1000F05D04FF4E6
:1018400000715020FFF708FF00B1002632480670F3
:10185000FFF7EAFE3EB13148078827F0380040F034
:1018600008072E4807800EB9012000E00020C0B212
:10187000BDE8F8832DE9F04704460D4616461F469D
:101880002548007810F0080F00D16D024FF00109D3
:1018900029465120FFF7E0FE002836D147F2305AA2
:1018A00000BFFF2002F0D5FF8046B8F1FF0F05D141
:1018B000AAF1010080B25FEA000AF2D1B8F1FE0F8E
:1018C00023D140F20220801BC01B1FFA80FA3EB1D8
:1018D00000BFFF2002F0BDFF701E80B20600F8D1ED
:1018E00000BFFF2002F0B5FF04F8010B781E80B2A4
:1018F0000700F6D100BFFF2002F0ABFFAAF1010004
:1019000080B25FEA000AF6D18146FFF78DFE4846B5
:10191000BDE8F087000C01401C00002000300140B1
:1019200010B54148FEF736FC10BD10B53E48FEF735
:101930003BFC3D48007878B93C48007801280BD141
:101940003B480078401C3A49087001F066F9384875
:101950000078401E3649087010BD10B53448007834
:1019600001280FD133480078012801D101F089F80E
:101970002E480078012801D101F04FF900202C49B0
:10198000087004E02A480078401E2949087010BDFC
:1019900027480078401C26490870704710B5FFF7AB
:1019A000DCFF10BD10B524484FF0E021486107204E
:1019B00008612248006840F07F40C1F81C0D2048B3
:1019C0000068204940EA01004FF0E021C1F8200DF5
:1019D00001F0C0F800F042F800F02AFC144800784A
:1019E000401C13490870184B41F605120021174896
:1019F00001F06CF91448FEF7E5FB10BD10B5144872
:101A0000144908600846006813490860012011491C
:101A1000096848710F48006801F0DCF8FFF79DFF86
:101A200010BD40F2131070471D0000201F00002061
:101A30001E000020340000207FFC0A001CED00E0A6
:101A400020ED00E00000FFFF5C14002029220008C8
:101A50003C130020440000204000002010B500206E
:101A6000A14901F110020AE00A60087104244B79CF
:101A700064F303034B7110311032431CD8B20928B0
:101A8000F2DB04244B7964F303034B7100230B60F6
:101A90000871954B954C236010BD10B50446042188
:101AA000607961F30300607191480078401C9049AF
:101AB00008708E48006820608C480460FFF74DFF76
:101AC00010BD2DE9F04104460D46174688480078C0
:101AD000401C874908708548006820B9FFF73DFF22
:101AE0000020BDE8F08181480668006800687F49F1
:101AF0000860FFF732FF707964F30300707170794A
:101B000065F30710707137600020F0603046E8E739
:101B100070B504460E463EB9E06808B1042070BDB9
:101B20002046FFF7BAFF1FE0012E1DD17048007854
:101B3000401C6F4908700FE0E568686A401C02D0DD
:101B4000284601F0D3F92869E06000202861FF20D1
:101B5000E871284601F015F8E0680028ECD1FFF79D
:101B6000FCFE2046FFF799FF0020D8E72DE9F04161
:101B700004460F465E480078401C5D490870E568E1
:101B80002079F8716079000901280AD10DB9E76060
:101B900027E000E02D6928690028FBD12F617D61D5
:101BA0001FE06079000902281BD10DB9E76018E039
:101BB00028793979884203DDE7603D616F6110E083
:101BC0002E6906E030793979884200DD03E0354638
:101BD0003669002EF6D100BF2F617D613E6106B1EE
:101BE000776102207871012042490870FFF7B5FE45
:101BF000BDE8F08170B50446E66806B970BD30698D
:101C0000E060E06810B10020E168486100203061C8
:101C1000FF20F071706A401C02D0304601F066F976
:101C20006079C0F30300022807D12068F06000202B
:101C30002060E088401EE08022E06079C0F303006D
:101C4000032812D12568E988286850F82100F0603F
:101C5000E888401CE880A889401EA881E888698936
:101C600088420DD10020E8800AE06079C0F30300CB
:101C7000012805D1E088401EE0804FF0FF30F06081
:101C80001D480068864202D10120707102E0304692
:101C900000F077FFB2E7C279134B03EB0211026940
:101CA00022B9426912B90022CA6019E042693AB900
:101CB000002203695A610269CA60002202610FE0D2
:101CC000026922B9002243691A61426108E0D0E941
:101CD00004231A61D0E904325A6100224261026190
:101CE000FF22C271704700008411002020000020F4
:101CF0001E0000201F0000204400002070B5044694
:101D00000E46FD480078401CFB49087000251EE087
:101D1000FA4881680120A840014216D1F74881683D
:101D20000120A8400143F5488160016806FA05F0EA
:101D30000143F2480160406804FA05F10843EF49A5
:101D40004860FFF70AFE284670BD681CC5B2202D0A
:101D5000DEDBFFF702FEFF20F6E7016831B94168DC
:101D600021B90021E54AD160116117E0016831B95C
:101D7000E24A416811610021426811600EE0416849
:101D800031B9DE4A0168D16000210268516005E086
:101D9000D0E900215160D0E9001211600021C26831
:101DA0001162704770B504462046FFF7D6FFE5681C
:101DB000686A401C02D0284601F098F84FF0FF30C6
:101DC0002862CF480068854202D10120687102E094
:101DD000284600F0D6FE206870BD2DE9F04104468B
:101DE0000D46C64FC7480078002802DD0320BDE835
:101DF000F081C1480078401CBF490870FE6824E0AB
:101E00000120A040B16801421DD01DB9FFF7A5FD1A
:101E10000420ECE7012D16D1307C78B90120A040D8
:101E2000B168814204D13046FFF7BCFF06460CE0A2
:101E30000120A040B1688143B16004E03046FFF763
:101E4000B1FF064601E0366800BF002ED8D1012060
:101E5000A040B9688143B9600120A040396881433E
:101E600039600120A040796881437960FFF775FDF2
:101E70000020BCE770B50446A04D0120A0402968B1
:101E8000014210D09C480078401C9B4908702846AD
:101E900041680120A0400140286888432860FFF77E
:101EA0005CFD002070BD0C20FCE72DE9F0410446EC
:101EB0000D461646DFF84482D8F8000000EA040711
:101EC0008D480078401C8C49087077B1012D0CD1E9
:101ED000D8E9001038408143C8F80010FFF73DFDF5
:101EE000002030703846BDE8F081A7420CD15DB9C2
:101EF000D8E9001038408143C8F80010FFF72DFDE5
:101F0000002030703846EEE7FFF727FD0C203070D8
:101F10000020E8E710B5794B794C24682062784CB2
:101F20002468C460816002741C6924B900240460C0
:101F30004460D86005E01C6920601C69446000248E
:101F40000460186110BDF0B585B005460E466D48B9
:101F50000078002802DD032005B0F0BD6648007857
:101F600008B11520F8E764480078401C6249087001
:101F7000624C0120A8402168014209D00120A840FC
:101F800061680140206888432060FFF7E6FC42E07A
:101F90005B480768F6B9012000FA05F1022268469D
:101FA000FFF7B8FF02207871012057490870FFF74A
:101FB000D4FC0020386250480078401C4E4908701C
:101FC0000121A94060680140206888432060FFF734
:101FD000C4FC20E0012000FA05F102226846FFF768
:101FE00099FF3146384600F041FFFFF7B6FC386AEA
:101FF00008B90520B0E7002038623F480078401C4F
:102000003D4908700120A84061680840216881436B
:102010002160FFF7A2FC00209EE72DE9F04786B083
:1020200004460D4616461F4636480078002805DD52
:1020300003203870002006B0BDE8F0872E480078F5
:1020400018B1152038700020F5E72B480078401CA7
:1020500029490870DFF8A480D8F8000000EA0409D4
:10206000B9F1000F0ED0012D0CD1D8E9001000EA13
:1020700009008143C8F80010FFF76FFC002038709A
:102080004846D8E7A1450DD165B9D8E9001000EA66
:1020900009008143C8F80010FFF75FFC002038708A
:1020A0004846C8E71648D0F800A07EBB2A4621461D
:1020B00001A8FFF72FFF02208AF80500012012492E
:1020C0000870FFF74AFC0020CAF820000A48007890
:1020D000401C09490870D8F8000000EA0409D8E952
:1020E000001000EA09008143C8F80010FFF735FC32
:1020F0000020387048469EE71E0000202412002071
:10210000440000201D0000201F000020FFE72A4699
:10211000214601A8FFF7FEFE3146504600F0A6FE1C
:10212000FFF71BFCDAF8200018B9052038700020F2
:1021300081E70020CAF8200039480078401C38495F
:1021400008703848006800EA0409D8E9001000EA7D
:1021500009008143C8F80010FFF7FFFB002038702A
:10216000484668E701462F4A01238B401068984390
:1021700010600020704770B504462A4E0120A04030
:102180003168014201D0002070BD0120A0403168BB
:102190000143316022480078401C21490870F568ED
:1021A00023E0287C80B9A86831680840A968884283
:1021B00019D12846FFF7F6FD05460120A0407168B9
:1021C000014200D013E010E0A868316808420AD04C
:1021D0002846FFF7E7FD05460120A040716801424F
:1021E00000D004E001E02D6800BF002DD9D100BF70
:1021F000FFF7B3FB0020C7E710B504460848007896
:10220000002809DD00222146032000F00BFC08B95C
:10221000122010BD0020FCE72046FFF7ACFFF8E7D6
:102220001E0000202412002000BFFEE700BFFEE7D2
:10223000984899490860C8304860C838974908608C
:102240000020096808609549096848609349096851
:10225000886070472DE9F84F0446E01C800808218B
:1022600001EB80048C48406800908D480078401C49
:102270008B49087089480568002753E0686818B9D9
:102280000098A0EB050B03E06868401EA0EB050B6F
:10229000A34545D3A846454608F1080AABEB040020
:1022A0000C2816D217B12868386002E07B492868EC
:1022B0000860686830B16868A0F1010948F0010061
:1022C000C9F804006868C8F80000A868C8F80400E5
:1022D00018E02E190FB13E6001E07048066048F02A
:1022E0000100B0606868706028683060686820B17C
:1022F0006868A0F10109C9F80460C8F80060A8681E
:10230000C8F80400A86830B1A868A0F1010948F035
:102310000100C9F80000FFF720FB5046BDE8F88F28
:102320002F462D68002DA9D1FFF717FB0020F5E7F8
:1023300001460A4601E05068421E506810F0010F45
:10234000F9D1506870472DE9F0470446A4F1080818
:1023500053480078401C52490870D8F8000010F02B
:10236000010F33D1D8F8040010F0010F2ED1D8F8A6
:10237000000050B9D8F8040038B94546002028605C
:102380006860A8604548056072E0D8F8040058B954
:102390004546D8F8006030682860706868600020A2
:1023A000A8603E48056063E0D8F8000028B9D8F876
:1023B00004500020286068605AE0D8F80060D8F81F
:1023C0000450306828607068686051E0D8F80400F4
:1023D00010F0010F16D1D8F8040060B94546D8F8BE
:1023E0000090C5F804900020A8602C480068286080
:1023F0002A4805603CE0D8F80450D8F80090C5F8A9
:10240000049035E0D8F8000010F0010F1BD1D8F887
:1024100004A045464046FFF78BFF07461FB91F48FB
:102420000668056001E03E683D602EB9C5F808A069
:102430000020686028601BE0C5F808A0706868602C
:102440003068286014E045464046FFF771FF0746B4
:10245000D8F804A0D8F800901FB9104806680560A5
:1024600001E03E683D60C5F808A0C5F804902E6004
:10247000A86820B1A868A0F1010ACAF800506868ED
:1024800020B16868A0F10109C9F80450FFF765FAA6
:10249000BDE8F0873812002028000020240000202A
:1024A0001E00002070B50446002221460220FFF7DE
:1024B00008FB05460DB9FF2070BD0020E880287993
:1024C000FAE770B504460D46534800EB041629465A
:1024D0003046FFF71DFB70BD2DE9F04104460D4667
:1024E0004D4800EB04164D480078401C4B490870DD
:1024F000F088012809D10020287037683060F0800A
:10250000FFF72BFA3846BDE8F081FFF726FA0A20DC
:1025100028700020F7E72DE9F04704460D461646DF
:102520003F480078002804DD032030700020BDE81B
:10253000F087394800EB04173848007818B11520A7
:1025400030700020F3E7F888012807D100203070B0
:10255000D7F800803860F8804046E8E73148D0F886
:1025600000905DB949463846FFF700FB0020307007
:10257000D9F80C80C9F80C004046D8E72748007805
:10258000401C2649087049463846FFF7EFFA2946AD
:10259000484600F06BFCFFF7E0F9D9F80C0018B9D9
:1025A000052030700020C2E700203070D9F80C8080
:1025B000C9F80C004046BAE770B504460D46164807
:1025C00000EB0416F08870B914480078401C1349D9
:1025D000087035600120F0803046FFF70BFBFFF7F5
:1025E000BCF9002070BD0720FCE770B504460D461D
:1025F0000A480078002809DD2A462146022000F01A
:1026000011FA08B9122070BD0020FCE729462046C7
:10261000FFF7D2FFF7E70000841100201E00002022
:102620001D000020440000202DE9F04104460D4625
:102630001646A2480078401CA04908704FF00008D8
:102640003DE0012000FA08F09D490968084232D1B6
:10265000012000FA08F09A4909680843984908607F
:10266000FFF77BF9974800EB08100460954800EBF2
:10267000081080F804800020924901EB0811C880FE
:10268000904901EB081108818E4800EB0810458144
:1026900000208C4901EB081188818A4800EB081260
:1026A00031460320FFF70DFA074617B9FF20BDE8B2
:1026B000F0813879FBE708F1010000F0FF08B8F17C
:1026C000020FBEDBFFF749F9FF20F0E72DE9F041EB
:1026D00004460D467C4800EB041637682946304610
:1026E000FFF716FA8046B8F1000F0ED139790120B4
:1026F000884073490968814371480160002038604F
:102700003871F88038817881B8814046BDE8F08121
:102710002DE9F04104460D466B4800EB041637687E
:1027200066480078401C65490870B889B0B1F988DE
:10273000386850F82180F888401CF880B889401E1D
:10274000B881F8887989884201D10020F880FFF7A4
:1027500004F9002028704046BDE8F081FFF7FDF83D
:102760000B2028700020F7E72DE9F04704460D46BE
:10277000164656480078002804DD032030700020FB
:10278000BDE8F087504800EB04174C48007818B1BA
:10279000152030700020F3E7D7F80080B8F80C005F
:1027A000E0B1B8F80610D8F8000050F821A0B8F849
:1027B0000600401CA8F80600B8F80C00401EA8F857
:1027C0000C00B8F80600B8F80A10884202D10020C0
:1027D000A8F80600002030705046D1E73C48D0F8F9
:1027E00000905DB949463846FFF7C0F9D9F80CA00A
:1027F0000020C9F80C0030705046C1E72F4800781F
:10280000401C2E49087049463846FFF7AFF9294663
:10281000484600F02BFBFFF7A0F8D9F80C0018B9D8
:10282000052030700020ABE7D9F80CA00020C9F8D3
:102830000C0030705046A3E72DE9F04104460D46E8
:10284000214800EB04163768B8897989884202D19B
:102850000820BDE8F08119480078401C174908702D
:102860003989386840F821503889401C3881B88946
:10287000401CB88138897989884201D1002038818B
:102880003046FFF7B7F9FFF768F80020E1E770B5C9
:1028900004460D4609480078002809DD2A462146ED
:1028A000042000F0BFF808B9122070BD0020FCE73A
:1028B00029462046FFF7C0FFF7E700001E00002072
:1028C0003000002000130020841100201D00002093
:1028D000440000202DE9F04104460D461646002232
:1028E00031460120FFF7EDF8074617B9FF20BDE894
:1028F000F081FC803D813879F9E770B504460D46DA
:10290000444800EB041629463046FFF701F970BD34
:1029100070B504463F4800EB04153F480078401C62
:102920003D490870E888002806DDFFF716F8E888BA
:10293000401EE880002070BDFFF70FF80920FAE77D
:102940002DE9F04104460D4634480078002802DDA8
:102950000320BDE8F0812F4800EB04162E480078D4
:1029600008B11520F5E7F088002804DDF088401E46
:10297000F0800020EDE72A48076835B9394630462F
:10298000FFF7F4F80020F860E3E723480078401CE4
:102990002149087039463046FFF7E8F8294638469D
:1029A00000F064FAFEF7D9FFF86808B90520D0E70F
:1029B0000020F860CDE770B50446164800EB04151A
:1029C000E8882989884201D1062070BD1248007824
:1029D000401C11490870E888401CE8802846FFF731
:1029E00009F9FEF7BAFF0020EFE710B504460A48E0
:1029F0000078002809DD00222146012000F012F8AD
:102A000008B9122010BD0020FCE72046FFF7D3FFD5
:102A1000F8E70000841100201E0000201D000020A7
:102A2000440000202DE9F04704460D461646FDF708
:102A3000C7FB44480078032804DBFDF7BFFB0020F8
:102A4000BDE8F0873F48FDF7A5FB07463D4890F8F5
:102A5000019001203C49087007EB0900032190FB1D
:102A6000F1F201FB12013748001D00EBC10888F8A4
:102A7000004088F80150C8F80460FDF79FFB012072
:102A8000DEE71CB531480078012804D100F0D1FA06
:102A900000202E4908702E480078012804D100F04B
:102AA0009FFC00202A4908703CE0FDF789FB25487F
:102AB0004178001D00EBC10103C9CDE900012148A7
:102AC0004078401C032190FBF1F201FB12001D49EC
:102AD000487008460078401E0870FDF76FFB9DF8AF
:102AE0000000012806D0022809D003280DD00428B0
:102AF00016D10FE09DF80100FFF75DFF11E09DF892
:102B000001000199FFF758FD0BE09DF80100FFF768
:102B100032FB06E09DF801000199FFF78DFE00E011
:102B200000BF00BF074800780028BED1FDF748FB72
:102B30000448007810B9002003490870FDF73EFBF7
:102B40001CBD0000201300203400002035000020B0
:102B50003600002010B5BC4901F13002002007E02A
:102B6000887103234B718A6230313032431CD8B2F2
:102B70000328F5DB887100238B62B34BB34C2360D1
:102B800010BD30B5037900244471B14C22682AB9D4
:102B90000124B04D2C70AE4C20601AE014799C4298
:102BA00007DD0124AB4D2C708262D062A84C2060FE
:102BB0000FE0916A05E00C799C4200DD03E00A46D3
:102BC000896A0029F7D100BF81629062C26201B1B7
:102BD000C86230BD816A29B9C16A19B900219C4A0D
:102BE000116019E0C16A39B9994A816A11600021FE
:102BF00081621268D1620FE0816A21B90021C26A44
:102C00009162C16208E0D0E90A129162D0E90A211A
:102C1000D16200218162C16270472DE9F0418E4886
:102C200005688B4807685FB18C480068854207D10A
:102C30008B480078012803DC8A480078002801DDF1
:102C4000BDE8F0810020834908702C793E796879CD
:102C5000012807D081480760012078713846FFF7C6
:102C6000B9FF0DE0A6420ADA7C4807602846FFF764
:102C700088FF3846FFF7AEFF0120787100E0DFE7FC
:102C8000A9682868884204D3A86800687649884201
:102C900002D0A879FFF7CAFAFDF798FAD0E710B585
:102CA0006F480078401C6E4908706848006818B981
:102CB000FEF753FE002010BD644804680068806A77
:102CC00062490860FEF749FE2046F4E72DE9F05F0F
:102CD00004460D4616461F46C6F30B2B06F0FF0AA8
:102CE0005D48006810B1FF20BDE8F09F3A462946D4
:102CF000204600F0B1FB8046FFF7D1FF8146B9F1D5
:102D0000000F01D1FF20EFE7C9F8008089F804A087
:102D1000381DA0EB8B00C9F808005348D9F80810FB
:102D200008604FF0FF30C9F82400C9F81840C9F80E
:102D30001C700020C9F82800C9F82C00C9F8200030
:102D4000FF2089F807000020C9F80C00C9F810001E
:102D5000C9F81400F00F0AD141480078401C4049DE
:102D600008704846FFF70DFFFEF7F7FD02E002206E
:102D700089F8050099F80600B6E770B5044604EB3B
:102D80004400314901EB00150CB9142070BD68797D
:102D9000012804D13248007808B11520F6E7304800
:102DA0000078401C2E490870687918B92846FFF74A
:102DB00011FF13E06879022810D1686A401C02D024
:102DC000284600F093F8E879FF2802D02846FEF75D
:102DD00062FF286A10B1286AFEF7BFFF03206871FE
:102DE00001201C490870FEF7B8FD0020CEE710B5A1
:102DF000194909688879FFF7C0FF10BD2DE9F04136
:102E000004460E4604EB44000F4901EB00177879A5
:102E1000032802D00020BDE8F0813146D7E9060240
:102E200000F01AFB05463D600D480078401C0C4937
:102E300008703846FFF7A5FEFEF78FFD0020EAE791
:102E400005480068807970473C1300203800002056
:102E50003C0000201F000020440000204000002013
:102E60001E0000201D000020A5A55A5A30B501B94A
:102E700030BD894C24681CB94162874C20602FE02A
:102E8000854C23680A4628E05C6A121B002A1BDA7C
:102E9000DC6A34B1DC6AA062DC6AC4628362D86234
:102EA00007E07D4C246884627B4C2468E0627A4CA5
:102EB0002060846A646A14444462846A646A456A6D
:102EC000641B856A6C620AE0002A05DB9C6A1CB9F7
:102ED000C3629862426202E09B6A002BD4D100BFB9
:102EE0000224447101246D4D2C70C1E7C16A29B9D7
:102EF000816A19B90021684A116025E0C16A69B97F
:102F0000654A816A1160816A496A426A1144826A2B
:102F100051620021826AD162816215E0816A21B921
:102F20000021C26A9162C1620EE0D0E90A12916288
:102F3000D0E90A21D162816A496A426A1144826AEF
:102F4000516200218162C1624FF0FF3141627047DE
:102F5000534903C9704710B5044652480078002809
:102F600001DD032010BD601C01D10220FAE70CB97D
:102F70000020F7E74C48007808B11520F2E74A48EE
:102F80000078401C48490870214648480068FFF70F
:102F90006DFFFEF7E2FC0020E4E770B504460D4645
:102FA00004EB4400424901EB0016706A401C01D159
:102FB000112070BD3C480078401C3B4908703046E9
:102FC000FFF794FF1DB93046FFF7DBFD03E029460C
:102FD0003046FFF74BFFFEF7C0FC0020E9E72DE984
:102FE000F04104460D4616461F462F48007810B1A2
:102FF0001520BDE8F08107EBC70000EB07104FF488
:10300000FA7101EB8000490090FBF1F14FF461602F
:103010006043C5EB051200EB8200304400EBC002B8
:1030200002EB001001EB80084046FFF794FF002000
:10303000DFE710B5184804681AE0E079FF2802D0ED
:103040002046FEF728FE206A10B1206AFEF785FEB2
:103050004FF0FF3060621049A06A08600020A06253
:103060002046FFF78EFD0C4804680CB10020E0629A
:1030700014B1606A0028E0D010BD10B50A4800788D
:10308000012805DD01200B4908700B49087001E09B
:10309000FFF7CFFF10BD0000500000201F000020F0
:1030A000600000201D0000201E00002044000020C1
:1030B0003C13002034000020350000202DE9F041B1
:1030C000044604EB4400DE4901EBC00046680EB93B
:1030D000BDE8F081DB480078401CDA490870DA4826
:1030E000006838B904EB4400D54901EBC000D6496B
:1030F000086075E0D448076835466EE078682D1A98
:10310000002D54DA7869C8B104EB4400CC4901EBD6
:10311000C0007969086104EB4401C94A02EBC101AE
:103120007869486104EB4400114601EBC000076177
:1031300004EB440001EBC000786116E0C24800686F
:1031400004EB4401BE4A02EBC101086104EB4400F8
:10315000114601EBC000BC490968486104EB44001A
:10316000114601EBC000B849086004EB4400B449C3
:1031700001EBC00000694068284404EB4401B04AF8
:1031800002EBC101486004EB4400114601EBC000B2
:103190000069406804EB440102EBC1014968401A30
:1031A00004EB440102EBC1010969486017E0002DFE
:1031B00012DB386980B904EB4400A14901EBC0007F
:1031C000476104EB440001EBC000386104EB4400AC
:1031D00001EBC000456002E03F69002F8ED100BFC7
:1031E000FEF7BBFB74E770B5044604EB440094495A
:1031F00001EBC00593480078401C9249087068694B
:1032000028B9286918B900208F49086026E0686944
:1032100070B98D49286908600020096848612869EB
:10322000406869680844296948600020286115E001
:10323000286920B900206969086168610EE0D5E954
:1032400004010861D5E9041048612869406869688B
:10325000084429694860002028616861FEF77DFB09
:1032600070BD2DE9F04104460D4616469846754856
:103270000078401C73490870002740E00120B840E6
:1032800072490968084238D10120B8406F4909687D
:1032900008436E490860FEF760FB07EB470068498A
:1032A00001F8307007EB470001EBC00044700120CB
:1032B00007EB4701624A02EBC101887007EB470048
:1032C000114601EBC000456007EB470001EBC00071
:1032D000866007EB470001EBC000C0F80C800020BF
:1032E00007EB470102EBC101486107EB470102EB25
:1032F000C10108613846BDE8F081781CC7B2022FD1
:10330000BCDBFEF72AFBFF20F5E710B5044604EB13
:1033100044004B4901EBC000807808B9002010BD83
:10332000002004EB4401464A02EBC10188702046AC
:10333000FFF7C4FE0020F2E710B5044604EB44009A
:103340003F4901EBC0008078012801D1002010BD69
:103350002046FFF748FF012004EB4401384A02EB06
:10336000C10188700020F2E710B5044604EB440068
:10337000334901EBC000807810B92046FFF733FFD6
:103380000120A04031490968814330480160002094
:1033900010BD02460020087002EB4200284B03EBF0
:1033A000C0004068704770B504460D46164604EBF1
:1033B0004400234901EBC000456004EB440001EBED
:1033C000C000866004EB440001EBC000807828B99F
:1033D0002046FFF708FF2046FFF770FE002070BD73
:1033E00010B51948046818E0607838B92078FFF7FC
:1033F000FAFE0120A070E06880470CE060780128A8
:1034000009D12078FFF7EFFEA06860602078FFF711
:1034100055FEE06880470C48046814B160680028D5
:10342000E2D010BD10B507480078012805DD012065
:10343000074908700749087001E0FFF7D1FF10BD88
:10344000601400201E0000205400002058000020BE
:10345000340000203600002010B5034610464FF01F
:10346000807440F8044940F804396FF001040460A6
:1034700014380160203810BD10B51F480078401C7A
:103480001D4908701DA00CC81E4803C8801859416A
:103490001C4A03C21C48006890B11B480068406A7F
:1034A000012807D918480068406A401E1649096873
:1034B000486205E00020144909684862FFF7DDFD15
:1034C0001248006890B1114800684068012807D987
:1034D0000E4800684068401E0C490968486005E0D5
:1034E00000200A4909684860FFF79CFF012008494D
:1034F0000870FEF732FA10BD1E0000200100000027
:103500000000000060000020500000205400002057
:103510001F00002008B501211C2001F022FF4FF4FC
:103520007F40ADF8000003208DF8020010208DF8D8
:1035300003006946FF4801F06DFCFF20ADF8000074
:103540006946FD4801F066FC4FF4F850ADF8000004
:103550006946F94801F05EFC4FF40050ADF80000F8
:103560006946F54801F056FC4FF40050F2490861F5
:1035700008BDF249096860F31F21F14AC2F80C1C2A
:10358000ED49C96801F47F4141EA2021EA4AD1604E
:10359000704770B505460021084603F057FE4FF40A
:1035A0008070E5494861222003F09EFE4FF40070D0
:1035B000E1490861002408E02846FFF7DAFF4FF4EC
:1035C0008060DD4948610861641CB4F5963FF3D31F
:1035D0004FF48070D849086170BD00E0401E00289B
:1035E000FCD1704700B54FF48050D34908614CF2CC
:1035F0005030FFF7F2FF4FF48050CF4948614CF252
:103600005030FFF7EAFF4FF48050CB4908614CF28D
:103610005030FFF7E2FF00BD70B5FFF77BFF4FF6BC
:10362000FF70FFF7A6FF4FF48050C3490861801078
:103630000861801008614000086180000861400056
:103640000861FFF7CFFF4CF2503401E0601E84B2F6
:10365000002CFBDC4CF2503401E0601E84B2002CE4
:10366000FBDC4CF2503401E0601E84B2002CFBDC29
:103670000121002003F04EFE42F21070FFF7ADFF73
:103680004CF2503401E0601E84B2002CFBDC4CF2A2
:10369000503401E0601E84B2002CFBDC00254FF4A6
:1036A0008070A5494861284603F01EFE4FF4006073
:1036B000A149486103F0A0FD05464FF400609E4912
:1036C0000861C010086100BF9E4805800088A0F511
:1036D0001341253905D09B480088A0F513412839AE
:1036E00070D11021E72003F015FE0121002003F026
:1036F00011FE4FF48071012003F00CFE4FF4E061E5
:10370000022003F007FE41F23001032003F002FE25
:103710000021042003F0FEFD40F20721082003F001
:10372000F9FD0021092003F0F5FD00210A2003F036
:10373000F1FD01210C2003F0EDFD00210D2003F02F
:10374000E9FD00210F2003F0E5FD0021102003F02A
:10375000E1FD0721112003F0DDFD0021122003F01F
:10376000D9FD0021132003F0D5FD4CF2503401E0C7
:10377000601E84B2002CFBDC4CF2503401E0601E71
:1037800084B2002CFBDC41F29051102003F0C2FD0A
:1037900040F22721112003F0BDFD4CF2503401E02E
:1037A000601E84B2002CFBDC4CF2503401E0601E41
:1037B00084B2002CFBDC9C21122003F0ABFD4CF208
:1037C000503402E0DEE0601E84B2002CFBDC4CF2E0
:1037D000503401E0601E84B2002CFBDC4FF4C85171
:1037E000132003F097FD2321292003F093FD0E21E0
:1037F0002B2003F08FFD4CF2503401E0601E84B2A8
:10380000002CFBDC4CF2503401E0601E84B2002C32
:10381000FBDC0021202003F07DFD0021212003F0AE
:1038200079FD4CF2503401E0601E84B2002CFBDCC8
:103830004CF2503401E0601E84B2002CFBDC072106
:10384000302003F067FD40F20771312003F062FD84
:103850000621322003F05EFD40F20471352003F0B2
:1038600059FD41F60471362003F054FD0421372040
:1038700003F050FD0021382003F04CFD40F20671AA
:10388000392003F047FD40F201713C2003F042FD76
:103890000F213D2003F03EFD4CF2503401E0601E4C
:1038A00084B2002CFBDC4CF2503401E0601E84B288
:1038B000002CFBDC0021502003F02CFDEF215120D7
:1038C00003F028FD0021522003F024FD40F23F11B7
:1038D000532003F01FFD4FF42741602003F01AFD31
:1038E0000121612003F016FD00216A2003F012FD82
:1038F0000021802003F00EFD0021812003F00AFD4D
:103900000021822003F006FD0021832003F002FD48
:103910000021842003F0FEFC0021852003F0FAFC46
:103920001021902003F0F6FC0021922003F0F2FC1D
:10393000032109E0000C0140001001400C0C014083
:10394000000001406A000020932003F0E3FC4FF4E4
:103950008871952003F0DEFC0021972003F0DAFC4B
:103960000021982003F0D6FC40F23311072003F029
:10397000D1FC0021202003F0CDFC0021212003F008
:10398000C9FCDCE2FF480088A0F5134120397DD155
:10399000084603F0BFFC4FF48071012003F0BAFC2D
:1039A0004FF4E061022003F0B5FC41F2180103205E
:1039B00003F0B0FC0021042003F0ACFC40F2022133
:1039C000082003F0A7FC0021092003F0A3FC00213C
:1039D0000A2003F09FFC01210C2003F09BFC002136
:1039E0000D2003F097FC00210F2003F093FC4CF214
:1039F000503401E0601E84B2002CFBDC4CF25034E9
:103A000001E0601E84B2002CFBDC40F201110720B3
:103A100003F080FC4CF2503401E0601E84B2002CB4
:103A2000FBDC4CF2503401E0601E84B2002CFBDC65
:103A30004FF48651102003F06DFC0721112003F094
:103A400069FC4FF48871122003F064FC4FF430617C
:103A5000132003F05FFC0021292003F05BFC44F2FB
:103A600010012B2003F056FC0021502003F052FCE3
:103A7000EF21512003F04EFC0021522003F04AFCBC
:103A800040F23F11532003F045FC00E043E04FF4C7
:103A90001C51602003F03EFC0121612003F03AFC40
:103AA00000216A2003F036FC0021802003F032FC64
:103AB0000021812003F02EFC0021822003F02AFC4B
:103AC0000021832003F026FC0021842003F022FC47
:103AD0000021852003F01EFC1021902003F01AFC29
:103AE0000021922003F016FC0121932003F012FC28
:103AF0004FF48871952003F00DFC0021972003F00E
:103B000009FC0021982003F005FC40F27311072006
:103B100003F000FC13E29B480088A0F51941193915
:103B20007ED10621282003F0F5FB0121002003F0BF
:103B3000F1FB0021102003F0EDFB47F2EF21012003
:103B400003F0E8FB4FF4C061022003F0E3FB46F60C
:103B50003821032003F0DEFB46F67401112003F048
:103B6000D9FB00210F2003F0D5FB45F208310B20D3
:103B700003F0D0FB03210C2003F0CCFB0A210D2025
:103B800003F0C8FB4FF438510E2003F0C3FBBE21F5
:103B90001E2003F0BFFB4FF40041252003F0BAFBC9
:103BA0004FF4F041262003F0B5FB7821272003F0E5
:103BB000B1FB00214E2003F0ADFB00214F2003F0AC
:103BC000A9FB40F6D901122003F0A4FB002130200C
:103BD00003F0A0FB4FF48271312003F09BFB4FF404
:103BE0008071322003F096FB40F20531332003F060
:103BF00091FB40F20551342003F08CFB40F205317B
:103C0000352003F087FB40F20771362003F082FB7A
:103C10004FF44071372003F07DFB4FF4905100E0EA
:103C20000CE03A2003F076FB4FF400613B2003F0F8
:103C300071FB3321072003F06DFB80E151480088C0
:103C4000A0F58A4131397ED10121002003F062FBC9
:103C50004FF4C561102003F05DFB0621122003F034
:103C600059FB40F63221132003F054FB4021112070
:103C700003F050FB5021152003F04CFB16211220BD
:103C800003F048FB0F20FFF7A8FC45F2606110200D
:103C900003F040FB0F20FFF7A0FC42F64E2113205B
:103CA00003F038FB4FF48071012003F033FB4FF435
:103CB0004071022003F02EFB41F23001032003F09B
:103CC00029FB40F20221082003F024FB00210A20F6
:103CD00003F020FB0021302003F01CFB40F20241E6
:103CE000312003F017FB4FF48371322003F012FBF5
:103CF0004FF4E061332003F00DFB4FF48271342068
:103D000003F008FB40F20131352003F003FB40F2E1
:103D10000771362003F0FEFA40F20531372003F038
:103D2000F9FA4FF40271382003F0F4FA40F60B71FF
:103D3000392003F0EFFA0F20FFF74FFC022141205A
:103D400003F0E8FA00E03AE04FF41C51602003F081
:103D5000E1FA0121612003F0DDFA40F2191190200F
:103D600003F0D8FA4FF48571922003F0D3FA0421BE
:103D7000932003F0CFFA4FF48071A02003F0CAFA29
:103D80000F2001E06A000020FFF727FC0F20FFF75B
:103D900024FC0F20FFF721FC0F20FFF71EFC40F250
:103DA0003311072003F0B6FA0F20FFF716FC0021AD
:103DB000A02003F0AFFA1420FFF70FFCBFE0F94892
:103DC0000088A0F5EE418339F8D10121FF2003F0EE
:103DD000A1FA0821F32003F09DFA4FF4807101202D
:103DE00003F098FA4FF4E061022003F093FA41F2F5
:103DF0003001032003F08EFA40F20231082003F074
:103E000089FA40F20721082003F084FA00210920F2
:103E100003F080FA00210A2003F07CFA0021102030
:103E200003F078FA0521112003F074FA0021122022
:103E300003F070FA0021132003F06CFA3220FFF730
:103E4000CCFB41F2B021102003F064FA3220FFF7DE
:103E5000C4FB0721112003F05DFA3220FFF7BDFB00
:103E60008B21122003F056FA3220FFF7B6FB4FF4F5
:103E7000B851132003F04EFA3220FFF7AEFB222197
:103E8000292003F047FA0021302003F043FA40F2E2
:103E90000771312003F03EFA40F20551322003F061
:103EA00039FA40F20711352003F034FA08213620A0
:103EB00003F030FA0021372003F02CFA40F20221FF
:103EC000382003F027FA4FF48371392003F022FAE7
:103ED00040F202213C2003F01DFA4FF481613D20A5
:103EE00003F018FA3220FFF778FB0021502003F08E
:103EF00011FAEF21512003F00DFA0021522003F0B6
:103F000009FA40F23F11532003F004FA4FF427411D
:103F1000602003F0FFF90121612003F0FBF9332158
:103F2000902003F0F7F90B212B2003F0F3F940F276
:103F30003311072003F0EEF93220FFF74EFB4CF26D
:103F4000503401E0601E84B2002CFBDC4FF478405A
:103F5000FFF71FFB70BD2DE9F04704460D461646DE
:103F60001F46DDF820804FF0000A26E005EB0A002E
:103F700081B2204603F06AF94FF480708A494861A3
:103F8000222003F0B1F94FF40070874908614FF027
:103F900000090BE04046FFF7ECFA4FF480608249DD
:103FA0004861086109F101001FFA80F9301B48459A
:103FB000F0DC0AF101001FFA80FA781B5045D5DCCD
:103FC0004FF4807078490861BDE8F08730B501464C
:103FD00001F01F04C1F34513CA0AE50205EB4315BE
:103FE0001544A8B230BD70B504460D46294620469A
:103FF00003F02CF94FF480706B494861222003F0E4
:1040000073F94FF400606849486103F0F5F806461B
:104010004FF4006064490861486103F0EDF806461A
:104020004FF4006060490861C01008615D48008875
:10403000A0F5EE41833909D05A480088A0F58A419D
:10404000313903D03046FFF7C1FF0646304670BD18
:1040500070B504460D461646B4F5A07F01DCF02D80
:1040600000DD70BD2946204603F0F0F84FF4807063
:104070004D494861222003F037F94FF400704A4956
:1040800008613046FFF775FA4FF480604649486191
:10409000086180100861E4E72DE9F04704460D4609
:1040A00016469846089F434632462946204603F066
:1040B000FFF82946204603F0C9F84FF480703A49CA
:1040C0004861222003F010F94FF40070364908616E
:1040D0004FF000090CE037F8020BFFF74AFA4FF4F3
:1040E000806031494861086109F101001FFA80F9D7
:1040F00006FB08F04845EEDC4FF480702A49086161
:10410000BDE8F08770B504460025002640F23F1355
:10411000EF220021084603F0CBF80021084603F007
:1041200095F841F21801032003F0F4F84FF4807081
:104130001D494861222003F0D7F84FF400701A4956
:10414000086100BF17E0002612E0615D0120B04069
:10415000014203D11F20FFF70CFA03E04FF6E07095
:10416000FFF707FA4FF480600F4948610861761C39
:10417000082EEAD36D1CB5F5165FE4D34FF48070BA
:104180000949086170BD2DE9F05F04460D461646E9
:104190001F46DDF828804FF00009CA46CB4600BF15
:1041A00033E000006A00002000100140A6F120006A
:1041B00009EB0010FC4911F800B04FF0000A1DE0B7
:1041C000CAF107004BFA00F010F0010F09D005EB1F
:1041D000090291B204EB0A0290B23A46FFF738FFA7
:1041E00008E005EB090291B204EB0A0290B24246E4
:1041F000FFF72EFF0AF101001FFA80FABAF1080F4B
:10420000DEDB09F101001FFA80F9B9F1100FCDDBF7
:10421000BDE8F09F2DE9F84304460D4616461F46BB
:10422000DDF820804FF000090FE0CDF8008016F88F
:10423000012B082101FB094188B23B462946FFF7C3
:10424000A2FF09F1010000F0FF0930780028ECD14D
:10425000BDE8F8832DE9F84304460D4616461F468F
:10426000DDF820804FF000090FE0CDF8008016F84F
:10427000012B082101FB094188B23B462946FFF783
:1042800082FF09F1010000F0FF0930780028ECD12D
:10429000BDE8F8832DE9F0410021084602F0D6FF81
:1042A0000021502003F036F8EF21512003F032F8BE
:1042B0000021522003F02EF840F23F11532003F06A
:1042C00029F84FF48070B9494861222003F00CF8B6
:1042D0004FF40070B54908610024002500264FF016
:1042E00000081AE0002712E03846F91707EB517171
:1042F000CC10E10241EA4511314388B2FFF739F9A8
:104300004FF48060A94948610861781CC7B2F02F5A
:10431000EADB08F1010000F0FF08B8F1320FE1DB41
:104320001F243F251F264FF0000824E000271CE033
:104330003846F91707EB91718910C1F13F01CDB2F1
:10434000F91707EB5171C910C1F11F01CEB2E1029B
:1043500041EA4511314388B2FFF70BF94FF4806011
:10436000924948610861781CC7B2F02FE0DB08F180
:10437000010000F0FF08B8F1320FD7DB0024002560
:104380000026A0461AE0002712E03846F91707EB8E
:1043900091718D10E10241EA4511314388B2FFF776
:1043A000E8F84FF48060814948610861781CC7B221
:1043B000F02FEADB08F1010000F0FF08B8F1320F3E
:1043C000E1DB1F243F251F264FF0000824E00027D3
:1043D0001CE03846F91707EB5171C910C1F11F01F4
:1043E000CCB2F91707EB5171C910C1F11F01CEB260
:1043F000E10241EA4511314388B2FFF7BAF84FF4C0
:1044000080606A4948610861781CC7B2F02FE0DB20
:1044100008F1010000F0FF08B8F1320FD7DB0024EB
:1044200000250026A0461AE0002712E03846F917BA
:1044300007EB5171CE10E10241EA4511314388B2D8
:10444000FFF797F84FF48060584948610861781C7D
:10445000C7B2F02FEADB08F1010000F0FF08B8F165
:104460003C0FE1DB00261F243F251F264FF00008EC
:1044700024E000271CE03846F91707EB91718910FA
:10448000C1F13F01CDB2F91707EB5171C910C1F16C
:104490001F01CCB2E10241EA4511314388B2FFF776
:1044A00068F84FF48060414948610861781CC7B2E0
:1044B000F02FE0DB08F1010000F0FF08B8F13C0F3D
:1044C000D7DB4FF4807039490861BDE8F0810128DD
:1044D00004DB4FF40051354A116103E04FF4005101
:1044E000324A5161704770B5044634B1012C07D08F
:1044F000022C08D0032C0CD108E041F230050BE06F
:1045000041F2100508E041F2180505E041F2080506
:1045100002E04FF4987500BF00BF2946032002F067
:10452000F9FE234804700021084602F08FFE70BD9A
:104530001F48007870471E48007858B101280AD0FB
:10454000022802D0032804D100E000BF4FF4A0707D
:10455000704700BF00BFF020FAE71548007850B15F
:10456000012809D0022802D0032803D100E000BFAF
:10457000F020704700BF00BF4FF4A070F9E700B50E
:104580004FF480700949486140004861800008612B
:104590002220FEF7EEFF4FF4806004494861086175
:1045A0004010086100BD0000667300080010014063
:1045B0006800002000B503461846FEF7DAFF4FF406
:1045C000806039494861086100BD2DE9F041044629
:1045D0000D461646984600272946204602F036FE2C
:1045E000B8F1000F13D14FF480702F494861222099
:1045F00002F07AFE4FF400702B49086100BF03E01F
:104600000020FEF7B6FF7F1CB742F9D30DE000276C
:1046100009E00020FEF7ADFF681C85B22946204660
:1046200002F014FE7F1CB742F3D34FF480701E4992
:104630000861BDE8F0812DE9F04104460D461746BA
:104640001E460023324629462046FFF7BEFF0123BF
:104650003A4629462046FFF7B8FFA119491E88B2FD
:1046600001233A462946FFF7B0FFE819401E81B200
:10467000002332462046FFF7A8FFBDE8F0812DE970
:10468000F04104460D46164698462F4606E00023A4
:104690004246B9B22046FFF798FF7F1CA819B842DE
:1046A000F5DCBDE8F0810000001001401FB50121DC
:1046B000042000F063FE0121092000F052FE80205A
:1046C000ADF80C0018208DF80F0003208DF80E00B7
:1046D00003A92A4800F09EFB4FF4AF70ADF8040028
:1046E0000020ADF80000ADF80600ADF80200694604
:1046F000234801F0F9F86020224908800120488011
:1047000000200881012048808020C8801C4801F0DA
:104710006AF908211A4801F0C6FC0121184801F085
:104720008AFC0121164801F08DFB1FBD10B504461F
:104730001448C4800146124801F055F910BD38B53F
:1047400004466CB18020ADF8000018208DF80300FD
:1047500003208DF802006946084800F05BFB0CE07E
:104760008020ADF8000028208DF8030003208DF88C
:1047700002006946014800F04DFB38BD000C0140C5
:10478000000800409014002000B587B0A020ADF8CC
:10479000180003208DF81A0018208DF81B0006A9B8
:1047A000354800F037FB4020ADF8180048208DF860
:1047B0001B0006A9304800F02DFB4020ADF8180082
:1047C00003208DF81A0010208DF81B0006A92B4835
:1047D00000F020FB1020ADF8180048208DF81B00D9
:1047E00006A9254800F016FB1021234800F0BCFB69
:1047F0000121082000F0B5FD0121080300F0B1FD02
:104800000020ADF804004FF48270ADF806000020DF
:10481000ADF80800ADF80A00ADF80C004FF40070D8
:10482000ADF80E003820ADF810000020ADF81200F1
:104830000720ADF8140001A9114800F021FE002165
:104840000F4800F021FF01210D4800F0B9FE07B02C
:1048500000BD10B504462146094800F0E7FE00BF40
:104860000121074800F035FF0028F9D0044800F086
:10487000DFFEC0B210BD000000080140000C014086
:104880000030014008B50320ADF8000010208DF87D
:10489000030003208DF802006946024800F0BAFACE
:1048A00008BD0000000801401FB54FF48470ADF84A
:1048B0000C0004208DF80F0003A9194800F0AAFA93
:1048C0000B21002000F0B7FB4FF484700190002012
:1048D0008DF808000C208DF8090001208DF80A00E1
:1048E00001A800F0A8F909208DF800000E208DF82D
:1048F00001008DF8020001208DF80300684600F0E9
:1049000014F917208DF800000F208DF801008DF8A4
:10491000020001208DF80300684600F006F91FBD73
:104920000008014000200021654A126842F48032EC
:10493000634B1A6000BF624A126802F40031401CE7
:1049400011B9B0F5A06FF6D15D4A126812F4003FBC
:1049500001D0012100E00021012942D1594A126809
:1049600042F01002574B1A601A46126822F00302F6
:104970001A601A46126842F002021A60504A5268DF
:104980004F4B5A601A4652685A601A46526842F4AF
:1049900080625A601A46526822F47C125A601A46A3
:1049A000526842F4E8125A601A46126842F0807265
:1049B0001A6000BF424A126812F0007FFAD0404AE3
:1049C000526822F003023E4B5A601A46526842F087
:1049D00002025A6000BF3A4A526802F00C02082AEA
:1049E000F9D1704710B5FFF79DFF10BD10B53448E1
:1049F000006840F0010032490860084640683249CA
:104A000008402F49486008460068304908402C4952
:104A100008600846006820F4802008600846406866
:104A200020F4FE0048604FF41F008860FFF7DAFFB3
:104A300010BD10B5002000210022214B5B6803F05F
:104A40000C0020B1042806D0082828D107E0204B0C
:104A5000204C236027E01E4B1E4C236023E0184BA4
:104A60005B6803F47011164B5B6803F48032022319
:104A700003EB914122B9184B4B43164C23600DE0D8
:104A80000F4B5B6813F4003F04D0134B4B43114CA6
:104A9000236003E00E4B4B430E4C236003E00C4BB2
:104AA0000C4C236000BF00BF054B5B68C3F30313CE
:104AB0000A4CE05C074B1B68C340064C236010BDEA
:104AC00000100240002002400000FFF8FFFFF6FE49
:104AD00000127A006C00002000093D0070000020E8
:104AE0000948804709480047FEE7FEE7FEE7FEE782
:104AF000FEE7FEE7FEE7FEE7FEE7FEE704480549BE
:104B0000054A064B70470000ED490008ED0000081B
:104B100000150020001B00200017002000170020B7
:104B200036490143364A1160704770B500210023B1
:104B30000F22C4784CB3324C246804F4E064C4F50A
:104B4000E0644FEA1421C1F1040322FA01F244782F
:104B500004FA03F1847804EA020444EA01014FEA0A
:104B60000111284C0678A155047804F01F054FF078
:104B7000010404FA05F405784FEA65154FF0E026C4
:104B800006EB8505C5F8004109E0047804F01F0430
:104B90000125A5401C4C0678761144F8265070BDBE
:104BA0001A4A0A4002431A4B1A60704741B1194A27
:104BB000126842EA00024FF0E023C3F8102D07E02C
:104BC000144A126822EA00024FF0E023C3F8102DC5
:104BD0007047042808D14FF0E021096941F0040131
:104BE0004FF0E022116107E04FF0E021096921F068
:104BF00004014FF0E0221161704700000000FA0547
:104C00000CED00E000E400E080E100E080FFFF1F29
:104C100008ED00E010ED00E000204749086047493A
:104C2000C1F804044649086001F1040108604548E0
:104C300045490860704700213F498279002A43D0E6
:104C40003E4AD2F8002403689A433C4BC3F8002440
:104C50001A46D2F8042403689A4301F104031A6047
:104C6000027911440A68036842EA03020A60334A7F
:104C7000D2F80824036822EA0302304BC3F8082460
:104C80001A46D2F80C24036822EA03022F4B1A605A
:104C90004279102A10D1294AD2F8082403681A430D
:104CA000264BC3F808241A46D2F80C2403681A438A
:104CB000224BC3F80C240DE01F49427911440A68C5
:104CC00003681A430A6005E0027911440A68036820
:104CD0009A430A6070470021016001710C21417103
:104CE0000021817170471A49096841EA0001134A9D
:104CF000C2F81014704701460020134A12680A4295
:104D000001D0012000E0002070470F490860704783
:104D1000014600200022084B1B6803EA0102074BF2
:104D2000D3F814340B4202D00AB1012000E0002075
:104D300070470549086070470004014000000140C9
:104D400008040140FFFF0F00140401400C0401405F
:104D50001004014010B50446C748844208D101211F
:104D6000042000F018FB0021042000F014FB46E0B2
:104D7000C248844208D10121082000F00CFB002128
:104D8000082000F008FB3AE0BD48844208D1012128
:104D9000102000F000FB0021102000F0FCFA2EE0B3
:104DA000B848844208D10121202000F0F4FA002103
:104DB000202000F0F0FA22E0B348844208D101211B
:104DC000402000F0E8FA0021402000F0E4FA16E06C
:104DD000AE48844208D10121802000F0DCFA002195
:104DE000802000F0D8FA0AE0A948844207D10121C6
:104DF000801500F0D0FA0021A01500F0CCFA10BD0B
:104E000010B50121084600F0C6FA0021012000F08B
:104E1000C2FA10BD2DE9F041002200230024002534
:104E20000026002791F803C00CF00F0291F803C090
:104E30001CF0100F03D091F802C04CEA0202B1F846
:104E400000C01CF0FF0F31D0066800242BE04FF0AB
:104E5000010C0CFA04F5B1F800C00CEA0503AB42F2
:104E600020D1A5004FF00F0C0CFA05F7BE4302FA53
:104E700005FC4CEA060691F803C0BCF1280F06D1E8
:104E80004FF0010C0CFA04FCC0F814C00AE091F8D1
:104E900003C0BCF1480F05D14FF0010C0CFA04FC23
:104EA000C0F810C0641C082CD1D30660B1F800C053
:104EB000BCF1FF0F34DD466800242EE004F1080C3D
:104EC0004FF0010808FA0CF5B1F800C00CEA050330
:104ED000AB4221D1A5004FF00F0C0CFA05F7BE43F1
:104EE00002FA05FC4CEA060691F803C0BCF1280F53
:104EF00005D104F1080C08FA0CF8C0F8148091F8F8
:104F000003C0BCF1480F07D104F1080C4FF00108B1
:104F100008FA0CF8C0F81080641C082CCED3466048
:104F2000BDE8F0814FF6FF710180022181700421FC
:104F3000C17070470246002093680B4201D00120E7
:104F400000E0002070470146886880B27047024642
:104F50000020D3680B4201D0012000E00020704700
:104F60000146C86880B2704701617047416170476F
:104F70000AB1016100E041617047C16070474FF4C0
:104F800080320A43826181618261826982697047ED
:104F90000022404B1A684FF680731A4042EA001212
:104FA0000A433C4B1A6070473B49C8617047F0B5F3
:104FB000002200230024002500F00046B6F1004F37
:104FC00002D1344EF46901E0324E7468C0F30345F7
:104FD00082B200F44016B6F5401F08D124F0706488
:104FE0002C4E766826F070662A4F7E6012E000F440
:104FF0008016B6F5801F06D1032606FA05F39C43FA
:1050000044F0706406E0460D360102FA06F6B44339
:1050100044F0706421B1460D360102FA06F63443BD
:1050200000F00046B6F1004F02D11A4EF46101E0E3
:10503000184E7460F0BD30B500228B071C0F0F2393
:1050400003FA04F2134B08338C1053F824409443B2
:105050008D1043F825408C1053F824308C07240F12
:1050600000FA04F423430B4C08348D1044F8253027
:1050700030BD0A490860704700080140000C01403B
:10508000001001400014014000180140001C0140C4
:10509000002001400000014000002042DC002042CE
:1050A000D848006840F00100D649086008464068CA
:1050B000D5490840D349486008460068D3490840AC
:1050C000D04908600846006820F48020086008463F
:1050D000406820F4FE0048604FF41F00886070476D
:1050E000C849096821F48031C64A1160114609682F
:1050F00021F480211160B0F5803F03D0B0F5802FFE
:105100000ED106E0BF49096841F48031BD4A116003
:1051100007E0BC49096841F4A021BA4A116000E0E7
:1051200000BF00BF704710B50146002200230020D9
:105130004A11012A02D1B34C236806E0022A02D1A7
:10514000B04C236A01E0AF4C636A01F01F020124F6
:1051500094401C4201D0012000E0002010BD70B539
:1051600000240025002600BF3120FFF7DCFF0646A3
:10517000641CB4F5A06F01D0002EF5D03120FFF7EC
:10518000D2FF08B1012500E00025284670BD0021AE
:105190009C4A116821F0F80141EAC0011160704792
:1051A0009B49086070470022964B5A6822F47C1293
:1051B00040EA01031A43934B5A60704794490866CA
:1051C000704700218F4A516821F00301014351606B
:1051D00070478C48406800F00C0070470021894AF5
:1051E000516821F0F0010143516070470021854A68
:1051F000516821F4E0610143516070470021814A08
:10520000516821F4605141EAC0015160704729B1F1
:105210007C4A527A02437B4B5A7206E0794A527AB0
:10522000C343DBB21A40774B5A7270477949086022
:1052300070470021734A516821F440410143516095
:1052400070470021744A11706E4A82F820100128BC
:1052500002D0042808D103E001216F4A117004E054
:1052600005216D4A117000E000BF00BF70476B4917
:10527000086070476349096A0143624A11627047D6
:1052800067490860704730B50021002200230024E0
:105290005C4D6D6805F00C0121B1042905D0082989
:1052A00023D105E05F4D056022E05E4D05601FE003
:1052B000544D6D6805F47012524D6D6805F48033DD
:1052C000022505EB92421BB9574D554305600BE093
:1052D0004C4D6D6815F4003F03D0534D55430560A8
:1052E00002E0504D5543056002E04E4D056000BFA1
:1052F00000BF444D6D6805F0F00109094B4D6C5C31
:105300000568E54045603F4D6D6805F4E061090AB8
:10531000464D6C5C4568E54085603A4D6D6805F426
:105320006051C90A414D6C5C4568E540C560354D2A
:105330006D6805F44041890B3C4D10356C5CC568C7
:10534000B5FBF4F5056130BD29B12E4A526902431F
:105350002C4B5A6104E02B4A52698243294B5A6113
:10536000704729B1274A92690243264B9A6104E0AB
:10537000244A92698243234B9A61704729B1214A9A
:10538000D26902431F4BDA6104E01E4AD2698243AC
:105390001C4BDA61704729B11A4AD2680243194B93
:1053A000DA6004E0174AD2688243164BDA6070472D
:1053B00029B1144A12690243124B1A6104E0114ADE
:1053C000126982430F4B1A61704719490860704790
:1053D0000F49C86470470B49C87170470948406A53
:1053E00040F0807007494862704701460020054A36
:1053F00092680A4201D0012000E000207047014974
:1054000088727047001002400000FFF8FFFFF6FEB0
:1054100000004242D8004242201002408004424232
:105420003C04424200127A0000093D008000002046
:105430004004424210B50446BE48844208D10121CE
:105440008014FFF7A8FF0021A014FFF7A4FF16E0C7
:10545000B948844208D101210014FFF7A9FF0021B7
:105460002014FFF7A5FF0AE0B448844207D10121C8
:10547000C013FFF79DFF0021E013FFF799FF10BD58
:1054800010B50022028802F441520B884C88234355
:105490008C882343CC8823430C8923434C892343A2
:1054A0008C892343CC8923431A430280838B4FF298
:1054B000FF74234083830B8A038210BD2DE9F04FD4
:1054C00085B004460D4600260227B0464FF001097C
:1054D000B246B346A08B4FF240010840A0830220A1
:1054E0002084A68BA868022801D100BF38E0A888D4
:1054F00010B94FF0010901E04FF002098E488442D3
:1055000000D100E000BF6846FFF7BDFEDDF800B047
:10551000E888B0F5007F0BD14FEA1B2000EB80003C
:105520004000A968B0FBF1F0401D1FFA80FA0CE0C2
:105530004FEA4910BBFBF0F000EB80004000A96887
:10554000B0FBF1F0401D1FFA80FA0A20BAFBF0FA16
:105550000AF00108AAEB0800C0F34F074FEA082839
:10556000022F01DBFF2F02DD02274FF00008E88841
:1055700040EA080038432084A888A989084369883C
:1055800008432988084340F400600643A68305B019
:10559000BDE8F08F0021018041808180C1800181C0
:1055A00041818181C18107210182704700210180F1
:1055B00041808180C180022181600021818170470A
:1055C00021B1028842F04002028004E002884FF6D6
:1055D000BF731A400280704721B1828B42F480620F
:1055E000828304E0828B4FF6FF331A408283704738
:1055F00070B5002300240B1101259D40ACB21AB1F7
:1056000085882543858004E08588E643B6B2354029
:10561000858070BD10B51AB183880B43838004E088
:105620008388CC43A4B22340838010BD818170471E
:10563000014688897047A1F57E42FF3A04D002886E
:1056400042F48072028004E002884FF6FF631A4041
:105650000280704721B1828842F00402828004E017
:1056600082884FF6FB731A408280704702884FF29F
:10567000FF731A40028002880A4302807047018843
:1056800041F480510180704721B1028842F40052F8
:10569000028004E002884DF6FF731A4002807047D2
:1056A00002460020012901D0108B00E0908A70474B
:1056B0000146088A7047B1F5804F04D1028842F450
:1056C0008042028004E002884BF6FF731A40028099
:1056D00070470246002013890B4201D0012000E0F0
:1056E00000207047CA4302817047F0B5024600208F
:1056F00000230024002501F00F070126BE40B3B2AD
:105700000C110126A640B4B2968806EA0405168953
:105710001E4202D00DB1012000E00020F0BD10B506
:10572000002201F00F040123A3409AB2D343038166
:1057300010BD00000030014000380040003C004037
:1057400010B50446FF48844208D10121C014FFF778
:1057500022FE0021E014FFF71EFEC4E0B4F1804FEA
:1057600008D101210846FFF723FE00210120FFF7A1
:105770001FFEB8E0F448844208D101210220FFF75F
:1057800017FE00210220FFF713FEACE0EF48844231
:1057900008D101210420FFF70BFE00210420FFF7B0
:1057A00007FEA0E0EA48844208D101210820FFF763
:1057B000FFFD00210820FFF7FBFD94E0E54884424F
:1057C00008D101211020FFF7F3FD00211020FFF781
:1057D000EFFD88E0E048844208D101212020FFF756
:1057E000E7FD00212020FFF7E3FD7CE0DB48844259
:1057F00008D101214014FFF7CEFD00216014FFF70E
:10580000CAFD70E0D648844209D10121C804FFF7DF
:10581000C2FD00214FF40020FFF7BDFD63E0D14839
:10582000844209D101210805FFF7B5FD00214FF49D
:105830008010FFF7B0FD56E0CB48844209D101212A
:105840004805FFF7A8FD00214FF40010FFF7A3FD66
:1058500049E0C648844208D101214020FFF7A8FD55
:1058600000214020FFF7A4FD3DE0C148844208D15B
:1058700001218020FFF79CFD00218020FFF798FD8B
:1058800031E0BC48844208D101218015FFF790FD2A
:105890000021A015FFF78CFD25E0B748844209D10F
:1058A00001210804FFF777FD00214FF48030FFF756
:1058B00072FD18E0B148844209D101214804FFF784
:1058C0006AFD00214FF40030FFF765FD0BE0AC48A6
:1058D000844208D101218804FFF75DFD00214FF4C7
:1058E0008020FFF758FD10BD00220288954B98429A
:1058F0000ED09A4B98420BD0B0F1804F08D0924B0B
:10590000984205D0914B984202D0914B984204D1D5
:105910004FF68F731A404B881A438E4B984207D02C
:105920008D4B984204D04FF6FF431A40CB881A4360
:1059300002808B8883850B880385824B98420BD02D
:10594000864B984208D08C4B984205D08B4B98429E
:1059500002D08B4B984201D10B7A038601238382BC
:10596000704770B5002200230024058C4FF6FE76A8
:1059700035400584038C8488028B4FF68F752A404E
:10598000B51E2A400D882A43751E2B400D892B43D6
:105990004D882B436B4DA8420BD0704DA84208D0C8
:1059A000754DA84205D0754DA84202D0744DA8424D
:1059B00013D14FF6F7752B404D892B434FF6FB75EE
:1059C0002B408D882B434FF6FF652C404FF6FF553B
:1059D0002C408D892C43CD892C4384800283CD8833
:1059E0008586038470BD70B5002200230024058CD9
:1059F0004FF6EF7635400584038C8488028B48F699
:105A0000FF752A404FF6FF452A400D882D0642EAD1
:105A100015424FF6DF752B400D892D0543EA1543DE
:105A20004D882D0543EA1543464DA84202D04B4D03
:105A3000A8421BD14FF67F752B404D892D0543EAB7
:105A400015434FF6BF752B408D882D0543EA15434E
:105A50004FF6FF352C404FF2FF752C408D89AD0479
:105A600044EA1544CD89AD0444EA15448480028398
:105A7000CD880587038470BD70B500220023002403
:105A8000058C4FF6FF6635400584038C8488828B35
:105A90004FF68F752A404FF6FC752A400D882A4331
:105AA0004FF6FF552B400D892D0643EA15434D88CF
:105AB0002D0643EA1543234DA84202D0274DA842A4
:105AC0001BD14FF2FF752B404D892D0643EA15433C
:105AD0004FF6FF352B408D882D0643EA15434EF6D1
