:020000040800F2
:10000000200900206D280008510200085302000852
:10001000570200085B0200085F02000800000000B1
:100020000000000000000000000000006302000863
:10003000650200080000000067020008690200086D
:1000400087280008872800088728000887280008D4
:1000500087280008872800088728000887280008C4
:1000600087280008872800088728000887280008B4
:1000700087280008872800088728000887280008A4
:100080008728000887280008872800088728000894
:100090008728000887280008872800088728000884
:1000A0008728000887280008872800088728000874
:1000B000730600088728000887280008872800089A
:1000C0008728000887280008872800088728000854
:1000D0008728000887280008872800088728000844
:1000E00087280008872800088728000800F002F801
:1000F00000F041F80AA090E8000C82448344AAF181
:100100000107DA4501D100F036F8AFF2090EBAE87E
:100110000F0013F0010F18BFFB1A43F0010318473B
:10012000584A0000784A0000103A24BF78C878C1C5
:10013000FAD8520724BF30C830C144BF04680C60ED
:10014000704700000023002400250026103A28BF35
:1001500078C1FBD8520728BF30C148BF0B60704739
:10016000642903F08587002070471FB504F0FCF96F
:100170001FBD10B510BD04F006F91146FFF7F5FFDD
:1001800000F00EF804F024F903B4FFF7F2FF03BC0B
:1001900004F02EF91F4800BF411E0800FCD1704733
:1001A00008B500F086FA01F08BF932E0FFF7F2FFB4
:1001B000194800F064FD00B12BE027E017A11848B2
:1001C00000F021FF00B122E015E016A1174804F06D
:1001D00045F880B14FF4784001F02FF94FF478439F
:1001E00000934FF6E07312A214211E2001F026FFA7
:1001F0000E4800F02DF90D490939094800F032FF89
:1002000020B90A480938407A0028DED1D6E700BF75
:1002100000BFCBE7FFFF7F0044000020000000008C
:10022000740000202E57415600000000910000206D
:100230004D696E692D53544D333220574156452038
:10024000417564696F20506C61796572000000002F
:10025000704700BFFEE700BFFEE700BFFEE700BF3C
:10026000FEE7704770477047704700002DE9F04384
:1002700087B0CC4A0C21CC4800F0BDFD18B101205C
:1002800007B0BDE8F083C74800880C2804D1C648F1
:100290008068C649884201D00020F1E74FF47843D6
:1002A00000934FF6E073C2A23221142001F0C6FE83
:1002B000CDE0BC4A0821BC4800F09DFDB94800884B
:1002C000082801D00020DBE7B74804684668BC482E
:1002D000201809D0BB4940187ED0BB4940187CD0BB
:1002E000BA4940187AD1A9E0642E01D8102E01D263
:1002F0000020C5E7AB4AB1B2AB4800F07CFDA9488D
:100300000088B04201D00020BAE7A7480078012851
:1003100001D00020B4E7A4488078AD4908800846A1
:100320000088012805D008460088022801D0002056
:10033000A6E7A748008801280AD14FF47843009324
:100340004FF6E073A3A25521322001F077FE0DE0B5
:100350009F480088022809D14FF4784300934FF654
:10036000E0739EA25521322001F068FE8E48807B0A
:100370009C49088008460088082805D0084600885F
:10038000102801D000207BE79648008808280AD171
:100390004FF4784300934FF6E07393A255216E20FB
:1003A00001F04CFE0DE08F480088102809D14FF471
:1003B000784300934FF6E0738DA255216E2001F033
:1003C0003DFE79484568284600F07EF92A468AA114
:1003D00002A803F011FE02E02FE00BE034E04FF43E
:1003E000784300934FF6E07302AA5521AA2001F04A
:1003F00025FE2BE07649098805FB01F0794909883B
:10040000C9104843B6FBF0F73C20B7FBF0F100FB06
:100410001178B7FBF0F943464A4679A102A803F0E8
:10042000EBFD4FF4784300934FF6E07302AA64218A
:10043000084601F003FE304622E700BF7449C9694F
:10044000881900F067FD01E0002019E700BF30E7E0
:10045000F8B50546284600F09EFC002870D14FF400
:10046000784300934FF6E0732A464621084601F090
:10047000E5FDFFF7FBFE0446FF2C01D82046F8BD42
:10048000012002F0F0F852480088022821D1554896
:10049000008810281DD100BF424A4FF480714248A5
:1004A00000F0A9FC00260CE0012000EB86003E498C
:1004B0000F5C17F0800F00D00027F8B200F010F9A1
:1004C000761C402EF0D337480088B0F5807FE3D00B
:1004D00062E03F480088012821D142480088102866
:1004E0001DD100BF2F4A4FF480712F4800F083FCCC
:1004F00000260CE0012000EB46002B490F5C17F0B2
:10050000800F00D00027F8B200F0EAF8761C802EA9
:10051000F0D324480088B0F5807FE3D03CE02C483D
:10052000008802281BD12F480088082817D100BF57
:100530001C4A4FF480711C4800F05DFC002606E068
:100540002DE0194911F8160000F0CAF8761C802E2B
:10055000F7D314480088B0F5807FE9D01CE01C4830
:100560000088012818D11F480088082814D100BF2E
:100570000C4A4FF480710C4800F03DFC002604E06A
:100580000949885D00F0ACF8761CFF2EF8D90548C3
:100590000088B0F5807FEBD0002002F064F80020E6
:1005A0006DE7000004000020A000002057415645E0
:1005B0005741562046696C6520666F756E643A0037
:1005C0009A928BDF1A2421CCE8E7DEF2FEFF10EDD1
:1005D000000000204D6F6E6F0000000053746572C4
:1005E000656F000002000020382D626974730000FE
:1005F00031362D6269747300256C64487A000000FE
:10060000256C643A25326C64206D696E0000000030
:100610004400002038B50121084602F0D7FC4FF015
:10062000804002F0B5FE3C4803F00FFA42F2283455
:1006300039488480002038490880C8804880E00616
:1006400002F07AFF0121880703F01DFB1C208DF8C2
:10065000000000208DF802008DF8010001208DF8C7
:100660000300684602F027F90121880703F012FA17
:1006700038BD10B529492A4A1268885C01F0EAFFA2
:1006800027480068401C2649086008460068C0B238
:1006900008600846006823490968884204D100229E
:1006A0000121880703F011FA0121880703F0A0FC5B
:1006B00010BD10B501F08EFFFFF7ACFF0020184908
:1006C00008601849086010BD10B504461648B0FB14
:1006D000F4F0114988804FF0804002F02DFF10BDEA
:1006E00010B5044600BF0F480068401CC0B20C495A
:1006F00009688842F7D009480A49096844540948FA
:100700000068401CC0B207490860012211469007EA
:1007100003F0DBF910BD0000A0020020A0010020C2
:100720000C0000200800002000A24A0430B5034657
:1007300001E003F8011B1400A2F10102F9D130BD60
:10074000F0B5044625460B46002000BF1600A2F176
:10075000010207D015F8017B13F801CBA7EB0C06BB
:100760003000F3D0F0BD2DE9F8430446F948D0F845
:100770000080022C03D3D8F80C00A04202D801203C
:10078000BDE8F88398F80000012804D0022844D07E
:10079000032873D159E0A6B206EBD671304606EBBA
:1007A00061018EB23046F11706EBD1514912A6EB2A
:1007B00041218FB2F11706EBD1514E12A7F580708F
:1007C000FF3809D0D8F81000811902233A4668464C
:1007D00000F09EFDB8B151E0D8F810008119012356
:1007E00040F2FF12684600F093FD00B146E0D8F8F1
:1007F00010003044411C012300220DF1010000F0E3
:1008000087FD00B13AE0BDF8005014F0010F01D0AF
:100810002811B5E7C5F30B00B2E71FFA84F94FEAD8
:10082000E97009EB10600012A9EB00204004020CF3
:10083000D8F8100000EB14210223684600F068FD90
:1008400000B11BE0BDF800009AE71FFA84F94FEAF7
:10085000E97009EB5060C011A9EBC0108004020CD4
:10086000D8F8100000EBD4110423684600F050FDC6
:1008700000B103E0009820F0704081E700BF012044
:100880007EE70146B3480268891ED068801E884210
:1008900001D8002070475378906901FB0300F9E705
:1008A00070B50446AB48066800202080A568012D7D
:1008B00002D0F068A84201D8012070BD1DB930787F
:1008C000032800D17569E5601DB12846FFF7D9FFFF
:1008D00000E0706920610020EFE72DE9F041044657
:1008E0009C4807682088401C86B20EB1206910B968
:1008F0000320BDE8F08116F00F0F23D12069401CC2
:100900002061E06820B9B888B0421BDC0320F0E722
:10091000F11706EB11717A78521E12EA211F11D1DC
:10092000E068FFF720FF0546012D01D80120E0E730
:10093000F868A84201D80320DBE7E5602846FFF706
:10094000A0FF206126800020D3E72DE9F041054675
:100950002846FFF7A5FF064616B13046BDE8F081F0
:100960007C480068876800BFB5F800804FEAE870EF
:1009700008EB10700011A8EB00104005020C2023BA
:100980003846296900F0C4FC08B1012000E00020CD
:10099000C6B206B114E03C780CB9032610E0F87A30
:1009A00010F0080F06D10B2238466968FFF7C8FE21
:1009B00000B905E02846FFF790FF0646002ED3D089
:1009C00000BF3046CAE72DE9F047044603256148D9
:1009D0000068D0F808802DE0B4F800904FEAE97084
:1009E00009EB10700011A9EB00104005020C202348
:1009F0004046216900F08CFC08B1012000E0002095
:100A0000C5B205B119E098F800700FB9032514E0DC
:100A100098F80B0000F03F06E52F05D02E2F03D0ED
:100A200016F0080F00D108E02046FFF756FF0546F4
:100A300005B102E020690028CED100BF0DB1002031
:100A400020612846BDE8F0872DE9F35F0C46009849
:100A5000D0F804A00B2220215046FFF767FE0020AB
:100A6000814680460827D4F800B000BF4046411CAC
:100A700001F0FF081BF80050202D01DD2F2D00D1C3
:100A800038E02E2D01D0B94508DB082F01D12E2DDD
:100A900000D02FE04FF008090B27E7E7812D01DB9D
:100AA0009F2D03DDE02D17DBFC2D15DC781E48455E
:100AB00012DC4046411C01F0FF081BF8006048466C
:100AC000411C01F0FF090AF800504846411C01F0A2
:100AD000FF090AF800600CE0612D04DB7A2D02DCCE
:100AE000A5F12000C5B24846411C01F0FF090AF8F3
:100AF0000050BBE700BF0BEB08002060202D01DC9D
:100B0000012000E000208AF80B000020BDE8FC9FD7
:100B100070B501F109050669002E30D00D4E36681A
:100B2000B46800220AE0A35C202B00D108E0052B6A
:100B300000D1E52305F8013B561CF2B2082AF2DB8E
:100B400000BF267A202E12D02E2605F8016B08222F
:100B50000AE0000010000020A35C202B00D105E07B
:100B600005F8013B561CF2B20B2AF5DB00BFE67A12
:100B70000E72E6690E60268B8E80E68ACE80002695
:100B80002E7070BD73B5044602E00198401C0190C0
:100B9000019800782028F8D0019800782F2802D1F9
:100BA0000198401C01900020A06001980078202846
:100BB00009DC2046FFF774FE05460020FB49096862
:100BC0008968087027E000BF01A92046FFF73CFFB5
:100BD000054605B11EE02046FFF7B7FE054635B1D4
:100BE000032D03D16068C07A00B9042512E0606863
:100BF000C07A00B10EE0ED4800688668F07A10F027
:100C0000100F01D1042505E0708BB18A40EA014044
:100C1000A060D9E700BF28467CBD70B504460D46EC
:100C200002234FF4FF722946204600F071FB08B101
:100C3000032070BD2088A0F52A41553901D002203B
:100C4000F7E7022336222946204600F061FB30B93F
:100C50002088A0F58241463901D10020E9E702232E
:100C600052222946204600F053FB30B92088A0F5D7
:100C70008241463901D10020DBE70120D9E72DE987
:100C8000F04389B004460020C849086014B909B08F
:100C9000BDE8F08300F0A6FA10F0010F01D00220A9
:100CA000F5E7002631466846FFF7B7FF0546012DF8
:100CB00012D110234FF4DF723146684600F028FB52
:100CC00008B1032508E09DF8040028B1029E3146D2
:100CD0006846FFF7A2FF0546032D01D10120D6E7A4
:100CE0000DB10720D3E724230D223146684600F0DA
:100CF0000FFB08B10120CAE7BDF809700FB9DDF894
:100D000017709DF803004743BDF80100304420618F
:100D10009DF800006070BDF80400A080BDF806805A
:100D2000B8F1000F01D1DDF81380A088C11700EBE6
:100D300011710A11BDF80110A8EB0101C91B891A34
:100D40006278B1FBF2F101F10209C4F80C900125BF
:100D500040F6F770814500D302254FF6F7708145C4
:100D600000D303252570032D03D1DDF81F0060613A
:100D700002E0206938446061A088C11700EB11715E
:100D800022693A4402EB2111A1610020A07087483A
:100D9000046000207BE770B590B004468348066885
:100DA00016B9062010B070BD0020B070C6F808D08B
:100DB00008A80C9021460BA8FFF7E4FE05460DB1EC
:100DC0002846EFE79DF8000020B19DF80B0010F0D9
:100DD000100F01D00320E5E7BDF81A00BDF814108C
:100DE00040EA01407062079830620020F061012003
:100DF000B0700020D6E72DE9FC5F04460D4616468C
:100E000000946A48D0F800B000203080BBF1000F99
:100E100002D10620BDE8FC9F9BF8020010F0010FF4
:100E200001D10520F6E7DBE90710401A019001988F
:100E3000854201D9019885B263E0DBF81C00C0054A
:100E4000C00D2FD1DBF81C00400A9BF80110B0FB4D
:100E5000F1F201FB120098B9DBF81C0010B9DBF8C5
:100E6000240003E0DBF82800FFF77DFC8046B8F1A2
:100E7000010F00D849E0CBF8288000208BF8030050
:100E8000DBF82800FFF7FDFC8146B9F1000F00D127
:100E90003BE09BF80310481C8BF8030001EB0900B2
:100EA000CBF82C00DBF81C1088B2C11700EBD15135
:100EB0004912A0EB4121C1F500711FFA81FAAA4540
:100EC00000DDAA46DBF81C30C3F30802DBF82C1067
:100ED0000CB9002300E0009B1846534600F018FAB6
:100EE000074607B111E0DBF81C005044CBF81C00AA
:100EF000009850440090A5EB0A0085B23088504419
:100F00003080002D99D1002084E700208BF802006A
:100F100001207FE72DE9F04704462448D0F80090EF
:100F2000B9F1000F02D10620BDE8F08799F8020060
:100F300010F0010F01D10520F6E7D9F82000A042FA
:100F400001D2D9F82040D9F81C800020C9F81C0033
:100F5000002C51D099F801004602B8F1000F14D0CE
:100F6000601EB0FBF6F0A8F10101B1FBF6F188427A
:100F70000BD3A8F10100711E8843C9F81C00D9F8F1
:100F80001C00241AD9F8285003E0D9F82450C9F8D5
:100F9000285015E02846FFF7E6FB0546012D03D94A
:100FA000D9F80C00A84203D828E000001000002067
:100FB000C9F82850D9F81C003044C9F81C00A41BFB
:100FC000B442E7D8D9F81C002044C9F81C002846D0
:100FD000FFF757FC074607B910E0C4F3472089F82C
:100FE0000300E005C00D07D099F80310481C89F8EC
:100FF0000300C819C9F82C00002095E7002089F8E3
:101000000200012090E7F0B58BB004460D462C4855
:1010100007680FB9062622E0C7F808D008A8606064
:1010200029462046FFF7AEFD0646AEB99DF8000002
:1010300068B19DF80B0010F0100F07D0BDF81A0032
:10104000BDF8141040EA0140A06000E004261EB97B
:101050002046FFF725FC0646032E00D10426304625
:101060000BB0F0BDF0B58BB004460D4614480768D0
:101070000FB9062620E0C7F808D008A8606025B997
:101080002046FFF70DFC064616E02046FFF79BFCC6
:101090000646032E02D100202061002666B92946AB
:1010A0002046FFF735FD2046FFF717FC0646032EC6
:1010B00002D100202061002630460BB0F0BD0000B8
:1010C0001000002010B54021B94801F075FDFF2047
:1010D00001F067FA10BD70B547F6FF7500BFFF203D
:1010E00001F05FFA0446FF2C02D0681E0500F6D11D
:1010F000204670BD2DE9F04104460D464021AC4824
:1011000001F05AFD4021AA4801F058FDFFF7E3FF26
:10111000FF2802D0FF20BDE8F08114F0800F32D00C
:1011200004F07F04204601F03CFA280E01F039FA61
:10113000C5F3074001F035FAC5F3072001F031FA95
:10114000E8B201F02EFA0126402C00D19526482C59
:1011500000D18726304601F024FA4C2C02D1FF2022
:1011600001F01FFA0A2600BFFF2001F01AFA074615
:1011700017F0800F03D0701EC0B20600F4D1012F0B
:1011800001DD3846C7E7204601F00BFA280E01F0D2
:1011900008FAC5F3074001F004FAC5F3072001F08F
:1011A00000FAE8B201F0FDF90126402C00D19526A5
:1011B000482C00D18726304601F0F3F94C2C02D19F
:1011C000FF2001F0EEF90A2600BFFF2001F0E9F947
:1011D000074617F0800F03D0701EC0B20600F4D18E
:1011E000384698E72DE9F84301F076F9642404E0E5
:1011F000FF2001F0D6F9601EC4B2002CF8D1002601
:1012000000214020FFF776FF01286DD14FF4D57102
:101210004820FFF76FFF002841D100BF06E0FF2004
:1012200001F0BFF90DF80400601CC4B2042CF6DB19
:101230009DF80200012857D19DF80300AA2853D138
:1012400042F6E06803E0A8F101001FFA80F8B8F167
:10125000000F06D04FF08041E920FFF74BFF002838
:10126000F1D1B8F1000F3FD000217A20FFF742FF03
:10127000002839D1002406E0FF2001F092F90DF892
:101280000400601CC4B2042CF6DB9DF8000010F0D2
:10129000400F01D00C2000E00420C6B224E0002161
:1012A000E920FFF727FF012802DC0226E92501E0FB
:1012B0000126412546F2A81803E0A8F101001FFA13
:1012C00080F8B8F1000F05D000212846FFF712FF83
:1012D0000028F2D1B8F1000F05D04FF40071502072
:1012E000FFF708FF00B1002632480670FFF7EAFE5C
:1012F0003EB13148078827F0380040F008072E48F3
:1013000007800EB9012000E00020C0B2BDE8F883DC
:101310002DE9F04704460D4616461F46254800783D
:1013200010F0080F00D16D024FF00109294651203D
:10133000FFF7E0FE002836D147F2305A00BFFF2009
:1013400001F02FF98046B8F1FF0F05D1AAF1010095
:1013500080B25FEA000AF2D1B8F1FE0F23D140F269
:101360000220801BC01B1FFA80FA3EB100BFFF2085
:1013700001F017F9701E80B20600F8D100BFFF20FF
:1013800001F00FF904F8010B781E80B20700F6D1C6
:1013900000BFFF2001F005F9AAF1010080B25FEA69
:1013A000000AF6D18146FFF78DFE4846BDE8F0877A
:1013B000000C0140140000200030014008B501215C
:1013C0001C2001F0F6FD4FF47F40ADF80000032033
:1013D0008DF8020010208DF803006946FF4801F0E7
:1013E00041FBFF20ADF800006946FD4801F03AFBE3
:1013F0004FF4F850ADF800006946F94801F032FBAF
:101400004FF40050ADF800006946F54801F02AFBA2
:101410004FF40050F249086108BDF249096860F3D1
:101420001F21F14AC2F80C1CED49C96801F47F4143
:1014300041EA2021EA4AD160704770B50546002193
:10144000084603F00BF84FF48070E549486122200C
:1014500003F052F84FF40070E1490861002408E0FD
:101460002846FFF7DAFF4FF48060DD4948610861E4
:10147000641CB4F5963FF3D34FF48070D8490861EB
:1014800070BD00E0401E0028FCD1704700B54FF44D
:101490008050D34908614CF25030FFF7F2FF4FF40F
:1014A0008050CF4948614CF25030FFF7EAFF4FF4CB
:1014B0008050CB4908614CF25030FFF7E2FF00BD8D
:1014C00070B5FFF77BFF4FF6FF70FFF7A6FF4FF4F5
:1014D0008050C34908618010086180100861400095
:1014E00008618000086140000861FFF7CFFF4CF2FF
:1014F000503401E0601E84B2002CFBDC4CF250340E
:1015000001E0601E84B2002CFBDC4CF2503401E0A0
:10151000601E84B2002CFBDC0121002003F002F8E5
:1015200042F21070FFF7ADFF4CF2503401E0601E44
:1015300084B2002CFBDC4CF2503401E0601E84B21B
:10154000002CFBDC00254FF48070A549486128463B
:1015500002F0D2FF4FF40060A149486102F054FF4D
:1015600005464FF400609E490861C010086100BF45
:101570009E4805800088A0F51341253905D09B4879
:101580000088A0F51341283970D11021E72002F01E
:10159000C9FF0121002002F0C5FF4FF48071012036
:1015A00002F0C0FF4FF4E061022002F0BBFF41F205
:1015B0003001032002F0B6FF0021042002F0B2FF48
:1015C00040F20721082002F0ADFF0021092002F0BF
:1015D000A9FF00210A2002F0A5FF01210C2002F042
:1015E000A1FF00210D2002F09DFF00210F2002F03D
:1015F00099FF0021102002F095FF0721112002F031
:1016000091FF0021122002F08DFF0021132002F033
:1016100089FF4CF2503401E0601E84B2002CFBDCE8
:101620004CF2503401E0601E84B2002CFBDC41F22D
:101630009051102002F076FF40F22721112002F095
:1016400071FF4CF2503401E0601E84B2002CFBDCD0
:101650004CF2503401E0601E84B2002CFBDC9C2173
:10166000122002F05FFF4CF2503402E0DEE0601E18
:1016700084B2002CFBDC4CF2503401E0601E84B2DA
:10168000002CFBDC4FF4C851132002F04BFF232148
:10169000292002F047FF0E212B2002F043FF4CF2DD
:1016A000503401E0601E84B2002CFBDC4CF250345C
:1016B00001E0601E84B2002CFBDC0021202002F03F
:1016C00031FF0021212002F02DFF4CF2503401E0C7
:1016D000601E84B2002CFBDC4CF2503401E0601E32
:1016E00084B2002CFBDC0721302002F01BFF40F20B
:1016F0000771312002F016FF0621322002F012FF9E
:1017000040F20471352002F00DFF41F604713620DD
:1017100002F008FF0421372002F004FF00213820E6
:1017200002F000FF40F20671392002F0FBFE40F2A9
:1017300001713C2002F0F6FE0F213D2002F0F2FE86
:101740004CF2503401E0601E84B2002CFBDC4CF201
:10175000503401E0601E84B2002CFBDC00215020DC
:1017600002F0E0FEEF21512002F0DCFE00215220C9
:1017700002F0D8FE40F23F11532002F0D3FE4FF4A6
:101780002741602002F0CEFE0121612002F0CAFE56
:1017900000216A2002F0C6FE0021802002F0C2FE75
:1017A0000021812002F0BEFE0021822002F0BAFE5C
:1017B0000021832002F0B6FE0021842002F0B2FE58
:1017C0000021852002F0AEFE1021902002F0AAFE3A
:1017D0000021922002F0A6FE032109E0000C014046
:1017E000001001400C0C01400000014018000020D6
:1017F000932002F097FE4FF48871952002F092FE3C
:101800000021972002F08EFE0021982002F08AFE2F
:1018100040F23311072002F085FE0021202002F063
:1018200081FE0021212002F07DFEDCE2FF480088DD
:10183000A0F5134120397DD1084602F073FE4FF424
:101840008071012002F06EFE4FF4E061022002F090
:1018500069FE41F21801032002F064FE0021042019
:1018600002F060FE40F20221082002F05BFE00213F
:10187000092002F057FE00210A2002F053FE012148
:101880000C2002F04FFE00210D2002F04BFE002143
:101890000F2002F047FE4CF2503401E0601E84B28B
:1018A000002CFBDC4CF2503401E0601E84B2002CB2
:1018B000FBDC40F20111072002F034FE4CF2503400
:1018C00001E0601E84B2002CFBDC4CF2503401E0DD
:1018D000601E84B2002CFBDC4FF48651102002F015
:1018E00021FE0721112002F01DFE4FF48871122005
:1018F00002F018FE4FF43061132002F013FE0021B5
:10190000292002F00FFE44F210012B2002F00AFE03
:101910000021502002F006FEEF21512002F002FECD
:101920000021522002F0FEFD40F23F11532002F050
:10193000F9FD00E043E04FF41C51602002F0F2FD9D
:101940000121612002F0EEFD00216A2002F0EAFD93
:101950000021802002F0E6FD0021812002F0E2FD5E
:101960000021822002F0DEFD0021832002F0DAFD5A
:101970000021842002F0D6FD0021852002F0D2FD56
:101980001021902002F0CEFD0021922002F0CAFD2D
:101990000121932002F0C6FD4FF48871952002F0DA
:1019A000C1FD0021972002F0BDFD0021982002F02A
:1019B000B9FD40F27311072002F0B4FD13E29B4819
:1019C0000088A0F5194119397ED10621282002F09E
:1019D000A9FD0121002002F0A5FD0021102002F048
:1019E000A1FD47F2EF21012002F09CFD4FF4C06100
:1019F000022002F097FD46F63821032002F092FD06
:101A000046F67401112002F08DFD00210F2002F036
:101A100089FD45F208310B2002F084FD03210C20E2
:101A200002F080FD0A210D2002F07CFD4FF43851B8
:101A30000E2002F077FDBE211E2002F073FD4FF450
:101A40000041252002F06EFD4FF4F041262002F007
:101A500069FD7821272002F065FD00214E2002F06B
:101A600061FD00214F2002F05DFD40F6D9011220FA
:101A700002F058FD0021302002F054FD4FF4827135
:101A8000312002F04FFD4FF48071322002F04AFD08
:101A900040F20531332002F045FD40F2055134207B
:101AA00002F040FD40F20531352002F03BFD40F2EE
:101AB0000771362002F036FD4FF44071372002F0F6
:101AC00031FD4FF4905100E00CE03A2002F02AFD85
:101AD0004FF400613B2002F025FD3321072002F086
:101AE00021FD80E151480088A0F58A4131397ED13D
:101AF0000121002002F016FD4FF4C561102002F014
:101B000011FD0621122002F00DFD40F632211320B6
:101B100002F008FD4021112002F004FD50211520A3
:101B200002F000FD1621122002F0FCFC0F20FFF74E
:101B3000A8FC45F26061102002F0F4FC0F20FFF7D2
:101B4000A0FC42F64E21132002F0ECFC4FF4807111
:101B5000012002F0E7FC4FF44071022002F0E2FCA9
:101B600041F23001032002F0DDFC40F202210820A6
:101B700002F0D8FC00210A2002F0D4FC0021302021
:101B800002F0D0FC40F20241312002F0CBFC4FF4D5
:101B90008371322002F0C6FC4FF4E061332002F082
:101BA000C1FC4FF48271342002F0BCFC40F20131E0
:101BB000352002F0B7FC40F20771362002F0B2FC8B
:101BC00040F20531372002F0ADFC4FF402713820AD
:101BD00002F0A8FC40F60B71392002F0A3FC0F20A4
:101BE000FFF74FFC0221412002F09CFC00E03AE0AC
:101BF0004FF41C51602002F095FC0121612002F09D
:101C000091FC40F21911902002F08CFC4FF4857188
:101C1000922002F087FC0421932002F083FC4FF411
:101C20008071A02002F07EFC0F2001E0180000204F
:101C3000FFF727FC0F20FFF724FC0F20FFF721FC04
:101C40000F20FFF71EFC40F23311072002F06AFC60
:101C50000F20FFF716FC0021A02002F063FC1420E7
:101C6000FFF70FFCBFE0FB480088A0F5EE41833989
:101C7000F8D10121FF2002F055FC0821F32002F0E9
:101C800051FC4FF48071012002F04CFC4FF4E061F4
:101C9000022002F047FC41F23001032002F042FC36
:101CA00040F20231082002F03DFC40F207210820FA
:101CB00002F038FC0021092002F034FC00210A2047
:101CC00002F030FC0021102002F02CFC0521112034
:101CD00002F028FC0021122002F024FC0021132035
:101CE00002F020FC3220FFF7CCFB41F2B0211020A3
:101CF00002F018FC3220FFF7C4FB0721112002F08C
:101D000011FC3220FFF7BDFB8B21122002F00AFCF0
:101D10003220FFF7B6FB4FF4B851132002F002FC5B
:101D20003220FFF7AEFB2221292002F0FBFB00212D
:101D3000302002F0F7FB40F20771312002F0F2FB95
:101D400040F20551322002F0EDFB40F20711352040
:101D500002F0E8FB0821362002F0E4FB00213720E6
:101D600002F0E0FB40F20221382002F0DBFB4FF4EE
:101D70008371392002F0D6FB40F202213C2002F0B0
:101D8000D1FB4FF481613D2002F0CCFB3220FFF704
:101D900078FB0021502002F0C5FBEF21512002F01A
:101DA000C1FB0021522002F0BDFB40F23F11532045
:101DB00002F0B8FB4FF42741602002F0B3FB012191
:101DC000612002F0AFFB3321902002F0ABFB0B212E
:101DD0002B2002F0A7FB40F23311072002F0A2FBF8
:101DE0003220FFF74EFB4CF2503401E0601E84B20B
:101DF000002CFBDC4FF47840FFF71FFB70BD30B5C3
:101E0000014601F01F04C1F34513CA0AE50205EBC0
:101E100043151544A8B230BD70B504460D46294699
:101E2000204602F01BFB4FF480708B494861222052
:101E300002F062FB4FF400608749486102F0E4FA67
:101E400006464FF4006084490861486102F0DCFAFC
:101E500006464FF4006080490861C01008617D4863
:101E60000088A0F5EE41833909D07A480088A0F5B2
:101E70008A41313903D03046FFF7C1FF064630466C
:101E800070BD70B504460D461646B4F5A07F01DC62
:101E9000F02D00DD70BD2946204602F0DFFA4FF438
:101EA00080706D494861222002F026FB4FF40070DB
:101EB000694908613046FFF7B0FA4FF4806066491F
:101EC0004861086180100861E4E72DE9F0470446A5
:101ED0000D4616469846089F4346324629462046F8
:101EE00002F0EEFA2946204602F0B8FA4FF480706C
:101EF00059494861222002F0FFFA4FF40070564918
:101F000008614FF000090CE037F8020BFFF785FA83
:101F10004FF4806050494861086109F101001FFADF
:101F200080F906FB08F04845EEDC4FF480704A4922
:101F30000861BDE8F08770B504460025002640F230
:101F40003F13EF220021084602F0BAFA00210846AA
:101F500002F084FA41F21801032002F0E3FA4FF490
:101F600080703D494861222002F0C6FA4FF40070AB
:101F70003949086100BF17E0002612E0615D0120C9
:101F8000B040014203D11F20FFF747FA03E04FF6AC
:101F9000E070FFF742FA4FF480602F494861086112
:101FA000761C082EEAD36D1CB5F5165FE4D34FF40A
:101FB00080702949086170BD2DE9F05F04460D4627
:101FC00016461F46DDF828804FF00009CA46CB466A
:101FD00000BF2EE0A6F1200009EB00101F4911F808
:101FE00000B04FF0000A1DE0CAF107004BFA00F004
:101FF00010F0010F09D005EB090291B204EB0A02BF
:1020000090B23A46FFF73DFF08E005EB090291B2B6
:1020100004EB0A0290B24246FFF733FF0AF10100D7
:102020001FFA80FABAF1080FDEDB09F101001FFA8E
:1020300080F9B9F1100FCDDBBDE8F09F2DE9F84331
:1020400004460D4616461F46DDF820804FF0000975
:1020500016E000001800002000100140764500083E
:10206000CDF8008016F8012B082101FB094188B248
:102070003B462946FFF7A0FF09F1010000F0FF09E8
:1020800030780028ECD1BDE8F8832DE9F843044608
:102090000D4616461F46DDF820804FF000090FE080
:1020A000CDF8008016F8012B082101FB094188B208
:1020B0003B462946FFF780FF09F1010000F0FF09C8
:1020C00030780028ECD1BDE8F8832DE9F0410021FB
:1020D000084602F0C3F90021502002F023FAEF2154
:1020E000512002F01FFA0021522002F01BFA40F2A8
:1020F0003F11532002F016FA4FF48070F449486102
:10210000222002F0F9F94FF40070F149086100242F
:10211000002500264FF000081AE0002712E038469C
:10212000F91707EB5171CC10E10241EA4511314337
:1021300088B2FFF772F94FF48060E54948610861A1
:10214000781CC7B2F02FEADB08F1010000F0FF08AD
:10215000B8F1320FE1DB1F243F251F264FF00008A6
:1021600024E000271CE03846F91707EB917189102D
:10217000C1F13F01CDB2F91707EB5171C910C1F19F
:102180001F01CEB2E10241EA4511314388B2FFF7A7
:1021900044F94FF48060CE4948610861781CC7B2A9
:1021A000F02FE0DB08F1010000F0FF08B8F1320F7A
:1021B000D7DB002400250026A0461AE0002712E005
:1021C0003846F91707EB91718D10E10241EA45118C
:1021D000314388B2FFF721F94FF48060BC49486170
:1021E0000861781CC7B2F02FEADB08F1010000F0AB
:1021F000FF08B8F1320FE1DB1F243F251F264FF007
:10220000000824E000271CE03846F91707EB51715D
:10221000C910C1F11F01CCB2F91707EB5171C910F8
:10222000C1F11F01CEB2E10241EA4511314388B24A
:10223000FFF7F3F84FF48060A54948610861781C06
:10224000C7B2F02FE0DB08F1010000F0FF08B8F1A1
:10225000320FD7DB002400250026A0461AE0002715
:1022600012E03846F91707EB5171CE10E10241EA4E
:102270004511314388B2FFF7D0F84FF4806094499C
:1022800048610861781CC7B2F02FEADB08F1010051
:1022900000F0FF08B8F13C0FE1DB00261F243F25CA
:1022A0001F264FF0000824E000271CE03846F917ED
:1022B00007EB91718910C1F13F01CDB2F91707EB1E
:1022C0005171C910C1F11F01CCB2E10241EA4511BF
:1022D000314388B2FFF7A1F84FF480607C49486130
:1022E0000861781CC7B2F02FE0DB08F1010000F0B4
:1022F000FF08B8F13C0FD7DB4FF4807074490861D8
:10230000BDE8F081012804DB4FF40051704A1161EF
:1023100003E04FF400516E4A5161704770B50446B6
:1023200034B1012C07D0022C08D0032C0CD108E0CA
:1023300041F230050BE041F2100508E041F21805CA
:1023400005E041F2080502E04FF4987500BF00BFB8
:102350002946032002F0E6F85E4804700021084692
:1023600002F07CF870BD5B480078704759480078EF
:1023700058B101280AD0022802D0032804D100E075
:1023800000BF4FF4A070704700BF00BFF020FAE715
:102390005048007850B1012809D0022802D0032803
:1023A00003D100E000BFF020704700BF00BF4FF432
:1023B000A070F9E700B54FF48070454948614000CE
:1023C0004861800008612220FFF727F84FF4806001
:1023D0003F49486108614010086100BD00B50346EF
:1023E0001846FFF71AF84FF48060394948610861D0
:1023F00000BD2DE9F04104460D46164698460027DB
:102400002946204602F02AF8B8F1000F13D14FF404
:1024100080702F494861222002F06EF84FF400705E
:102420002B49086100BF03E00020FEF7F6FF7F1C88
:10243000B742F9D30DE0002709E00020FEF7EDFFD9
:10244000681C85B22946204602F008F87F1CB74276
:10245000F3D34FF480701E490861BDE8F0812DE987
:10246000F04104460D4617461E46002332462946D3
:102470002046FFF7BEFF01233A4629462046FFF7D4
:10248000B8FFA119491E88B201233A462946FFF731
:10249000B0FFE819401E81B2002332462046FFF704
:1024A000A8FFBDE8F0812DE9F04104460D4616462F
:1024B00098462F4606E000234246B9B22046FFF771
:1024C00098FF7F1CA819B842F5DCBDE8F081000038
:1024D000001001401600002000B587B0A020ADF824
:1024E000180003208DF81A0018208DF81B0006A98B
:1024F000354800F0B7FA4020ADF8180048208DF8B4
:102500001B0006A9304800F0ADFA4020ADF81800D5
:1025100003208DF81A0010208DF81B0006A92B4807
:1025200000F0A0FA1020ADF8180048208DF81B002C
:1025300006A9254800F096FA1021234800F03CFB3C
:102540000121082000F035FD0121080300F031FDD4
:102550000020ADF804004FF48270ADF806000020B2
:10256000ADF80800ADF80A00ADF80C004FF40070AB
:10257000ADF80E003820ADF810000020ADF81200C4
:102580000720ADF8140001A9114800F0A1FD0021B9
:102590000F4800F0A1FE01210D4800F039FE07B000
:1025A00000BD10B504462146094800F067FE00BF93
:1025B0000121074800F0B5FE0028F9D0044800F0DA
:1025C0005FFEC0B210BD000000080140000C0140D9
:1025D000003001401FB50121042000F0F7FC01216B
:1025E000092000F0E6FC8020ADF80C0018208DF8E2
:1025F0000F0003208DF80E0003A92A4800F032FADC
:102600004FF4AF70ADF804000020ADF80000ADF855
:102610000600ADF802006946234800F08DFF6020F7
:10262000224908800120488000200881012048803C
:102630008020C8801C4800F0FEFF08211A4801F0E5
:102640005AFB0121184801F01EFB0121164801F038
:1026500021FA1FBD10B504461448C4800146124833
:1026600000F0E9FF10BD38B504466CB18020ADF82C
:10267000000018208DF8030003208DF80200694641
:10268000084800F0EFF90CE08020ADF800002820A9
:102690008DF8030003208DF802006946014800F020
:1026A000E1F938BD000C014000080040AA020020FA
:1026B00000200021654A126842F48032634B1A60A0
:1026C00000BF624A126802F40031401C11B9B0F533
:1026D000A06FF6D15D4A126812F4003F01D00121CB
:1026E00000E00021012942D1594A126842F010024B
:1026F000574B1A601A46126822F003021A601A46F3
:10270000126842F002021A60504A52684F4B5A60F7
:102710001A4652685A601A46526842F480625A60F9
:102720001A46526822F47C125A601A46526842F4E1
:10273000E8125A601A46126842F080721A6000BFAE
:10274000424A126812F0007FFAD0404A526822F0E2
:1027500003023E4B5A601A46526842F002025A6027
:1027600000BF3A4A526802F00C02082AF9D17047B9
:1027700010B5FFF79DFF10BD10B53448006840F05C
:1027800001003249086008464068324908402F4934
:10279000486008460068304908402C4908600846EF
:1027A000006820F4802008600846406820F4FE009D
:1027B00048604FF41F008860FFF7DAFF10BD10B5C6
:1027C000002000210022214B5B6803F00C0020B1A7
:1027D000042806D0082828D107E0204B204C23608D
:1027E00027E01E4B1E4C236023E0184B5B6803F46C
:1027F0007011164B5B6803F48032022303EB9141A6
:1028000022B9184B4B43164C23600DE00F4B5B680D
:1028100013F4003F04D0134B4B43114C236003E0EF
:102820000E4B4B430E4C236003E00C4B0C4C2360CF
:1028300000BF00BF054B5B68C3F303130A4CE05CA9
:10284000074B1B68C340064C236010BD00100240BC
:10285000002002400000FFF8FFFFF6FE00127A00A1
:102860001C00002000093D0020000020094880478E
:1028700009480047FEE7FEE7FEE7FEE7FEE7FEE762
:10288000FEE7FEE7FEE7FEE704480549054A064B7A
:102890007047000079270008ED00000820030020A1
:1028A0002009002020050020200500203649014392
:1028B000364A1160704770B5002100230F22C4789A
:1028C0004CB3324C246804F4E064C4F5E0644FEA8D
:1028D0001421C1F1040322FA01F2447804FA03F14D
:1028E000847804EA020444EA01014FEA0111284C09
:1028F0000678A155047804F01F054FF0010404FA8E
:1029000005F405784FEA65154FF0E02606EB8505DE
:10291000C5F8004109E0047804F01F040125A54032
:102920001C4C0678761144F8265070BD1A4A0A40AD
:1029300002431A4B1A60704741B1194A126842EAC1
:1029400000024FF0E023C3F8102D07E0144A12688C
:1029500022EA00024FF0E023C3F8102D704704284C
:1029600008D14FF0E021096941F004014FF0E02265
:10297000116107E04FF0E021096921F004014FF0F7
:10298000E0221161704700000000FA050CED00E044
:1029900000E400E080E100E080FFFF1F08ED00E0C0
:1029A00010ED00E010B50446C748844208D101216B
:1029B000042000F018FB0021042000F014FB46E086
:1029C000C248844208D10121082000F00CFB0021FC
:1029D000082000F008FB3AE0BD48844208D10121FC
:1029E000102000F000FB0021102000F0FCFA2EE087
:1029F000B848844208D10121202000F0F4FA0021D7
:102A0000202000F0F0FA22E0B348844208D10121EE
:102A1000402000F0E8FA0021402000F0E4FA16E03F
:102A2000AE48844208D10121802000F0DCFA002168
:102A3000802000F0D8FA0AE0A948844207D1012199
:102A4000801500F0D0FA0021A01500F0CCFA10BDDE
:102A500010B50121084600F0C6FA0021012000F05F
:102A6000C2FA10BD2DE9F041002200230024002508
:102A70000026002791F803C00CF00F0291F803C064
:102A80001CF0100F03D091F802C04CEA0202B1F81A
:102A900000C01CF0FF0F31D0066800242BE04FF07F
:102AA000010C0CFA04F5B1F800C00CEA0503AB42C6
:102AB00020D1A5004FF00F0C0CFA05F7BE4302FA27
:102AC00005FC4CEA060691F803C0BCF1280F06D1BC
:102AD0004FF0010C0CFA04FCC0F814C00AE091F8A5
:102AE00003C0BCF1480F05D14FF0010C0CFA04FCF7
:102AF000C0F810C0641C082CD1D30660B1F800C027
:102B0000BCF1FF0F34DD466800242EE004F1080C10
:102B10004FF0010808FA0CF5B1F800C00CEA050303
:102B2000AB4221D1A5004FF00F0C0CFA05F7BE43C4
:102B300002FA05FC4CEA060691F803C0BCF1280F26
:102B400005D104F1080C08FA0CF8C0F8148091F8CB
:102B500003C0BCF1480F07D104F1080C4FF0010885
:102B600008FA0CF8C0F81080641C082CCED346601C
:102B7000BDE8F0814FF6FF710180022181700421D0
:102B8000C17070470246002093680B4201D00120BB
:102B900000E0002070470146886880B27047024616
:102BA0000020D3680B4201D0012000E000207047D4
:102BB0000146C86880B27047016170474161704743
:102BC0000AB1016100E041617047C16070474FF494
:102BD00080320A43826181618261826982697047C1
:102BE0000022404B1A684FF680731A4042EA0012E6
:102BF0000A433C4B1A6070473B49C8617047F0B5C7
:102C0000002200230024002500F00046B6F1004F0A
:102C100002D1344EF46901E0324E7468C0F30345CA
:102C200082B200F44016B6F5401F08D124F070645B
:102C30002C4E766826F070662A4F7E6012E000F413
:102C40008016B6F5801F06D1032606FA05F39C43CD
:102C500044F0706406E0460D360102FA06F6B4430D
:102C600044F0706421B1460D360102FA06F6344391
:102C700000F00046B6F1004F02D11A4EF46101E0B7
:102C8000184E7460F0BD30B500228B071C0F0F2367
:102C900003FA04F2134B08338C1053F82440944386
:102CA0008D1043F825408C1053F824308C07240FE6
:102CB00000FA04F423430B4C08348D1044F82530FB
:102CC00030BD0A490860704700080140000C01400F
:102CD000001001400014014000180140001C014098
:102CE000002001400000014000002042DC002042A2
:102CF000D848006840F00100D6490860084640689E
:102D0000D5490840D349486008460068D34908407F
:102D1000D04908600846006820F480200860084612
:102D2000406820F4FE0048604FF41F008860704740
:102D3000C849096821F48031C64A11601146096802
:102D400021F480211160B0F5803F03D0B0F5802FD1
:102D50000ED106E0BF49096841F48031BD4A1160D7
:102D600007E0BC49096841F4A021BA4A116000E0BB
:102D700000BF00BF704710B50146002200230020AD
:102D80004A11012A02D1B34C236806E0022A02D17B
:102D9000B04C236A01E0AF4C636A01F01F020124CA
:102DA00094401C4201D0012000E0002010BD70B50D
:102DB00000240025002600BF3120FFF7DCFF064677
:102DC000641CB4F5A06F01D0002EF5D03120FFF7C0
:102DD000D2FF08B1012500E00025284670BD002182
:102DE0009C4A116821F0F80141EAC0011160704766
:102DF0009B49086070470022964B5A6822F47C1267
:102E000040EA01031A43934B5A607047944908669D
:102E1000704700218F4A516821F00301014351603E
:102E200070478C48406800F00C0070470021894AC8
:102E3000516821F0F0010143516070470021854A3B
:102E4000516821F4E0610143516070470021814ADB
:102E5000516821F4605141EAC0015160704729B1C5
:102E60007C4A527A02437B4B5A7206E0794A527A84
:102E7000C343DBB21A40774B5A72704779490860F6
:102E800070470021734A516821F440410143516069
:102E900070470021744A11706E4A82F82010012890
:102EA00002D0042808D103E001216F4A117004E028
:102EB00005216D4A117000E000BF00BF70476B49EB
:102EC000086070476349096A0143624A11627047AA
:102ED00067490860704730B50021002200230024B4
:102EE0005C4D6D6805F00C0121B1042905D008295D
:102EF00023D105E05F4D056022E05E4D05601FE0D7
:102F0000544D6D6805F47012524D6D6805F48033B0
:102F1000022505EB92421BB9574D554305600BE066
:102F20004C4D6D6815F4003F03D0534D554305607B
:102F300002E0504D5543056002E04E4D056000BF74
:102F400000BF444D6D6805F0F00109094B4D6C5C04
:102F50000568E54045603F4D6D6805F4E061090A8C
:102F6000464D6C5C4568E54085603A4D6D6805F4FA
:102F70006051C90A414D6C5C4568E540C560354DFE
:102F80006D6805F44041890B3C4D10356C5CC5689B
:102F9000B5FBF4F5056130BD29B12E4A52690243F3
:102FA0002C4B5A6104E02B4A52698243294B5A61E7
:102FB000704729B1274A92690243264B9A6104E07F
:102FC000244A92698243234B9A61704729B1214A6E
:102FD000D26902431F4BDA6104E01E4AD269824380
:102FE0001C4BDA61704729B11A4AD2680243194B67
:102FF000DA6004E0174AD2688243164BDA60704701
:1030000029B1144A12690243124B1A6104E0114AB1
:10301000126982430F4B1A61704719490860704763
:103020000F49C86470470B49C87170470948406A26
:1030300040F0807007494862704701460020054A09
:1030400092680A4201D0012000E000207047014947
:1030500088727047001002400000FFF8FFFFF6FE84
:1030600000004242D8004242201002408004424206
:103070003C04424200127A0000093D00300000206A
:103080004004424210B50446BE48844208D10121A2
:103090008014FFF7A8FF0021A014FFF7A4FF16E09B
:1030A000B948844208D101210014FFF7A9FF00218B
:1030B0002014FFF7A5FF0AE0B448844207D101219C
:1030C000C013FFF79DFF0021E013FFF799FF10BD2C
:1030D00010B50022028802F441520B884C88234329
:1030E0008C882343CC8823430C8923434C89234376
:1030F0008C892343CC8923431A430280838B4FF26C
:10310000FF74234083830B8A038210BD2DE9F04FA7
:1031100085B004460D4600260227B0464FF001094F
:10312000B246B346A08B4FF240010840A083022074
:103130002084A68BA868022801D100BF38E0A888A7
:1031400010B94FF0010901E04FF002098E488442A6
:1031500000D100E000BF6846FFF7BDFEDDF800B01B
:10316000E888B0F5007F0BD14FEA1B2000EB800010
:103170004000A968B0FBF1F0401D1FFA80FA0CE096
:103180004FEA4910BBFBF0F000EB80004000A9685B
:10319000B0FBF1F0401D1FFA80FA0A20BAFBF0FAEA
:1031A0000AF00108AAEB0800C0F34F074FEA08280D
:1031B000022F01DBFF2F02DD02274FF00008E88815
:1031C00040EA080038432084A888A9890843698810
:1031D00008432988084340F400600643A68305B0ED
:1031E000BDE8F08F0021018041808180C180018194
:1031F00041818181C18107210182704700210180C5
:1032000041808180C18002218160002181817047DD
:1032100021B1028842F04002028004E002884FF6A9
:10322000BF731A400280704721B1828B42F48062E2
:10323000828304E0828B4FF6FF331A40828370470B
:1032400070B5002300240B1101259D40ACB21AB1CA
:1032500085882543858004E08588E643B6B23540FD
:10326000858070BD10B51AB183880B43838004E05C
:103270008388CC43A4B22340838010BD81817047F2
:10328000014688897047A1F57E42FF3A04D0028842
:1032900042F48072028004E002884FF6FF631A4015
:1032A0000280704721B1828842F00402828004E0EB
:1032B00082884FF6FB731A408280704702884FF273
:1032C000FF731A40028002880A4302807047018817
:1032D00041F480510180704721B1028842F40052CC
:1032E000028004E002884DF6FF731A4002807047A6
:1032F00002460020012901D0108B00E0908A70471F
:103300000146088A7047B1F5804F04D1028842F423
:103310008042028004E002884BF6FF731A4002806C
:1033200070470246002013890B4201D0012000E0C3
:1033300000207047CA4302817047F0B50246002062
:1033400000230024002501F00F070126BE40B3B280
:103350000C110126A640B4B2968806EA0405168927
:103360001E4202D00DB1012000E00020F0BD10B5DA
:10337000002201F00F040123A3409AB2D34303813A
:1033800010BD00000030014000380040003C00400B
:1033900010B50446FF48844208D10121C014FFF74C
:1033A00022FE0021E014FFF71EFEC4E0B4F1804FBE
:1033B00008D101210846FFF723FE00210120FFF775
:1033C0001FFEB8E0F448844208D101210220FFF733
:1033D00017FE00210220FFF713FEACE0EF48844205
:1033E00008D101210420FFF70BFE00210420FFF784
:1033F00007FEA0E0EA48844208D101210820FFF737
:10340000FFFD00210820FFF7FBFD94E0E548844222
:1034100008D101211020FFF7F3FD00211020FFF754
:10342000EFFD88E0E048844208D101212020FFF729
:10343000E7FD00212020FFF7E3FD7CE0DB4884422C
:1034400008D101214014FFF7CEFD00216014FFF7E1
:10345000CAFD70E0D648844209D10121C804FFF7B3
:10346000C2FD00214FF40020FFF7BDFD63E0D1480D
:10347000844209D101210805FFF7B5FD00214FF471
:103480008010FFF7B0FD56E0CB48844209D10121FE
:103490004805FFF7A8FD00214FF40010FFF7A3FD3A
:1034A00049E0C648844208D101214020FFF7A8FD29
:1034B00000214020FFF7A4FD3DE0C148844208D12F
:1034C00001218020FFF79CFD00218020FFF798FD5F
:1034D00031E0BC48844208D101218015FFF790FDFE
:1034E0000021A015FFF78CFD25E0B748844209D1E3
:1034F00001210804FFF777FD00214FF48030FFF72A
:1035000072FD18E0B148844209D101214804FFF757
:103510006AFD00214FF40030FFF765FD0BE0AC4879
:10352000844208D101218804FFF75DFD00214FF49A
:103530008020FFF758FD10BD00220288954B98426D
:103540000ED09A4B98420BD0B0F1804F08D0924BDE
:10355000984205D0914B984202D0914B984204D1A9
:103560004FF68F731A404B881A438E4B984207D000
:103570008D4B984204D04FF6FF431A40CB881A4334
:1035800002808B8883850B880385824B98420BD001
:10359000864B984208D08C4B984205D08B4B984272
:1035A00002D08B4B984201D10B7A03860123838290
:1035B000704770B5002200230024058C4FF6FE767C
:1035C00035400584038C8488028B4FF68F752A4022
:1035D000B51E2A400D882A43751E2B400D892B43AA
:1035E0004D882B436B4DA8420BD0704DA84208D09C
:1035F000754DA84205D0754DA84202D0744DA84221
:1036000013D14FF6F7752B404D892B434FF6FB75C1
:103610002B408D882B434FF6FF652C404FF6FF550E
:103620002C408D892C43CD892C4384800283CD8806
:103630008586038470BD70B5002200230024058CAC
:103640004FF6EF7635400584038C8488028B48F66C
:10365000FF752A404FF6FF452A400D882D0642EAA5
:1036600015424FF6DF752B400D892D0543EA1543B2
:103670004D882D0543EA1543464DA84202D04B4DD7
:10368000A8421BD14FF67F752B404D892D0543EA8B
:1036900015434FF6BF752B408D882D0543EA154322
:1036A0004FF6FF352C404FF2FF752C408D89AD044D
:1036B00044EA1544CD89AD0444EA1544848002836C
:1036C000CD880587038470BD70B5002200230024D7
:1036D000058C4FF6FF6635400584038C8488828B09
:1036E0004FF68F752A404FF6FC752A400D882A4305
:1036F0004FF6FF552B400D892D0643EA15434D88A3
:103700002D0643EA1543234DA84202D0274DA84277
:103710001BD14FF2FF752B404D892D0643EA15430F
:103720004FF6FF352B408D882D0643EA15434EF6A4
:10373000FF752C404DF6FF752C408D892D0544EA10
:103740001544CD892D0544EA154484808283CD88B3
:103750008587038470BD70B5002200230024058C8A
:103760004EF6FF7635400584038C8488828B48F6BC
:10377000FF752A404FF6FF452A400D882D0642EA84
:1037800015424DF6FF752B400D892D0743EA154371
:103790004D881FE0002C014000040040000800405C
:1037A000000C0040001000400014004000340140B4
:1037B000004C0140005001400054014000180040FE
:1037C000001C004000200040004001400044014037
:1037D000004801402D0743EA1543FB4DA84202D0A3
:1037E000FA4DA84206D14BF6FF752C408D89AD05E8
:1037F00044EA154484808283CD88A0F84050038435
:1038000070BD828B4FF2FF331A408283828B0B068E
:1038100042EA134282837047F0B500240025002657
:10382000078C4EF6FF7C07EA0C070784848B058C17
:103830000F073E0C40F6FF473C40170644EA17448A
:103840001F0744EA17444DF6FF773D4046F4805782
:103850003D4384830584F0BD828B4FF6F3731A4099
:103860008283828B0A4382837047F0B5002500244F
:103870000026078C4FF6FF6C07EA0C070784858B40
:10388000048C0F063E0C4FF60C773D401F0542EAB4
:1038900017473D434FF6FF573C4046F480773C4383
:1038A00085830484F0BD028B4FF2FF331A400283FC
:1038B000028B0B0642EA134202837047F0B50024E4
:1038C00000250026078C4FF6EF7C07EA0C070784DB
:1038D000048B058C0F053E0C40F6FF473C401F074C
:1038E00044EA1744170644EA17444FF6DF773D4091
:1038F00046F010073D4304830584F0BD028B4FF66C
:10390000F3731A400283028B0A4302837047F0B5B7
:1039100000240025068C4FF6FE773E400684048B7B
:10392000058C4FF60C7634401E0542EA16463443A9
:103930007E1E354041F00106354304830584F0BD09
:1039400070B504460D46288850B92B89AA88698825
:103950002046FFF7DCFFE9882046FFF7CFFF25E090
:10396000288804280AD12B89AA8869882046FFF76D
:10397000A5FFE9882046FFF796FF17E0288808286A
:103980000AD12B89AA8869882046FFF76EFFE9884B
:103990002046FFF761FF09E02B89AA886988204645
:1039A000FFF73AFFE9882046FFF72BFF70BD2DE9AE
:1039B000F04104460D4600260127688808B9022612
:1039C00000E00026A888012801D1022700E0012795
:1039D0002888A0B92B89AA8869882046FFF797FF15
:1039E000E9882046FFF78AFF2B893A463146204670
:1039F000FFF764FFE9882046FFF755FF13E02B89A6
:103A0000AA8869882046FFF759FFE9882046FFF712
:103A10004AFF2B893A4631462046FFF778FFE9886E
:103A20002046FFF76BFFBDE8F0810A884B881A43F8
:103A30008B881A43CB881A430B891A434B891A4344
:103A40008B891A43A0F8442070474FF6FF7181809C
:103A500000210180C18041800172704700210180F6
:103A600041808180C180018141818181C181704714
:103A7000002101804180012181800021C1800181DC
:103A800070470021018041808180C1800181418196
:103A90008181704721B1028842F00102028004E076
:103AA00002884FF6FE731A400280704731B1B0F8B9
:103AB000442042F40042A0F8442005E0B0F844203D
:103AC000C2F30E02A0F84420704710B51AB18389E2
:103AD0000B43838104E08389CC43A4B223408381D8
:103AE00010BD8182704741EA0203A0F84830704758
:103AF00010B51AB183890B43838104E08389CC43D9
:103B0000A4B22340838110BD01894FF6F8721140A1
:103B100001817047002202894FF68F731A400A43D1
:103B20000281704730B504460D4629462046FFF70E
:103B3000F1FF208940F00700208130BD2DE9F041E0
:103B400004460D4616461F46602D06D13B4601220F
:103B500031462046FFF7B2FE05E03B4601223146E2
:103B60002046FFF7D4FE29462046FFF7D3FF2089E1
:103B700040F007002081BDE8F08130B500240489C1
:103B8000E4B21D0642EA15450D432C43048130BDC5
:103B90002DE9F04104460D46164698460027434657
:103BA000324629462046FFF7E8FF27894FF6F8708E
:103BB000074047F007074FF68F70074047F0700740
:103BC0002781BDE8F0810000002C01400034014055
:103BD000F0B504460D4616461F463B46324629467A
:103BE0002046FFF7CAFF208940F480402081F0BDC5
:103BF000018582827047002202884FF68F731A4037
:103C00000A4302807047F0B500240025002604898D
:103C1000058B068C4FF6F8773C400C434FF6FC477B
:103C20003D4040F201173D434FF6DD773E401F0512
:103C300042EA17473E43048105830684F0BD002213
:103C4000028B4FF68F731A400A430283704700229B
:103C5000028B48F6FF731A400B0642EA13420283B6
:103C600070470022828B4FF68F731A400A4382837B
:103C700070470022828B48F6FF731A400B0642EA17
:103C800013428283704721B1028842F08002028091
:103C900004E002884FF67F731A400280704721B11A
:103CA000828842F00402828004E082884FF6FB732F
:103CB0001A408280704721B1828842F008028280D7
:103CC00004E082884FF6F7731A408280704721B172
:103CD000828842F00102828004E082884FF6FE73FF
:103CE0001A40828070470022028B4FF6F7731A4009
:103CF0000A43028370470022028B4FF2FF731A407F
:103D00000B0642EA1342028370470022828B4FF671
:103D1000F7731A400A43828370470022828B4FF266
:103D2000FF731A400B0642EA134282837047002257
:103D3000028B4FF6FB731A400A430283704700223E
:103D4000028B4FF6FF331A400B0642EA13420283FE
:103D500070470022828B4FF6FB731A400A4382831E
:103D600070470022828B4FF6FF331A400B0642EA5F
:103D70001342828370470022028B4FF67F731A40F2
:103D80000A43028370470022028BC2F30E020B0625
:103D900042EA1342028370470022828B4FF67F7300
:103DA0001A400A43828370470022828BC2F30E02BC
:103DB0000B0642EA1342828370470022028C4FF6C0
:103DC000FD731A400A43028470470022028C4FF6AA
:103DD000F7731A400A43028470470022028C4FF6A0
:103DE000DF731A400B0542EA134202847047002237
:103DF000028C4FF67F731A400B0542EA134202848D
:103E000070470022028C4FF6FF531A400B0642EA1D
:103E10001342028470470022028C4FF2FF731A4053
:103E20000B0642EA1342028470470022028C4DF6D0
:103E3000FF731A400B0742EA13420284704730B501
:103E4000002301248C40A3B2048CDD43ADB22C408E
:103E50000484048C02FA01F5ADB22C43048430BD15
:103E600030B5002304248C40A3B2048CDD43ADB2F2
:103E70002C400484048C02FA01F5ADB22C43048476
:103E800030BD70B5002300240346184618330125C1
:103E90008D40ACB2058CE643B6B23540058409B11D
:103EA000082909D103EB61031D6825F070051D6029
:103EB0001D6815431D600CE00D1FADB203EB6503DB
:103EC0001D6825F4E0451D601D68160645EA164587
:103ED0001D6070BD21B1028842F00202028004E040
:103EE00002884FF6FD731A400280704721B10288A4
:103EF00042F00402028004E002884FF6FB731A408D
:103F00000280704721B1828842F08002828004E002
:103F100082884FF67F731A408280704702884FF67E
:103F2000F7731A40028002880A4302807047828831
:103F30004FF68F731A40828082880A4382807047CE
:103F400002894FF6F8731A40028102890A430281FE
:103F5000704702894FF67F731A40028102890A4333
:103F600002817047818470478185704781867047E0
:103F70000187704781877047A0F84010704702881A
:103F80004FF6FF431A40028002880A4302807047BE
:103F90000146888E70470146088F70470146888F1A
:103FA00070470146B1F8400070470146888C704761
:103FB0000146088D704702460020138A0B4201D04B
:103FC000012000E000207047CA430282704730B5EC
:103FD0000246002000230024158A05EA0103958982
:103FE00005EA010413B10CB1012000E0002030BD4E
:103FF000CA430282704700000FB408491CB506ABE3
:104000006A4679440090059800F09DF900206946C1
:1040100000F0ACF91CBC5DF814FB00006703000065
:1040200070B50446856900683026C10600D4202694
:10403000C0070AD107E0D4E9012130469047206A41
:1040400000F1010020626D1EF5D570BD70B504460B
:1040500085690068C0070AD007E0D4E90121202063
:104060009047206A00F1010020626D1EF5D570BDF9
:104070002DE9F0418046002610687529414615A5B6
:1040800012D0AFF30080002803DAC0F1000012A5BF
:1040900008E0D8F800108A0701D510A502E049070A
:1040A00004D50FA5012601E0AFF30080002408F13C
:1040B000240704E000F05FF930313955641C002812
:1040C000F8D133462A4621464046BDE8F04100F08B
:1040D000DAB80000000000002D0000002B000000F6
:1040E000200000002DE9F05F4FF0000B05468946E7
:1040F0004FF0010AC0F820B02846E9688847002838
:104100006FD0252802D0D5E901219FE0E968284633
:1041100000268847C5F81CB004460027C5F818B02B
:104120002A2C10D1284659F8041B05EB870291610F
:10413000E9688847012F044628D1E869002830DA69
:1041400026F020062DE0A4F1300052460A28014650
:104150001AD2CAB105EB870092468046816108E019
:10416000D8F8180000EB800004EB40003038C8F8A5
:1041700018002846E968884704465046A4F13001F3
:104180000A2901D20028EBD1012F0AD02E2C08D108
:104190002846E96888477F1C0446022F46F020061F
:1041A000BEDBA869002803DA404246F00106A86198
:1041B000F00701D026F010066C2C01D0682C17D126
:1041C00027462846E9688847B84204460AD1802035
:1041D0006C2F00D0C000E968064328468847044693
:1041E00016E038E040206C2F00D0800006430FE03E
:1041F0004C2C05D06A2C03D0742C01D07A2C07D11A
:1042000058464C2CE7D080206A2CE4D00020E2E70E
:104210000CB3A4F14100192802D8203446F40066FA
:104220004A46214628462E604E46FBF799FF50B17C
:10423000012802D106F104095EE7F61D26F0070009
:1042400000F1080958E7D5E9012120469047286A7E
:10425000401C286250E7286ABDE8F09F30B505464B
:104260000B462A4613F8014B12F8010B08B1A04285
:10427000F8D00CB9284630BD0028FCD06D1CEFE703
:104280007047704770472DE9F0470D460446924647
:10429000994600F124080168880604D5E06921F0F8
:1042A0001001216000E001200027A84201DDA0EB01
:1042B0000507A16907EB050202EB0900A1EB00006D
:1042C000A0612068C00602D42046FFF7A9FE0026A0
:1042D00008E0D4E901211AF806009047206A401C42
:1042E000761C20624E45F4DB2068C0060AD52046C5
:1042F000FFF796FE06E0D4E9012130209047206ABE
:10430000401C2062381EA7F10107F4DC07E0D4E965
:10431000012118F805009047206A401C2062281EE1
:10432000A5F10105F3DC2046FFF790FE216802208D
:10433000090600D40120BDE8F087000001694A1C8D
:1043400002610878704710B50C46194690B0CDE967
:10435000024200220692044A7A44CDE9042001A8D0
:10436000FFF7C0FE10B010BDE1FFFFFF0A6802F8C2
:10437000010B0A6070474FF00A01B0FBF1F202FB3B
:10438000110110467047754600F028F8AE4605004A
:104390006946534620F00700854618B020B5FEF761
:1043A00073FABDE820404FF000064FF000074FF0D1
:1043B00000084FF0000B21F00701AC46ACE8C00943
:1043C000ACE8C009ACE8C009ACE8C0098D4670474C
:1043D0000446AFF300802046FBF7D6FE0048704746
:1043E000BC0200200148704770470000C002002056
:1043F00003494FF01800ABBE7047000009000000F1
:104400002600020070470000114909684FF044314E
:10441000104AC2F8041C104909684FF044310E4A92
:1044200011600C49D1F8081C4FEA1121926841EA49
:10443000022188B2064909684FF03331054AC2F8B3
:10444000041C054909684FF03331034A1160704775
:10445000040C0140000001400010014070B504460A
:104460000D4616480088A0F5094189390BD1294627
:104470004E2000F057F840F23F10001B81B24F2051
:1044800000F050F819E00D480088A0F519411939DD
:1044900008D121464E2000F045F829464F2000F073
:1044A00041F80AE02946202000F03CF840F23F1095
:1044B000001B81B2212000F035F870BD18000020EB
:1044C0002DE9F04104460D4616461F462946204672
:1044D000FFF7C4FF2146502000F024F8294652205F
:1044E00000F020F83146512000F01CF839465320E6
:1044F00000F018F8BDE8F08100B503464FF40070F5
:1045000007494861800008611846FCF786FF4FF4B0
:1045100080600349486108614010086100BD0000E7
:104520000010014010B503460C464FF480700D4951
:10453000486140004861800008611846FCF76DFF43
:104540004FF48060074948610861401008612046C7
:10455000FCF763FF4FF480600249486108618010F6
:10456000086110BD0010014010B5FFF73BFF4FF090
:104570000001016010BD000000000000000000000C
:104580000000000000000000183C3C3C1818180017
:104590001818000000000066666624000000000095
:1045A0000000000000000000006C6CFE6C6C6CFEF3
:1045B0006C6C0000000018187CC6C2C07C0686C661
:1045C0007C181800000000000000C2C60C18306003
:1045D000C686000000000000386C6C3876DCCCCC5D
:1045E000CC76000000000030303060000000000099
:1045F00000000000000000000C1830303030303077
:10460000180C00000000000030180C0C0C0C0C0CF6
:104610001830000000000000000000663CFF3C660F
:10462000000000000000000000000018187E1818AC
:104630000000000000000000000000000000001862
:1046400018183000000000000000000000FE00000C
:10465000000000000000000000000000000000005A
:104660001818000000000000000002060C1830605E
:10467000C0800000000000007CC6C6CED6D6E6C6CC
:10468000C67C0000000000001838781818181818A8
:10469000187E0000000000007CC6060C183060C0C8
:1046A000C6FE0000000000007CC606063C060606AA
:1046B000C67C0000000000000C1C3C6CCCFE0C0C06
:1046C0000C1E000000000000FEC0C0C0FC0E06066C
:1046D000C67C0000000000003860C0C0FCC6C6C632
:1046E000C67C000000000000FEC606060C18303034
:1046F00030300000000000007CC6C6C67CC6C6C6BE
:10470000C67C0000000000007CC6C6C67E06060609
:104710000C780000000000000000181800000018CD
:104720001800000000000000000018180000001829
:10473000183000000000000000060C18306030182F
:104740000C0600000000000000000000FE0000FE5B
:104750000000000000000000006030180C060C187B
:1047600030600000000000007CC6C60C181818005D
:104770001818000000000000007CC6C6DEDEDEDC8B
:10478000C07C00000000000010386CC6C6FEC6C623
:10479000C6C6000000000000FC6666667C666666B1
:1047A00066FC0000000000003C66C2C0C0C0C0C281
:1047B000663C000000000000F86C6666666666668F
:1047C0006CF8000000000000FE66626878686062B5
:1047D00066FE000000000000FE66626878686060A7
:1047E00060F00000000000003C66C2C0C0DEC6C62B
:1047F000663A000000000000C6C6C6C6FEC6C6C6B1
:10480000C6C60000000000003C1818181818181838
:10481000183C0000000000001E0C0C0C0C0CCCCC52
:10482000CC78000000000000E6666C6C78786C665E
:1048300066E6000000000000F0606060606060629A
:1048400066FE000000000000C6EEFEFED6C6C6C62C
:10485000C6C6000000000000C6E6F6FEDECEC6C6F4
:10486000C6C6000000000000386CC6C6C6C6C6C674
:104870006C38000000000000FC6666667C606060CA
:1048800060F00000000000007CC6C6C6C6C6C6D6E2
:10489000DE7C0C0E00000000FC6666667C6C6666C2
:1048A00066E60000000000007CC6C660380C06C644
:1048B000C67C0000000000007E7E5A1818181818E8
:1048C000183C000000000000C6C6C6C6C6C6C6C664
:1048D000C67C000000000000C6C6C6C6C6C6C66CC0
:1048E0003810000000000000C6C6C6C6C6D6D6FEF8
:1048F0006C6C000000000000C6C66C6C38386C6C34
:10490000C6C6000000000000666666663C181818FF
:10491000183C000000000000FEC6860C183060C283
:10492000C6FE0000000000003C3030303030303037
:10493000303C0000000000000080C0E070381C0E19
:1049400006020000000000003C0C0C0C0C0C0C0CCF
:104950000C3C0000000010386CC600000000000095
:104960000000000000000000000000000000000047
:10497000000000FF000030301800000000000000C0
:104980000000000000000000000000780C7CCCCC8F
:10499000CC76000000000000E06060786C6666661F
:1049A00066DC0000000000000000007CC6C0C0C043
:1049B000C67C0000000000001C0C0C3C6CCCCCCC75
:1049C000CC760000000000000000007CC6FEC0C0E5
:1049D000C67C000000000000386C6460F06060601D
:1049E00060F000000000000000000076CCCCCCCCD1
:1049F000CC7C0CCC78000000E060606C766666666B
:104A000066E6000000000000181800381818181892
:104A1000183C0000000000000606000E0606060610
:104A2000060666663C000000E06060666C78786CA4
:104A300066E600000000000038181818181818184A
:104A4000183C000000000000000000ECFED6D6D6A6
:104A5000D6D6000000000000000000DC6666666636
:104A600066660000000000000000007CC6C6C6C6E6
:104A7000C67C000000000000000000DC6666666680
:104A8000667C6060F000000000000076CCCCCCCCEE
:104A9000CC7C0C0C1E000000000000DC7662606024
:104AA00060F00000000000000000007CC660380CD0
:104AB000C67C000000000000103030FC3030303088
:104AC000361C000000000000000000CCCCCCCCCC98
:104AD000CC76000000000000000000666666666696
:104AE0003C18000000000000000000C6C6C6D6D674
:104AF000FE6C000000000000000000C66C38383872
:104B00006CC6000000000000000000C6C6C6C6C695
:104B1000C67E060CF8000000000000FECC183060D5
:104B2000C6FE0000000000000E18181870181818B3
:104B3000180E0000000000001818181800181818A7
:104B40001818000000000000701818180E18181827
:104B5000187000000000000076DC0000000000007B
:104B60000000000000000000000010386CC6C6C63F
:104B7000FE00000000000000984B0008000000202C
:104B80004400000028010008DC4B0008440000201D
:104B9000DC080000440100080000000000000000E4
:104BA0000000000000000000000000000000020003
:104BB0000000000000A24A04000000000000000005
:104BC00001020304060708090000000001020304B3
:0C4BD0000102030406070809020406089D
:04000005080000ED02
:00000001FF
